:020000040800F2
:10000000C80B002091020008451B00084919000890
:10001000411B0008C9040008092400080000000072
:100020000000000000000000000000004D1B000860
:10003000CD04000800000000491B0008511B000807
:10004000AB020008AB020008AB020008AB020008DC
:10005000AB020008AB020008AB020008AB020008CC
:10006000AB020008AB020008FD040008AB02000868
:10007000AB020008AB020008AB020008AB020008AC
:10008000AB020008AB020008AB020008AB0200089C
:10009000AB020008AB020008AB02000835050008FF
:1000A000AB020008AB020008AB020008AB0200087C
:1000B000AB020008AB020008AB020008AB0200086C
:1000C000AB020008AB020008AB020008AB0200085C
:1000D000AB020008AB020008AB020008AB0200084C
:1000E000D1040008AB020008AB020008AB02000814
:1000F000AB020008AB020008AB020008AB0200082C
:10010000AB020008AB020008AB020008AB0200081B
:10011000AB020008AB020008AB020008AB0200080B
:10012000AB020008AB020008AB020008AB020008FB
:10013000AB0200080000000000000000AB02000855
:10014000AB020008AB020008AB020008AB020008DB
:10015000AB020008AB020008AB020008AB020008CB
:10016000AB020008AB020008AB020008AB020008BB
:10017000AB020008AB020008AB0200080000000060
:1001800000000000AB0200080000000000000000BA
:10019000AB0200080000000000000000AB020008F5
:1001A000000000000000000000000000AB0200089A
:1001B000AB020008AB020008AB020008AB0200086B
:1001C000AB02000800F002F800F052F814A696E81E
:1001D000000CB244B344DA4501D100F049F8BAE862
:1001E0000F000FA696E83000A5EB040504EB060708
:1001F000AAEB0704A7F101074FEA15154FEA3414DB
:10020000A4F10104AC4201D300F032F813F0010F65
:1002100018BFFB1A43F0010300F001F8DBE71847B1
:100220003426000054260000103A24BF78C878C154
:10023000FAD8520724BF30C830C144BF04680C60EC
:1002400070470000704700000023002400250026AE
:10025000103A28BF78C1FBD8520728BF30C148BF29
:100260000B6070471FB502F0DCFA1FBD10B510BD62
:1002700000F0EFF81146FFF7F5FF02F0C7F800F0C5
:100280000DF903B4FFF7F2FF03BC00F015F900000D
:100290000948804709480047FEE7FEE7FEE7FEE71A
:1002A000FEE7FEE7FEE7FEE7FEE7FEE70448054956
:1002B000054A064B70470000091C0008C5010008EC
:1002C000C8050020C80B0020C8070020C807002070
:1002D00053EA020C00F069802DE9F04B4FF0000664
:1002E000002B1FBFB3FA83F503FA05F424FA05F6D1
:1002F0005E4012BF1643B2FA82F502FA05F4C5F168
:1003000020051EBF22FA05FC44EA0C04203556EAFB
:10031000044C4FEA144418BF641C4FF000084FF01F
:100320000009904271EB030C39D3002919BFB1FACF
:1003300081F701FA07F6B0FA80F700FA07F6C7F17D
:1003400020071EBF20FA07FC46EA0C062037B6FB42
:10035000F4FCA7EB0507103F07F01F0BCBF12006BD
:100360002CFA06F60CFA0BFB44BFB3460026202FEE
:10037000A4BF5E464FF0000B5BEA060C08BF4FF0CF
:10038000010B19EB0B0948EB0608ABFB027C06FBE3
:1003900002CC0BFB03CCC01B71EB0C01C1E70B467D
:1003A000024641464846BDE8F08B13B5084318BFE6
:1003B0004FF0FF300146AFF30080BDE81C407047AE
:1003C00010B5431C02E010F8011B71B18107FAD18E
:1003D0004FF0013202C88C1A8C4314EAC211F9D0D2
:1003E000C01A0A0603D0C01E10BDC01A10BD0A04F0
:1003F00001D0801E10BD0902FCD0401E10BD4FF080
:10040000000200B5134694469646203922BFA0E864
:100410000C50A0E80C50B1F12001BFF4F7AF090770
:1004200028BFA0E80C5048BF0CC05DF804EB890061
:1004300028BF40F8042B08BF704748BF20F8022BA4
:1004400011F0804F18BF00F8012B704770477047BC
:100450007047754600F02CF8AE46050069465346D5
:1004600020F00700854618B020B5FFF71FFFBDE854
:1004700020404FF000064FF000074FF000084FF00B
:10048000000BAC46ACE8C009ACE8C009ACE8C00958
:10049000ACE8C00921F007018D46704710B504464D
:1004A000AFF300802046BDE81040FFF7EABE000031
:1004B000004870471000002001491820ABBEFEE73D
:1004C0002600020070470000FEE7000070470000B1
:1004D00043F61440C4F201000068800458BF70471E
:1004E00080B540F20040C4F20200012100F058F94A
:1004F0004FF40050BDE8804000F070B843F614405F
:10050000C4F201000068C00658BF704780B540F2D1
:100510000100C2F200000021017040F60040C4F268
:1005200002001021012200F043F91020BDE88040B4
:1005300000F054B870B543F61446C4F201063068B2
:1005400040F6004440F20105C4F202048006C2F203
:10055000000509D50120287020462021012200F045
:1005600027F9202000F03AF83068400609D502202B
:10057000287020464021012200F01AF9402000F0A6
:100580002DF83068000658BF70BD03202870204643
:100590008021012200F00CF98020BDE8704000F0BD
:1005A0001DB80000EFF3108072B600BFFEE7000038
:1005B000B0B5044600F002F9054640F20400C2F26C
:1005C00000000078611C18BF044400BF00F0F6F87A
:1005D000401BA042FAD3B0BD7047000043F614415F
:1005E000C4F201010A68024214BF08607047FFF7B5
:1005F000F3BF00002DE9F04F82B000F13E4707F154
:10060000FF77860546EA972741F60006C4F2020600
:10061000072243F6004EB04208BF0622C4F2010E84
:10062000062F38BF3A46002600274FF000080092F8
:1006300009E000BF08F101080237B8F1100F06F118
:10064000040600F0A3800D68012202FA08F415EAFE
:100650000409EFD0D1F804B003220BF0030CACF185
:100660000105BA40012D6FEA020A0FD88268CD68F1
:1006700002EA0A02BD402A4382604268A243CBF3E9
:10068000001404FA08F42243426005E0BCF1030FB1
:1006900002D14FF0030C1EE0C2688C6802EA0A0225
:1006A000BC402243BCF1020FC26014D16FF00302C0
:1006B00002EA58020244D2F820C006F01C040F23BC
:1006C0000D69A3402CEA0303A5402B431362D1F824
:1006D00004B00BF0030C02680CFA07F302EA0A02FA
:1006E0001A431BF4403F0260A4D0002243F64403A7
:1006F0000192C4F202031A684FF6084C42F4804299
:100700001A601A68CFF6FF7C02F480420192019AC7
:1007100028F00302724452F80C3006F00C050F2446
:10072000AC40A343009C04FA05F52B4342F80C307F
:10073000DEF808204B6842EA090543F60C4CDC025F
:1007400058BF22EA0905CEF80850C4F2010CDCF8C3
:1007500000209C0242EA090558BF22EA0905CCF8AC
:100760000050DEF804209C0342EA090558BF22EA43
:100770000905CEF80450DEF80020DB0342EA090543
:1007800058BF22EA0905CEF8005053E702B0BDE891
:10079000F08F00000069084018BF0120704700007A
:1007A000426902EA0103914341EA034181617047D2
:1007B000002A08BF090481617047000040F2C05060
:1007C000C2F200000068704740F2040040F2C051DD
:1007D000C2F20000C2F2000100780A68104408600A
:1007E0007047000080B543F60040C4F20200016883
:1007F00041F400710160016841F4806101600168A9
:1008000041F480710160032000F086F8002000F0C0
:1008100005F800F027F8002080BD000070B540F218
:100820000406C2F2000640F20C013278C2F2000166
:100830004FF47A730968B3FBF2F20446B1FBF2F1AC
:10084000084600F0C1FE0F2C4FF0010508D838B95A
:100850004FF0FF3021460022002500F031F874608F
:10086000284670BD82B0002043F640010190C4F2DA
:1008700002014A6842F480424A604A6802F48042B7
:100880000192019A0090086840F080500860086862
:1008900000F080500090009802B07047002848BFD8
:1008A000704700F01F01012202FA01F11C2202EA46
:1008B000D0004EF20012CEF20002815070470000CC
:1008C00010B54EF60C5CCEF2000CDCF80030C3F331
:1008D000022E8EF00704042C28BF0424BEF103036B
:1008E0004FF0FF3E0EFA04F438BF0023A1439940B5
:1008F0000EFA03F39A43114300F00F0200F1604334
:100900000901043A03F564436244002848BF02F138
:100910000C03197010BD00004EF60C51CEF2000110
:100920000A684FF6FF031A4060F30A2242F0806023
:1009300040F0FD700860704701220168C0F8002592
:10094000002280F8F424886940F000608861486DD6
:1009500040F0805040F0030200204A6570470000DC
:10096000002804BF012070472DE9F04F8BB00446EA
:10097000056890F8BD0428B9002084F8BC0420461E
:1009800000F094F8032084F8BD04E86BC0055CBF58
:1009900000202061206801F0FDFC206804F11C0AA1
:1009A0000A90D4E90C5004F1040E9AE8C0079EE8BE
:1009B0000E58CDE9085003A880E8C0030A988DE8D6
:1009C0000058CDF81CA001F0A1F9002853D12068EF
:1009D0000021002501F0E6FC616869B301200023D5
:1009E000002200BF03EBC30304EB830787F83C201E
:1009F000D3B20132A7F84430D3B2994287F83D0010
:100A000087F84050C7E912557D65EBD800200023D8
:100A1000002200BF03EBC30304EB830787F87C22AB
:100A20000132D3B2994287F87D0287F88002C7E984
:100A3000A200C7F89402EDD8A06822680A90D4E911
:100A40000C5004F1140E04F1240AD4E903379EE893
:100A500040589AE80007CDE9085002A880E80058FD
:100A600010460A9ACDE90076CDE90589CDF81CA09B
:100A700001F04CFA30B1022084F8BD0401200BB023
:100A8000BDE8F08F002084F83800012084F8BD0410
:100A9000606A012802D12046FFF74EFF206801F06E
:100AA00025FA00200BB0BDE8F08F0000F0B59DB036
:100AB000044601A804305821FFF7A1FC2068B0F1DA
:100AC000A04F01D01DB0F0BD4FF48070019001A87F
:100AD00000F03EF8002818BFFFF764FD002743F63A
:100AE00030061897C4F202063068002440F0010076
:100AF00030603068C4F2020400F0010018901898C9
:100B00004FF4E85018900220CDE9190703201B90FC
:100B10000A2018AD1C9020462946FFF76BFD4FF4C4
:100B20000070CDE91807204629461A97FFF762FDA5
:100B3000706840F0800070600097706940F48040F9
:100B40007061706900F48040009000981DB0F0BDA5
:100B50002DE9F04381B00446006843F68C06C107D6
:100B6000C4F2020604D14FF0000981070CD415E04D
:100B70003168A26B21F0C06111433160B2FA82F199
:100B80004FEA5119810709D53168E26B21F0C05154
:100B900011433160002A08BF4FF00109410705D415
:100BA0004FF00008010712D420E000BF3168226B2B
:100BB00021F4401111433160B2FA82F14FEA511829
:100BC000B2F5801F08BF4FF0010901070ED531684B
:100BD000626B21F440011143B2F5800F316008BF10
:100BE0004FF00109002A08BF4FF0010881065AD5CD
:100BF0000020009056F84C0C47F2000740F080505F
:100C000046F84C0C56F84C0CC4F2000700F080502B
:100C100000900098386840F480703860FFF7CEFD8F
:100C2000054600BF3868C00506D4FFF7C7FD401B66
:100C30000228F7D990E100BF56F81C0C10F4407060
:100C400017D0216C01F44071884212D056F81C0C68
:100C500040F64061C4F24721012220F440700A604E
:100C600000220A6046F81C0C56F81C0CC00740F025
:100C70007B812068216C56F8842C4FF6FF4701F4E5
:100C8000407322F4F812C0F6FF770F40B3F5407FAF
:100C900008BF3A4346F8842C56F81C2C6FF31F31DA
:100CA000114346F81C1CC10610D4010619D4410694
:100CB0001FD4C10525D4810530D4410536D4B9F1FE
:100CC000000F3FD1B0F5006F63D13BE094F85800BE
:100CD00040F64061C4F24721C1F8A0032068010634
:100CE000E5D5B168E26C21F440011143B1604106E1
:100CF000DFD5B168A26C21F080611143B160C105FC
:100D0000D9D5B168626D21F000611143B160B2F1D3
:100D1000006F08BF4FF001088105CED5B168626C45
:100D200021F080511143B1604105C8D5B268216DF1
:100D300022F000520A43B0F5006FB26018BFB1F163
:100D4000005F23D140F26809C4F247290020C9F8A6
:100D50000000FFF733FD054656F88C0C000105D561
:100D6000FFF72CFD401B0228F6D9F5E02068C107EB
:100D700002D0A16B00296FD0810702D5E16B002959
:100D80006AD0410700F17D807FE000BFB9F1000F1C
:100D9000D8D1B8F1000F4FF0000000F0DE806827D6
:100DA000C4F24727B860FFF709FD054656F88C0CDA
:100DB000800005D5FFF702FD401B0228F6D9CBE0E5
:100DC0002068410701D5216B19B101071AD5616B64
:100DD000C1B956F8041CD4E9062301F44031656A10
:100DE000114341EA831141EA0561D4F82CC046F869
:100DF000041C31686FF0FF0221F4F85102EB0C2261
:100E000011433160C00516D5606DB0F1006F12D18D
:100E100056F8040C226AD4E9061300F07060D2037D
:100E20004FF6FF75AA430843A2F5803240EA8310CB
:100E3000104346F8040C0120B860FFF7BFFC0446DD
:100E400056F88C0C800000F18B80FFF7B7FC001B7C
:100E50000328F5D380E000BF56F8081C56F8082C8C
:100E6000D4E9013501F4403102F070621943676939
:100E7000114341EA851141EA077146F8081C410710
:100E800003D5216BB1F5801F05D001071FD5616B1C
:100E9000B1F5800F1BD156F8081C56F8082CD4E980
:100EA000013701F4403102F0E04219432569114352
:100EB00041EA871141EA0561D4F828C046F8081CC8
:100EC0003168ACF1010221F01F011143316041058D
:100ED0001FD5216DB1F1005F1BD1271D56F808CC3D
:100EE00056F8082CA8CFFF034FF6FF7127EA01013F
:100EF0004FF0C06702F0E04207EA4C2707F10077A5
:100F00001A433A43A1F5803142EA8512114346F86B
:100F1000081C000510D5271D8FCF40EA8110D10392
:100F20004FF6FF729143A1F5803140EA0360084318
:100F300040EA077046F8080C0120C9F80000FFF7E6
:100F40003DFC054656F88C0C00013FF522AFFFF73B
:100F500035FC401B0228F5D9032001B0BDE8F08321
:100F6000002001B0BDE8F083FFF728FC054641F200
:100F7000883700BF56F81C0C80073FF57AAEFFF7A4
:100F80001DFC401BB8424FF00300F3D9E5E7000019
:100F9000002804BF012070472DE9F04143F60808FE
:100FA000C4F202080446D8F8F8030D4600F00F001A
:100FB000884207D288F8F853D8F8F80300F00F00F9
:100FC000A84277D12068810717D5410705D5D8F801
:100FD000001041F4E051C8F80010010705D5D8F819
:100FE000001041F46041C8F80010D8F80010A26861
:100FF00021F0F0011143C8F80010C00740D1D8F823
:10100000F80300F00F00A84207D988F8F853D8F881
:10101000F80300F00F00A8424CD12068410707D523
:10102000D8F80010E26821F4E0511143C8F800102C
:10103000000708D5D8F80000216920F4604040EA94
:10104000C100C8F8000000F07DF8D8F8001042F6A2
:101050003C02C1F30311C0F60002515C40F20C02E5
:1010600020FA01F140F20800C2F200000068C2F26A
:1010700000021160FFF7D2FB0020BDE8F08100BF45
:101080006068811E022907D258F8081C89015CBFDC
:101090000120BDE8F08111E0012807D158F8081CB3
:1010A00089035CBF0120BDE8F08107E058F8081C07
:1010B000890703D40120BDE8F08100BFD8F80010F3
:1010C00021F003010843C8F80000FFF777FB06464C
:1010D00041F28837D8F80000616800F00C00B0EBEE
:1010E000810F8CD0FFF76AFB801BB842F2D9032036
:1010F000BDE8F08140F20C0043F60801C2F20000A6
:10110000C4F202010068096842F64C02C1F3822170
:10111000C0F60002515CC8407047000040F20C006D
:1011200043F60801C2F20000C4F202010068096837
:1011300042F64C02C1F34231C0F60002515CC84095
:101140007047000010B543F60404C4F2020460685E
:10115000C0F3810142F20040C0F2F400DFE801F088
:101160004202081841F20020C0F27A0010BD00BF10
:10117000216801F03F02216823684902C3F3881106
:1011800016D4A1FB00010023FFF7A2F817E000BF6F
:10119000216801F03F02216823684902C3F38811E6
:1011A00014D4A1FB00010023FFF792F815E000BF63
:1011B00041F20020C0F27A004843B0FBF2F021680F
:1011C0000222C1F3014102EB410109E041F200209A
:1011D000C0F27A004843B0FBF2F02168C1F302711B
:1011E000B0FBF1F010BD0000002804BF01207047E3
:1011F0002DE9F04182B00446007843F60006C007AE
:10120000C4F202060CD0B06800F00C00042840F0D4
:1012100089803068800303D56068002800F0508121
:101220002078800723D5B06810F00C0F11D0B0687B
:1012300000F00C00082802D17068400209D5B0689F
:1012400000F00C000C2840F09F807068400200F114
:101250009B803068800703D5E068012840F030812A
:101260003068216920F0F80040EAC1003060207841
:10127000000713D4207840072AD4A569002D00F078
:101280001A81B06800F00C00082840F0AB80012DF6
:1012900040F0E880012002B0BDE8F08160690028DC
:1012A00040F20000C4F2472000F088800121C0F81D
:1012B000801EFFF783FA0546706F8007DAD4FFF7C8
:1012C0007DFA401B0228F7D9032002B0BDE8F08167
:1012D000306C5FEAC0080AD400200190306C40F006
:1012E00080503064306C00F080500190019847F2DB
:1012F0000007C4F200073868C00537D4386840F4E6
:1013000080703860FFF75AFA054600BF3868C0059C
:101310002CD4FFF753FA401B0228F7D9032002B060
:10132000BDE8F081B06800F00C00082803D17068B7
:1013300040023FF56EAFB06800F00C000C2803D1FE
:10134000706840023FF565AF6068B0F5803F07D038
:10135000B0F5A02F40F0CC80306840F480203060A1
:10136000306840F480303060CCE000BFA0680128D5
:1013700005D0052858D1306F40F004003067306F39
:1013800040F0010030675AE0E068002800F09C80DF
:101390000020C4F2472001210160FFF70FFA054643
:1013A000306880073FF55CAFFFF708FA401B022862
:1013B0004FF00300F4D902B0BDE8F0810021C0F87D
:1013C000801EFFF7FBF90546706F80077FF552AF6F
:1013D000FFF7F4F9401B0228F6D9032002B0BDE85C
:1013E000F08100BF0027C4F2472700203866FFF7CE
:1013F000E5F9022D05460BD13068800140F194805B
:10140000FFF7DCF9401B02284FF00300F4D9D2E7C4
:10141000306880014FD5FFF7D1F9401B02284FF00B
:101420000300F5D9C7E700BF316F002821F00101A3
:101430003167316F21F00401316700F09980FFF7C7
:10144000BDF9054641F28837306F800700F1A28070
:10145000FFF7B4F9401BB842F6D9032002B0BDE84B
:10146000F08100BF7068E16900F480028A4227D1F0
:10147000216A00F03F028A4222D147F6C071626AB7
:101480000140B1EB821F1BD1A16A4FF6FF73C90364
:10149000994300F44032A1F580318A4210D1E16ACB
:1014A00000F07062B2EB016F0AD1216B00F0E040F6
:1014B000B0EB017F04D1002002B0BDE8F08100BF95
:1014C000012002B0BDE8F0810020C4F247200021D5
:1014D0000160FFF773F90546306880077FF5C7AEF6
:1014E000FFF76CF9401B02284FF00300F4D962E7C4
:1014F0003168002821F480313160316821F4802185
:10150000316051D0FFF75AF9054600BF30688003BB
:101510003FF586AEFFF752F9401B6428F6D9032049
:1015200002B0BDE8F08100BF04F11C052FCD246B93
:10153000084340EA8210D9034FF6FF729143A1F5A8
:10154000803140EA0560084340EA04707060012081
:101550003866FFF733F9044630688001ABD4FFF7F3
:101560002DF9001B02284FF00300F5D923E700BF37
:10157000FFF724F9054641F2883700BF306F800736
:1015800008D5FFF71BF9401BB8424FF00300F5D90F
:1015900011E700BFB8F1000F3FF56FAE306C20F0DF
:1015A0008050306469E600BFFFF708F9054600BFC8
:1015B000306880037FF534AEFFF700F9401B6428E4
:1015C0004FF00300F4D9F6E6411E0020B0EB116F96
:1015D0001CBF012070474EF21002CEF20002516093
:1015E0004EF62351CEF20001F0230B7007219060DC
:1015F00011607047002804BF0120704710B50446F1
:1016000090F83D0028B9002084F83C00204600F006
:1016100021F8242084F83D002068C16821F400519D
:10162000C160204600F0FAFA2068016921F4904177
:101630000161416921F02A014161C16841F4005111
:10164000C16000202021206484F83D1084F83E1001
:1016500010BD0000016844F60000C4F200008142A1
:1016600018BF704780B586B0002143F63002019163
:10167000C4F20202136900F5E23043F480231361DF
:10168000136903F480230193019B0191136843F0D4
:1016900008031360126802F008020192019A4FF4E5
:1016A000407201920222CDE9022103210491072117
:1016B000059101A9FEF79EFF06B0BDE88040704786
:1016C0002DE9F04381B0044690F83D0020280DD16B
:1016D0000F4600294FF0010000F0DD801646002A79
:1016E00000F0D98094F83C00012803D1022001B019
:1016F000BDE8F083012084F83C0000202064212014
:101700001D4684F83D00FFF759F8A684E684A168D9
:101710000646B1F5805F03D12069002800F01081F2
:10172000B8460027002084F83C00E18C206800299E
:1017300000F0908005F101090DE000BFB8F1000F45
:1017400028D018F8011B4160E18C0139E184E18C5B
:10175000002900F07F8001680906EFD4B9F1000F7D
:101760000AD0FDB1FFF72AF8801BA8421AD82068DA
:1017700001680906F6D5E1E701680906DED40168CB
:1017800009065CBF01685FEA0161D7D401680906F8
:10179000F2D5D3E737F8021B4FF000086FF35F2153
:1017A000D1E700BF206850E8030F216820F4D07013
:1017B00041E80302BAB3206850E8030F216820F41F
:1017C000D07041E8030272B3206850E8030F21682B
:1017D00020F4D07041E803022AB3206850E8030FD8
:1017E000216820F4D07041E80302002ADAD11AE01F
:1017F000206850E8050F216820F0010041E805024B
:10180000DAB1206850E8050F216820F0010041E8B6
:10181000050292B1206850E8050F216820F0010010
:1018200041E805024AB1206850E8050F216820F020
:10183000010041E80502002ADAD1202084F83D00A9
:1018400084F83E00002084F83C00032001B0BDE88D
:10185000F08300BF0168490619D4FDB1691C0DD1A0
:101860000168490613D4016849065CBF01685FEA54
:1018700041610CD401684906F2D508E0FEF79EFFED
:10188000801BA8420AD8206800684006F6D52020B0
:1018900084F83D00002001B0BDE8F083206850E8E6
:1018A000030F216820F4D07041E80302E2B32068FE
:1018B00050E8030F216820F4D07041E803029AB386
:1018C000206850E8030F216820F4D07041E803023B
:1018D00052B3206850E8030F216820F4D07041E82B
:1018E0000302002ADAD11FE0206850E8050F2168C2
:1018F00020F0010041E80502002A9ED0206850E84F
:10190000050F216820F0010041E80502002A3FF49C
:1019100094AF206850E8050F216820F0010041E8ED
:101920000502002A3FF489AF206850E8050F2168BE
:1019300020F0010041E80502002AD5D17DE700BF73
:101940004FF00008EEE60000FEE700002DE9F04F42
:1019500087B0002443F63000CDE905440194C4F279
:101960000200016840F6000841F0040101600168CE
:10197000C4F2020801F00401019101990194016887
:10198000A8F5806741F0800101600168002201F044
:101990008001019101990194016844F2810A41F0AA
:1019A00002010160016801F00201019101990194B5
:1019B000016841F008010160016801F0080101912E
:1019C00001990194016841F040010160016801F052
:1019D0004001019101990194016841F00101016008
:1019E000006844F2810100F001000190019838463E
:1019F000FEF7DEFE08F580552846402100224FF014
:101A0000400BFEF7D5FE40464FF470610022FEF712
:101A1000CFFE4FF4005002AE02904FF488194046BA
:101A20003146CDE90394FEF7E5FDCDF808A04FF06F
:101A3000010A38463146CDE903A40594FEF7DAFDE4
:101A400028463146CDE902BACDE90444FEF7D2FD7D
:101A50008020CDE90204284631460494FEF7CAFDF1
:101A60004FF47060CDE9020A40463146CDE90444A6
:101A7000FEF7C0FDF020CDE902090220049008F530
:101A800080603146FEF7B6FD0A2000210022FEF7F5
:101A900017FF0A20FEF702FF172000210022FEF7A1
:101AA0000FFF1720FEF7FAFE282000210022FEF784
:101AB00007FF2820FEF7F2FE07B0BDE8F08F000018
:101AC00080B540F27C5044F60001C2F20000C4F23E
:101AD000000100234FF00C0C4FF4164280E80E007A
:101AE000C0E90333C0E905C3C361FFF783FD0028E4
:101AF00008BF80BDEFF3108072B600BFFEE70000A4
:101B000080B540F27000C2F200004FF0A041062202
:101B1000C0E90012022100220123C0E90312C0E93A
:101B20000613C0E90822C0E90B32FEF719FF0028AE
:101B300008BF80BDEFF3108072B600BFFEE7000063
:101B4000FEE70000FEE7000070470000704700005D
:101B5000FEF73ABEB0B594B0002443F64000CDE99C
:101B60000B44CDE909440694CDE90444CDE902448F
:101B70000194C4F202000168022541F08051016025
:101B8000006800F080500190019847F20000019435
:101B9000C4F20000016841F440410160006800F4B3
:101BA000404001900198012007904FF4A020089038
:101BB0004FF480000E9004200F90A820CDE910056E
:101BC0000720CDE9120507A80D95FFF70DFB28B1F9
:101BD000EFF3108072B600BFFEE700BF0F20CDE923
:101BE00002054FF4A05005904FF48050069002A8D3
:101BF00005210494FFF7CCF920B1EFF3108072B601
:101C0000FEE700BF14B0B0BD4EF68850CEF2000023
:101C1000016841F4700101607047000010B504468E
:101C20000068D4E902C22369016921F440511143DB
:101C30000161626943EA0C01E3691143C268194317
:101C400049F20C639A431143C1604169A26921F4CE
:101C5000407141F20043114340F48062C4F2010339
:101C60009A42416102D1FFF759FA01E0FFF742FAC7
:101C7000E16963681922B1F5004FA0FB020123D18D
:101C80005A00DB0FFEF724FB48F21F51C5F2EB119F
:101C9000A0FB01235A094FF69C73C0F6FF7303F1B2
:101CA000805302FB0300322303EBC000A0FB0101C1
:101CB0004FF4F87000EA111000EB0210C1F342116A
:101CC00008442168886010BD9A009B0FFEF700FB56
:101CD00048F21F51C5F2EB11A0FB01235A094FF640
:101CE0009C73C0F6FF7302FB0300322303EB00106A
:101CF000A0FB0101F02000EA511000EB0210C1F33B
:101D0000431108442168886010BD000082B0049926
:101D1000DDF808C0012940F64051C0F203016FD13F
:101D2000826B4FF6BF7322F480328263C268CFF6B3
:101D3000BD731A40C260C2680B9B22F44012012B93
:101D4000C26003D1C26842F48012C26000220092D5
:101D5000009A01320092009A8A4200F2A980026938
:101D6000002A1ED4009A01320092009A8A4200F2A0
:101D70009F800269002A14D4009A01320092009ACE
:101D80008A4200F295800269002A0AD4009A013240
:101D90000092009A8A4200F28B800269B2F1FF3F02
:101DA000D6DC00220092026942F001020261009A30
:101DB00001320092009A8A427AD80269D2071AD078
:101DC000009A01320092009A8A4271D80269D207C1
:101DD00011D0009A01320092009A8A4268D80269B2
:101DE000D20708D0009A01320092009A8A425FD846
:101DF0000269D207DBD10021BCF1010F72D169E089
:101E0000C268089B42F04002C26000220192019A1F
:101E100001320192019A8A4250D80269002A1BD4E9
:101E2000019A01320192019A8A4247D80269002A36
:101E300012D4019A01320192019A8A423ED8026973
:101E4000002A09D4019A01320192019A8A4235D8B6
:101E50000269B2F1FF3FDADC00220192026942F02E
:101E600001020261019A01320192019A8A4225D847
:101E70000269D2071AD0019A01320192019A8A426C
:101E80001CD80269D20711D0019A01320192019A3D
:101E90008A4213D80269D20708D0019A013201920E
:101EA000019A8A420AD80269D207DBD1002106E0F2
:101EB0000321BCF1010F15D10CE000BF0321826B9F
:101EC000002B14BF22F4803242F480328263BCF1D2
:101ED000010F07D1826842F006028260826842F0F8
:101EE00020028260084602B0704700000146D0F828
:101EF000000E20F00300C1F8000ED1F8040840F0F5
:101F000002020020C1F80428704700002DE9F04FBC
:101F100083B0DDF84C800E9F0022B8F1000FC0F8AE
:101F20000421C0F80821C0F80C21C0F81021C0F825
:101F30001421C0F81821C0F81C21C0F82021C0F8D5
:101F40002421C0F82821C0F82C21C0F83021C0F885
:101F50003421C0F83821C0F83C2107D0826B00F54D
:101F6000006B42F40012826314E000BFD0F8042832
:101F700000F5006B42F00202C0F80428826B22F4E4
:101F800000128263026842F040020260066846F076
:101F9000800606600026C0F8006ED0F80068012FA9
:101FA000C0F8006806D1DBF80070002B18BF47F0BE
:101FB000010703E0DBF8003043F00307DDF83CE005
:101FC000DDF8309040F64055C0F203050023C0F81C
:101FD00000780193019B01330193019BAB4249D8E7
:101FE0000369002B1BD4019B01330193019BAB427E
:101FF00040D80369002B12D4019B01330193019B4C
:10200000AB4237D80369002B09D4019B01330193FC
:10201000019BAB422ED80369B3F1FF3FDADC00230A
:1020200001934FF484630361019B01330193019B8E
:10203000AB421FD803699B061AD5019B013301935C
:10204000019BAB4216D803699B0611D5019B013356
:102050000193019BAB420DD803699B0608D5019BF8
:1020600001330193019BAB4204D803699B06DBD487
:10207000002400E0012400230293029B0133029319
:10208000029BAB4248D80369002B1BD4029B01334F
:102090000293029BAB423FD80369002B12D4029BF0
:1020A00001330293029BAB4236D80369002B09D45B
:1020B000029B01330293029BAB422DD80369B3F11B
:1020C000FF3FDADC0023029310230361029B0133FC
:1020D0000293029BAB421FD80369DB061DD5029B0E
:1020E00001330293029BAB4216D80369DB0614D579
:1020F000029B01330293029BAB420DD80369DB06BE
:102100000BD5029B01330293029BAB4204D80369B7
:10211000DB06DBD401E000BF01244FF0000A0029F8
:10212000CBF810A0CBF814A0CBF81CA000F00481D1
:10213000D0F800394FF0006707EA13134FF67F32EB
:102140004E1EC0F80039C0F810A9C0F808297BD08D
:102150008B1E032B06F003097246009404D2202440
:10216000B9F1000F3FD165E026F0030400234FF0E2
:10217000904E4FF67F384FF0000C00BF00EB0C057F
:10218000D5F82079043C0EEAE777C5F82079C5F840
:102190003039C5F82889D5F840790CF1800C0EEA61
:1021A000E777C5F84079C5F85039C5F84889D5F8BA
:1021B00060790EEAE777C5F86079C5F87039C5F837
:1021C0006889D5F880790EEAE777C5F88079C5F88F
:1021D0009039C5F88889D1D1DDF84C800CF1200404
:1021E000B9F1000F26D000F510673D594FF0904C23
:1021F0000CEAE5753B193D5100244FF67F3EB9F1DD
:10220000010F1C61C3F808E014D01D6AB9F1020F78
:102210000CEAE5771F621C63C3F828E00AD01F6C44
:102220004FF0904505EAE7771F6400271F654FF6DA
:102230007F379F64DDF83090009C002996464FF66A
:102240007F324FF0006777D0D0F8003B002E07EACE
:102250001313C0F8003B4FF00003C0F8103BC0F868
:10226000082B69D00239032906F0030C04D220237D
:10227000BCF1000F3BD15FE0009426F003044FF067
:1022800090474FF67F3600214518D5F8202B043CA7
:1022900007EAE272C5F8202BC5F8303BC5F8286B79
:1022A000D5F8402B01F1800107EAE272C5F8402B16
:1022B000C5F8503BC5F8486BD5F8602B07EAE272C9
:1022C000C5F8602BC5F8703BC5F8686BD5F8802B56
:1022D00007EAE272C5F8802BC5F8903BC5F8886B19
:1022E000D2D1009C01F12003BCF1000F24D000F5F5
:1022F0003062D6584FF0904707EAE676D118D650AC
:1023000000264FF67F33BCF1010F0E618B6013D0B6
:102310000A6ABCF1020F07EAE2720A620E638B627C
:102320000AD00A6C4FF0904303EAE2720A6400227A
:102330000A654FF67F328A64DBF81010B9F1000F9E
:1023400021F48071CBF810106FF08041C0F818A014
:10235000416103D1816941F010018161816943F6D6
:102360000002C8F23C021143BEF1000F816103D0AC
:10237000816941F008018161B8F1010F05D18169DE
:1023800041F0804141F004018161204603B0BDE885
:10239000F08F00000146806820F0010200208A6072
:1023A00070470000B0B50446C06820F0C040E0604F
:1023B00091B1012926D1E068002540F00050E0608D
:1023C0000120FEF7F5F86069C00705F1010014D19E
:1023D000312D0546F4D310E0E068002540F0804040
:1023E000E06000BF0120FEF7E3F86069C00705F177
:1023F000010002D0312D0546F4D33238B0FA80F016
:102400004009B0BD0120B0BDFEE700009CB040F621
:102410000044C4F20204FEF7E5F9FFF79BFBFFF767
:1024200095FAFFF74DFBFFF76BFB00208DF81400CA
:1024300042F67460C0F62E20049047F25340C7F273
:102440006120039003A800F0DDF9FFF77FFAFFF7A2
:1024500037FBFFF755FBA4F5806528464FF48071E4
:1024600001224FF00108FEF7A3F928464FF400714E
:102470000022FEF79DF928464FF480610022FEF706
:1024800097F928464FF400610022FEF791F940F2D7
:102490000007C2F200070DF106064FF0FF0A4FF0E9
:1024A00031094FF0300B00BF5020FEF781F828466D
:1024B0004FF480710122FEF77BF928464FF400713A
:1024C0000022FEF775F928464FF480610022FEF7DE
:1024D0006FF928464FF400610022FEF769F91420D5
:1024E000FEF766F8787887F80080FF2849D0204604
:1024F0001021FEF74FF901280CD13320ADF806006A
:10250000304600F07FF9204610210022FEF750F9F6
:1025100087F801A020462021FEF73CF901280CD1C4
:102520003220ADF80600304600F06CF9204620213C
:102530000022FEF73DF987F801A020464021FEF772
:1025400029F901280BD13046ADF8069000F05AF970
:10255000204640210022FEF72BF987F801A02046F3
:102560008021FEF717F901280BD13046ADF806B0EF
:1025700000F048F9204680210022FEF719F987F87B
:1025800001A028464FF480710022FEF711F9284679
:102590004FF400710122FEF70BF928464FF48061D9
:1025A0000022FEF705F928464FF400610022FEF7ED
:1025B000FFF8787887F80080FF284BD0204610215C
:1025C000FEF7E8F801280CD13720ADF806003046B8
:1025D00000F018F9204610210022FEF7E9F887F8EC
:1025E00001A020462021FEF7D5F801280CD1362085
:1025F000ADF80600304600F005F920462021002203
:10260000FEF7D6F887F801A020464021FEF7C2F871
:1026100001280CD13520ADF80600304600F0F2F864
:10262000204640210022FEF7C3F887F801A020468B
:102630008021FEF7AFF801280CD13420ADF8060058
:10264000304600F0DFF8204680210022FEF7B0F887
:1026500087F801A028464FF480710022FEF7A8F801
:1026600028464FF400710022FEF7A2F828464FF4E6
:1026700080610122FEF79CF828464FF40061002299
:10268000FEF796F8787887F80080FF284BD0204630
:102690001021FEF77FF801280CD14220ADF806008A
:1026A000304600F0AFF8204610210022FEF780F8F7
:1026B00087F801A020462021FEF76CF801280CD1F4
:1026C0004120ADF80600304600F09CF8204620215D
:1026D0000022FEF76DF887F801A020464021FEF7A2
:1026E00059F801280CD13920ADF80600304600F029
:1026F00089F8204640210022FEF75AF887F801A009
:1027000020468021FEF746F801280CD13820ADF88C
:102710000600304600F076F8204680210022FEF7C1
:1027200047F887F801A028464FF480710022FEF791
:102730003FF828464FF400710022FEF739F828468A
:102740004FF480610022FEF733F828464FF4006111
:102750000122FEF72DF81420FDF72AFF787887F87C
:102760000080FF283FF4A0AE20461021FEF712F8AB
:1027700001280CD14620ADF80600304600F042F8A2
:10278000204610210022FEF713F887F801A020460A
:102790002021FDF7FFFF01280CD14520ADF80600F0
:1027A000304600F02FF8204620210022FEF700F8E6
:1027B00087F801A020464021FDF7ECFF01280CD14D
:1027C0004420ADF80600304600F01CF820464021B9
:1027D0000022FDF7EDFF87F801A020468021FDF7DC
:1027E000D9FF01287FF460AE4320ADF806003046E3
:1027F00000F008F8204680210022FDF7D9FF87F875
:1028000001A051E610B50446FDF7DAFD82B240F2B0
:102810007C50C2F2000021466423BDE81040FEF760
:102820004FBFF1EE100A4FF6FF71C0F2C03120EA3F
:10283000010040F04070E1EE100A70470000000017
:102840000000000001020304060708090000000060
:102850000102030478280008000000201000000096
:10286000280200088828000810000020B80B00008B
:102870004802000800000000FFFF00000100000007
:08288000100000000024F40028
:04000005080001C529
:00000001FF
