:020000040800F2
:1000000038F70120910200088D420008C53E000823
:100010008942000889040008E54F0008000000003C
:1000200000000000000000000000000095420008F1
:10003000690500080000000091420008994200088C
:10004000AB020008AB020008AB020008AB020008DC
:10005000AB020008AB020008AB020008AB020008CC
:10006000AB020008AB020008AB020008AB020008BC
:10007000AB020008AB02000835050008AB0200081F
:10008000AB020008AB020008AB020008AB0200089C
:10009000AB020008AB020008AB020008AB0200088C
:1000A000AB020008AB020008AB020008AB0200087C
:1000B000AB020008AB020008AB020008AB0200086C
:1000C000AB020008AB020008AB020008AB0200085C
:1000D000AB020008AB020008AB020008DD480008D4
:1000E0006D050008AB020008AB020008AB02000877
:1000F000AB020008AB020008AB020008AB0200082C
:10010000AB020008AB020008AB020008AB0200081B
:10011000AB020008AB02000865430008AB02000810
:10012000AB02000841050008AB020008AB02000862
:10013000AB0200080000000000000000AB02000855
:10014000AB020008AB020008AB020008AB020008DB
:10015000AB020008AB020008AB020008AB020008CB
:10016000AB020008AB020008AB020008AB020008BB
:10017000AB020008AB0200082905000800000000DF
:1001800000000000AB0200080000000000000000BA
:10019000AB0200080000000000000000AB020008F5
:1001A000000000000000000000000000AB0200089A
:1001B000AB020008AB020008AB020008AB0200086B
:1001C000AB02000800F002F800F052F814A696E81E
:1001D000000CB244B344DA4501D100F049F8BAE862
:1001E0000F000FA696E83000A5EB040504EB060708
:1001F000AAEB0704A7F101074FEA15154FEA3414DB
:10020000A4F10104AC4201D300F032F813F0010F65
:1002100018BFFB1A43F0010300F001F8DBE71847B1
:100220005C5500007C550000103A24BF78C878C1A6
:10023000FAD8520724BF30C830C144BF04680C60EC
:1002400070470000704700000023002400250026AE
:10025000103A28BF78C1FBD8520728BF30C148BF29
:100260000B6070471FB505F0F2F91FBD10B510BD4A
:1002700000F0D0F81146FFF7F5FF04F0B5FE00F0EE
:10028000EEF803B4FFF7F2FF03BC00F0F5F800004E
:100290000948804709480047FEE7FEE7FEE7FEE71A
:1002A000FEE7FEE7FEE7FEE7FEE7FEE70448054956
:1002B000054A064B7047000051430008C50100087D
:1002C00038F1012038F7012038F3012038F30120FC
:1002D00053EA020C00F069802DE9F04B4FF0000664
:1002E000002B1FBFB3FA83F503FA05F424FA05F6D1
:1002F0005E4012BF1643B2FA82F502FA05F4C5F168
:1003000020051EBF22FA05FC44EA0C04203556EAFB
:10031000044C4FEA144418BF641C4FF000084FF01F
:100320000009904271EB030C39D3002919BFB1FACF
:1003300081F701FA07F6B0FA80F700FA07F6C7F17D
:1003400020071EBF20FA07FC46EA0C062037B6FB42
:10035000F4FCA7EB0507103F07F01F0BCBF12006BD
:100360002CFA06F60CFA0BFB44BFB3460026202FEE
:10037000A4BF5E464FF0000B5BEA060C08BF4FF0CF
:10038000010B19EB0B0948EB0608ABFB027C06FBE3
:1003900002CC0BFB03CCC01B71EB0C01C1E70B467D
:1003A000024641464846BDE8F08B13B5084318BFE6
:1003B0004FF0FF300146AFF30080BDE81C407047AE
:1003C0004FF0000200B5134694469646203922BFEE
:1003D000A0E80C50A0E80C50B1F12001BFF4F7AF39
:1003E000090728BFA0E80C5048BF0CC05DF804EB1B
:1003F000890028BF40F8042B08BF704748BF20F889
:10040000022B11F0804F18BF00F8012B7047704786
:1004100070477047754600F02BF8AE4605006946F8
:10042000534620F00700854618B020B5FFF73EFF81
:10043000BDE820404FF000064FF000074FF00008E5
:100440004FF0000BAC46ACE8C009ACE8C009ACE822
:10045000C009ACE8C00921F007018D46704710B50E
:100460000446AFF300802046BDE81040FFF709BF07
:10047000004870471000002001491820ABBEFEE77D
:100480002600020070470000FEE70000806B816CD0
:10049000496D02291CBF012180F8351000F084B895
:1004A00010B5846BA36BA06C01680A6863B1A36B81
:1004B000DB0717D112F4002214D0C968E26B01EBFC
:1004C000C201002216E000BF100319D4086800031F
:1004D00018D4E06BD4E9102303EB80000861A26319
:1004E00010E000BF0A6812030CD40969E26B01EB4B
:1004F000C201012200F0BEFAA06B0138A06301E046
:10050000606CC860A06B216C884218BF10BD206869
:10051000C16841F00101C1600068800744BF01204B
:1005200084F8350010BD000040F27800C2F20000EF
:1005300000F03EB840F22810C2F2000000F06ABDA0
:1005400080B540F2C800C2F2000000F063FD40F246
:100550007800C2F2000000F033FA40F27000C2F2FC
:1005600000000121017080BD7047000043F6144077
:10057000C4F201000068800458BF704780B540F2A3
:100580000040C4F202000121012201F019F84FF4E9
:100590000050BDE8804000F037BF0000EFF310804E
:1005A00072B600BFFEE70000704700007047000011
:1005B00070B50446006840F28D460569C0F6000635
:1005C00069071FD4A8072BD4E80639D4280705D516
:1005D000206808214161204600F04AFAE80708BF78
:1005E00070BD21680868800703D5C86820F01E0028
:1005F000C860C86820F001022046CA60BDE87040AB
:10060000FFF7D4BF04214161E06C40F00200E064D8
:1006100084F83510A06C066500F0EAFCA807D3D575
:1006200021680222A06C4A61E16C41F00101E164A1
:10063000042184F83510066500F0DAFCE806C5D51B
:10064000206810214161204600F052F82807BFD4ED
:10065000C4E70000002804BF012070472DE9F04FD7
:1006600081B0044690F8350040B9002084F8340089
:10067000204600F03FF8204600F03CF8022084F8C5
:10068000350094E801514FF207030268CFF6E0739A
:100690001A400260D4E90432A56942EA0E021A4304
:1006A000D4E9086742EA0C0204F1280A2A439AE8CE
:1006B000020632433A431143D0F800B041EA09013F
:1006C00041EA0A0141EA0B0141EA08010160B8F17F
:1006D000100F04BFE1698161C16841F01E01C16072
:1006E00000200121E06484F8351001B0BDE8F08FEE
:1006F000704700002DE9F04385B0044600680021F2
:10070000C5F20501884203D005B0BDE8F08300BF03
:10071000002743F630000097C4F20200416800252C
:1007200041F0010141604168C4F2020501F001019C
:1007300000910099009701686E4641F01001016038
:1007400001684FF0020801F0100100910099009734
:1007500001684FF00D0941F001010160016801F0ED
:100760000101009100990097016841F004010160C6
:10077000016801F00401009100990097016841F0BF
:1007800008010160016801F00801009100990097DB
:10079000016841F0400101600068314600F040000E
:1007A000009000987020009005F58050CDE90187F9
:1007B0000397CDF8109000F033FE5020CDE90008EB
:1007C00028463146CDE90277CDF8109000F028FE9A
:1007D0004FF47070CDE9000805F500603146CDE9B1
:1007E0000277CDF8109000F01BFE0820CDE900083C
:1007F00005F540603146CDE90277CDF8109000F064
:100800000FFE4FF40070CDE9000805F5C0503146E9
:10081000CDE90277CDF8109000F002FE40F2C80555
:1008200046F22840C2F20005C4F202004FF0007107
:100830004FF4805385E8830005F114004FF4806283
:100840004FF480464FF4807C80E848104FF400302D
:1008500005F12003C5E903720421032287C328465A
:100860002F6300F0B7FC002818BFFFF797FE4E205B
:1008700000210022A564AC6301F02EFD4E2001F0A2
:1008800019FD05B0BDE8F08390F83410012904BFCC
:100890000220704790F83510052907D1022180F811
:1008A000351001680A6842F001020A60002180F8F0
:1008B000341008467047000070B582B0044690F8C6
:1008C000340001284FF0020078D04FF0010E84F878
:1008D00034E084F83500D4F800C0A06CDCF8005097
:1008E000002645F48045CCF80050DCF80050B6EB0B
:1008F000134F25F00205CCF80050DCF8005041EA17
:100900000501CCF8001040F2A14140F28D45C0F63F
:100910000001C0F60005C163C0E91356A663266452
:1009200004D10CF1280100F007FD3FE04164C4F858
:1009300038E0E3636264E16BB1F5803F28D30021C6
:10094000E36B5B08E363A36B5B00A363E36BB3F54B
:10095000803F1DD3E36B5B08E363A36B5B00A36382
:10096000E36BB3F5803F13D3E36B5B08E363A36BE7
:100970005B00A363E36BB3F5803F09D3E36B5B08D4
:10098000E363A36B5B00A363E36BB1EB134FD7D1BE
:10099000A16B0239A163A16B2164E16BE66B02EBF1
:1009A00081030CF12801009600F06EF820680168C0
:1009B00041F001010160002084F8340002B070BDF4
:1009C00081B040F20801C2F20001096842F293428C
:1009D0004908C9F24922A1FB02129108009190F83E
:1009E0003410012904D10221084601B0704700BF2C
:1009F00090F835104FF0000C02294FF0000124D17F
:100A0000052180F8351001680B6823F001030B60A5
:100A1000009B5A1E0092EBB10A68D20714D0009ACC
:100A2000531E0093B2B10A68D2070DD0009A531E2C
:100A300000937AB10A68D20706D0009A531E009339
:100A400042B10A68D207E3D1002180F834C00846D9
:100A500001B07047C16C41F02001C164012180F8F0
:100A60003510032180F834C0084601B070470000FB
:100A700070470000D0F800C010230020002A08BFF3
:100A80000C234CF80310704770B58568802D05D194
:100A90004FF480714165012070BD00BFC46B002C14
:100AA00050D0446C002C4DD0C46C002C4AD090F82F
:100AB0003440012C4DD0012480F8344090F835406A
:100AC000012C43D1022480F8354000244465D0F83D
:100AD00000C0049CDCF8006046F20C4E46F4802610
:100AE000C4F2020ECCF80060CCF810300B46CCF803
:100AF0000440402D04BF13460A460EF14C018C45BC
:100B0000CCF80830CCF80C2026D946F28841C4F243
:100B100002018C4564D046F27041C4F202018C455A
:100B200072D12021CEF800101021CEF8001008213B
:100B3000CEF800100421CEF800100121CEF80010EC
:100B4000F0E100BF40214165012070BD002180F827
:100B50003410022070BD00BF46F20801C4F2020149
:100B600001F1B002944519D946F21043C4F20203D0
:100B700046F228429C45C4F2020200F08980944566
:100B800000F0828046F24046C4F20206B4450CBF33
:100B90004FF400144FF000647BE000BF01F15002FD
:100BA00046F2100E46F270039445C4F2020EC4F2EF
:100BB000020353D99C4500F0C98046F28804C4F270
:100BC0000204A44500F0C68046F2A004C4F2020468
:100BD000A4450CBF4FF400144FF000644C60C2E019
:100BE0004FF40061CEF800104FF48061CEF8001091
:100BF0004FF40071CEF800104FF48071CEF8001061
:100C00004021CEF800108DE10EF194014FF000620A
:100C10008C4508BF4FF40012CEF800204FF08062E0
:100C200008BF4FF48012CEF800204FF000728C45C0
:100C300008BF4FF40022CEF800204FF0807208BFAA
:100C40004FF48022CEF800204FF480028C4508BF7C
:100C50004FF48032CEF8002064E100BFF44500F08C
:100C60007D8046F22804C4F20204A44500F0788096
:100C700046F24004C4F20204A4450CBF4FF4001431
:100C80004FF000646EE000BF4FF4006401E000BF6D
:100C900020249C45C1F8004410D094450AD046F267
:100CA0004046C4F20206B4450CBF4FF480144FF026
:100CB000806404E04FF4806401E000BF10249C4590
:100CC000C1F8004410D094450AD046F24046C4F220
:100CD0000206B4450CBF4FF400244FF0007404E04A
:100CE0004FF4007401E000BF08249C45C1F80044A3
:100CF00010D094450AD046F24046C4F20206B445EC
:100D00000CBF4FF480244FF0807404E04FF48074E3
:100D100001E000BF04249C45C1F8004412D0944572
:100D20000CD046F24042C4F2020294450CBF4FF48C
:100D300080324FF48002C1F80024F3E04022C1F871
:100D40000024EFE00122C1F80024EBE020244C60F5
:100D500009E000BF4FF400644C6004E0202401E08F
:100D60004FF400640C60944514D99C4526D046F29B
:100D70008804C4F20204A44524D046F2A004C4F2BC
:100D80000204A4450CBF4FF480144FF080644C6003
:100D900021E000BFF44519D046F22804C4F2020451
:100DA000A44515D046F24004C4F20204A4450CBF89
:100DB0004FF480144FF080640CE000BF10244C60AE
:100DC00009E000BF4FF480644C6004E0102401E0AF
:100DD0004FF480640C60944514D99C4526D046F2AB
:100DE0008804C4F20204A44524D046F2A004C4F24C
:100DF0000204A4450CBF4FF400244FF000744C6073
:100E000021E000BFF44519D046F22804C4F20204E0
:100E1000A44515D046F24004C4F20204A4450CBF18
:100E20004FF400244FF000740CE000BF08244C6025
:100E300009E000BF4FF400744C6004E0082401E0B6
:100E40004FF400740C60944514D99C4526D046F2AA
:100E50008804C4F20204A44524D046F2A004C4F2DB
:100E60000204A4450CBF4FF480244FF080744C6002
:100E700021E000BFF44519D046F22804C4F2020470
:100E8000A44515D046F24004C4F20204A4450CBFA8
:100E90004FF480244FF080740CE000BF04244C60B9
:100EA00009E000BF4FF480744C6004E0042401E0CA
:100EB0004FF480740C60944514D99C4526D046F2BA
:100EC0008802C4F20202944524D046F2A002C4F281
:100ED000020294450CBF4FF480324FF480024A6006
:100EE00020E000BFF44519D046F22802C4F2020205
:100EF000944515D046F24002C4F2020294450CBF5C
:100F00004FF480324FF480020BE000BF01224A60B0
:100F100008E000BF40224A6004E000BF012200E078
:100F200040220A60DCF8001041F01601CCF80010F5
:100F3000DCF8141041F08001CCF81410016C09B9F0
:100F4000806C28B1DCF8000040F00800CCF800000C
:100F5000DCF8000040F00100CCF80000002070BD7B
:100F600070B5866D044600F031FB94F83510022907
:100F700028D105462068216C026822F01602026022
:100F8000426922F08002426109B9A16C19B101687D
:100F900021F008010160016821F00101016000BF3A
:100FA00020680068C00715D000F010FB401B062821
:100FB000F6D320206065032084F83500002184F8F2
:100FC000341070BD802060650120002184F8341049
:100FD00070BD00BFE06D3F2101FA00F0B06001205C
:100FE00084F835000020002184F8341070BD000022
:100FF00090F83510022909D1052180F835100068D4
:10100000016821F0010101600020704780214165E5
:1010100001207047F0B581B004460020009040F2F6
:101020000800C2F200000268D4E9166048F2B51365
:1010300037680821C1F64E3381403942A2FB0325AF
:101040000CD0226813685B0708D5136823F00403EB
:101050001360B160616D41F0010161650121814062
:10106000394208D022685269120604D5B160616D18
:1010700041F00201616504218140394208D02268B3
:101080001268920704D5B160616D41F00401616599
:1010900010218140394217D020680268120713D509
:1010A000B16002680168520308D4C90508D4016818
:1010B00021F008010160216C21B905E008033FD44B
:1010C000216C09B120468847E16D202000FA01F229
:1010D0003A4241D020680368DB063DD5B26094F8FF
:1010E00035300268052B1BD122F0160202604269DE
:1010F00022F080024261226C0AB9A26C1AB1026825
:1011000022F0080202603F208840B060012084F88D
:101110003500216D0020002984F8340052D157E0B9
:101120000168520310D4C90512D4016821F01001DE
:101130000160012084F83500002084F8340007E0C5
:10114000A16C0029BED1BFE7080301D4616C00E0A7
:10115000E16B09B120468847606DC8B3606DC00778
:101160002ED0052084F835002068A90A026822F0F4
:1011700001020260009A01328A4200921AD8026883
:10118000D20717D0009A01328A42009212D8026820
:10119000D2070FD0009A01328A4200920AD8026820
:1011A000D20707D0009A01328A42009202D8026820
:1011B000D207DFD1012084F83500002084F8340004
:1011C000E16C29B1204601B0BDE8F040084700BFFE
:1011D00001B0F0BD2DE9F041044600F0F7F9ECB1A3
:1011E0000546022084F835000020216884F8340088
:1011F000086820F00100086021680868C00711D065
:1012000000F0E4F9401B0528F6D90325202303202C
:10121000636584F83550BDE8F08100BF0120BDE86A
:10122000F08100BF086848F23F02CFF21002D4E913
:10123000013500EA020C04F10C0898E8C10143EA08
:101240000C032B431843D4E9072E30433843104393
:10125000626A40EA0E00042A40EA08031CD1206BAF
:10126000D4E90A2E40EA0E00184308604869BEF12E
:10127000000F20F0030040EA020040F0040C11D0FF
:10128000B8F5005F36D0B8F1000F45D1022A46D03C
:10129000012A3BD032B942E00B60486920F00700D8
:1012A00040EA020C01F0F8004AF6AB221038CAF608
:1012B000AA22A0FB02231A0945F27473C1F814C0D4
:1012C000C0F600039A5C40F2FF335F284FF03F0006
:1012D00021EA030100FA02F088BF0431C4E91612C2
:1012E0008860002301250020636584F83550BDE83F
:1012F000F08100BF032AD5D8012540230120DFE873
:1013000002F0030E030500BF82E700BFAEF1C0701C
:10131000B0FA80F0400904E0032A04D3C2D1CEF32E
:1013200000600028BED0012540230120636584F8B9
:101330003550BDE8F081000090F834C0BCF1010FD9
:1013400004BF0220704770B54FF0010C80F834C024
:10135000D0F858E090F835C0BCF1010F38D14FF00B
:10136000020C80F835C04FF0000CC0F854C0D0F823
:1013700000C08468056CC06DDCF80060402C26F469
:101380008026CCF80060CCF804300B4604BF13462E
:101390000A463F2101FA00F0CCF80830CCF80C20C6
:1013A000CEF80800DCF8000040F01600CCF8000091
:1013B0002DB1DCF8000040F00800CCF80000DCF8AB
:1013C000000040F00100CCF80000002070BD00BF1C
:1013D000002180F83410022070BD0000B0B5044632
:1013E00000F0F4F8054640F20000C2F20000007878
:1013F000611C18BF044400BF00F0E8F8401BA04285
:10140000FAD3B0BD7047000043F61441C4F20101A5
:101410000A68024214BF08607047FFF7F3BF00007C
:101420002DE9F04F82B000F13E4707F1FF778605C6
:1014300046EA972741F60006C4F20206072243F661
:10144000004EB04208BF0622C4F2010E062F38BF7C
:101450003A46002600274FF00008009209E000BF3E
:1014600008F101080237B8F1100F06F1040600F088
:10147000A3800D68012202FA08F415EA0409EFD0EE
:10148000D1F804B003220BF0030CACF10105BA4013
:10149000012D6FEA020A0FD88268CD6802EA0A02BB
:1014A000BD402A4382604268A243CBF3001404FA91
:1014B00008F42243426005E0BCF1030F02D14FF073
:1014C000030C1EE0C2688C6802EA0A02BC40224398
:1014D000BCF1020FC26014D16FF0030202EA58029D
:1014E0000244D2F820C006F01C040F230D69A3406B
:1014F0002CEA0303A5402B431362D1F804B00BF090
:10150000030C02680CFA07F302EA0A021A431BF4FE
:10151000403F0260A4D0002243F644030192C4F28B
:1015200002031A684FF6084C42F480421A601A68A7
:10153000CFF6FF7C02F480420192019A28F0030268
:10154000724452F80C3006F00C050F24AC40A34353
:10155000009C04FA05F52B4342F80C30DEF8082015
:101560004B6842EA090543F60C4CDC0258BF22EAFC
:101570000905CEF80850C4F2010CDCF800209C02EA
:1015800042EA090558BF22EA0905CCF80050DEF806
:1015900004209C0342EA090558BF22EA0905CEF857
:1015A0000450DEF80020DB0342EA090558BF22EAB6
:1015B0000905CEF8005053E702B0BDE8F08F0000F7
:1015C000002A08BF09048161704700004FF2301003
:1015D000C2F2010000687047002804BF0120704774
:1015E000F0B581B0044690F83D0028B9002084F899
:1015F0003C00204600F0C0FD242084F83D00206817
:10160000016821F001010160016841F400410160BD
:10161000016821F40041016001F078FA636848F242
:10162000A16CC0F2010C40F60011C0F23D0163450F
:101630003CBF48F28041C0F21E01884202D2012024
:1016400001B0F0BD4DF68361C4F21B31A0FB011265
:101650002168970CD1F804E04FF496762EF03F0500
:1016600045EA92454D60774348F638160D6AC0F258
:101670004106A7FB067625F03F07634538BF960C69
:10168000721C3A430A62CA6948F2A0664CF6FF77B8
:10169000C0F20106B34222EA07020BD801385B0010
:1016A000B0FBF3F001306FF31F30042898BF042023
:1016B0001BE000BFA768013857B119277B43B0FB77
:1016C000F3F001306FF31F3070B100F5804007E098
:1016D00003EB4303B0FBF3F001306FF31F3018B19D
:1016E00000F5004001E000BF01201043C861086818
:1016F000D4E9072320F0C00010431843086088682D
:1017000048F2FF3204F10C0790438CCF184310438A
:10171000A6698860C86820F0FF0038433043C8607D
:10172000086840F00100086000202021206484F84F
:101730003D10206384F83E0001B0F0BD2DE9F0417A
:1017400082B01F46164688460446FFF73FFF94F8CE
:101750003D1020291ED1054620688169890715D5CD
:10176000FFF734FF401B1928F6D900202021206301
:1017700084F83D1084F83E00216C41F02001216482
:1017800084F83C00022002B0BDE8F08194F83C10DF
:10179000012903D1022002B0BDE8F081012184F8C3
:1017A0003C100168C90703D1016841F001010160E3
:1017B000016821F400610160222184F83D101021AC
:1017C00084F83E100021216466626785618D218561
:1017D0000021CFF6FF71E162E16A026811F5803FF6
:1017E00042F48062026018BF012919D1016841F4F6
:1017F000807101604169089EC90724D1711C18D00D
:10180000002E00F0CB8000BFFFF7E0FE401BB0428F
:1018100000F2C68020684169C907F5D013E000BF17
:101820000829E3D0216B1129E0D0E3E74169C9071A
:1018300009D14169C90706D14169C90704BF416996
:101840005FEAC171F2D02169B1F5804F08D148F04B
:101850000101C9B201614169890740F1CC8003E10E
:10186000062101EAD81707F1F00101614169090772
:1018700038D44169721C4FEA415113D0002900F15C
:10188000E980002E00F01082FFF7A0FE401BB0425E
:1018900000F20C8220684169090723D44169490597
:1018A000F2D5D7E0002900F1D5804169090719D4A4
:1018B0004169490500F1CE804169090712D44169A7
:1018C000490500F1C780416909070BD44169490501
:1018D00000F1C0804169090704D441694905E4D594
:1018E000B8E000BF5FFA88F101614169890739D426
:1018F0004169721C4FEA415114D0002900F1AA80BD
:10190000002E00F0D181FFF761FE401BB04200F2D3
:10191000CD8120684169890724D441694905F2D500
:1019200098E000BF002900F195804169890719D42A
:101930004169490500F18E804169890712D44169E6
:10194000490500F18780416989070BD44169490540
:1019500000F180804169890704D441694905E4D5D3
:1019600078E000BF002101914169019181690191F5
:101970000199016841F4807101604169C90734D15E
:10198000711C28D056B1FFF721FE401BB04207D88A
:1019900020684169C907F6D027E000BFFFF716FEAF
:1019A00000202021206384F83D1084F83E00216C43
:1019B00041F020012164216884F83C000868C005DA
:1019C00044BF4FF400702064012002B0BDE8F081F4
:1019D0004169C90709D14169C90706D14169C907E8
:1019E00004BF41695FEAC171F2D047F0F1010161C2
:1019F0004169890738D44169721C29D0490529D425
:101A0000002E00F05181FFF7E1FD401BB04200F2D3
:101A10004D8120684169890726D441694905F2D57D
:101A200018E000BF416989071ED44169490511D4F6
:101A30004169890718D4416949050BD4416989076F
:101A400012D44169490505D4416989070CD441691B
:101A50004905E7D5016841F4007101606FF48061C8
:101A60004161042023E100BF218D99B1022927D0D3
:101A700001292DD1026822F48062026000220192C5
:101A80004269019282690192019A026842F40072ED
:101A9000026028E000210191416901918169019171
:101AA0000199016841F400710160202084F83D0033
:101AB000002084F83E0084F83C0002B0BDE8F081CC
:101AC000026822F480620260026842F4006202E06E
:101AD000026842F48062026000220192426901922F
:101AE00080690190019888B2032817D802283FD056
:101AF000012851D1002E00F099802068014651F84C
:101B0000142F520600F196800868C00600F1F2809A
:101B1000FFF75CFD401BB042EFD9E0E086B100BFAB
:101B20002068014651F8142F52060ED40868C006EA
:101B300000F1E080FFF74AFD401BB042F0D9CEE053
:101B400020684169490640F1C3800069616A0870F4
:101B5000606A218D01300139606221852268638DC0
:101B6000013B638553695B0770D51169017064E0BF
:101B700020684169490745D4711C6BD0002E00F0E4
:101B8000CD80FFF723FD401BB04200F2C9802068E2
:101B900041694907F5D535E02068416949070ED408
:101BA000711C65D0002E00F0B980FFF70FFD401BBF
:101BB000B04200F2B580206841694907F5D5016857
:101BC00021F4806101600069616A0870606A218D9A
:101BD00001300139606221852068618D013961859C
:101BE000416949070ED4711C50D0002E00F0968038
:101BF000FFF7ECFC401BB04200F292802068416984
:101C00004907F5D5016841F4007101600069616A16
:101C10000870606A2268411C6162218D013921854A
:101C2000618D013961851169417006E02068416963
:101C300049064DD50069616A0870606A218D0130DE
:101C4000013960622185608D0138608508047FF468
:101C50004AAF2AE741694907D4D4416949075CBFC3
:101C600041695FEA4171CDD441694907F2D5C9E7BD
:101C700041694907A3D4416949075CBF41695FEAEB
:101C800041719CD441694907F2D598E741694907F8
:101C9000B8D4416949075CBF41695FEA4171B1D479
:101CA00041694907F2D5ADE7FFF790FC20200021FC
:101CB0002022216384F83D2084F83E10226C1043DA
:101CC000206484F83C10012002B0BDE8F08100BF20
:101CD00050F8141FC90601460CD4FFF777FC00200A
:101CE0002021206384F83D1084F83E00206C40F0F1
:101CF00020000AE06FF0100008600020202120631F
:101D000084F83D1084F83E00206C2064002084F8A4
:101D10003C00012002B0BDE8F08100BFFFF756FC97
:101D200000202021206384F83D1084F83E00216CBF
:101D300041F02001216484F83C00012002B0BDE89C
:101D4000F08100002DE9F04381B01F461646884619
:101D50000446FFF73BFC94F83D10202920D10546AE
:101D600020688169890717D5FFF730FC401B1928C7
:101D7000F6D900202021206384F83D1084F83E002D
:101D8000216C022641F02001216484F83C00304699
:101D900001B0BDE8F08300BF94F83C10012905D1E3
:101DA0000226304601B0BDE8F08300BF012184F86F
:101DB0003C100168C90703D1016841F001010160CD
:101DC000016821F400610160212184F83D10102197
:101DD00084F83E100021216466626785618D21854B
:101DE0000021CFF6FF71E162E16A11F5803F18BF73
:101DF000012919D1016841F4807101604169DDF860
:101E00002090C90723D119F1010116D0B9F1000FB3
:101E100048D000BFFFF7DAFB401B484544D8206894
:101E20004169C907F6D012E00829E3D0216B1229D5
:101E3000E0D0E3E74169C90709D14169C90706D183
:101E40004169C90704BF41695FEAC171F2D02169E4
:101E5000B1F5804F02D1FE215DE000BF062101EA0D
:101E6000D811F03101614169090753D4416919F171
:101E700001024FEA415131D0002900F18380B9F1CC
:101E8000000F00F03981FFF7A1FB401B484500F22D
:101E900035812068416909073CD441694905F2D57B
:101EA00070E000BFFFF792FB00202021206384F840
:101EB0003D1084F83E00216C012641F02001216490
:101EC000216884F83C000868C00544BF4FF40070E6
:101ED0002064304601B0BDE8F08300BF002951D432
:101EE0004169090716D4416949054BD4416909077D
:101EF00010D44169490545D4416909070AD44169AB
:101F000049053FD44169090704D441694905E7D52A
:101F100038E000BFFF2101EA08010161416989073A
:101F20003AD4416919F101022AD049052AD4B9F1FC
:101F3000000F00F0E180FFF749FB401B484500F22D
:101F4000DD8020684169890726D441694905F2D5B9
:101F500018E000BF416989071ED44169490511D4C1
:101F60004169890718D4416949050BD4416989073A
:101F700012D44169490505D4416989070CD44169E6
:101F80004905E7D5016841F4007101606FF4806193
:101F900041610420B3E000BF002600964169009132
:101FA000816900910099218D002900F0958009F147
:101FB0000108014651F8142F120635D4B8F1000F6C
:101FC00016D0B9F1000F00F0AB8000BF08684005E3
:101FD00000F1AE80FFF7FAFA401B484500F2A580F9
:101FE0002068014651F8142F1206EFD51CE000BFFF
:101FF0000A68520500F19C800A68120614D40A6827
:10200000520500F195800A6812060DD40A6852053F
:1020100000F18E800A68120606D40A68520500F1A3
:1020200087800A681206E3D5636A194611F8012B06
:1020300002616162618D01396185278D0146A7F1D9
:10204000010CA4F828C051F8142F52070DD55FEAEF
:102050000C420AD05A78A7F1020C02619A1C626203
:10206000628D013A6285A4F828C00A6852072FD40D
:10207000B8F1000F14D0B9F1000F51D00868400535
:1020800056D4FFF7A3FA401B48454ED820680146B6
:1020900051F8142F5207F1D5B4F828C018E000BF4A
:1020A0000A68520544D40A68520711D40A685205D6
:1020B0003ED40A6852070BD40A68520538D40A681D
:1020C000520705D40A68520532D40A685207E7D588
:1020D0005FEA0C417FF46DAF016841F4007101606B
:1020E000202084F83D0084F83E6084F83C6030464F
:1020F00001B0BDE8F08300BFFFF768FA202000219F
:102100002022216384F83D2084F83E10226C0126B1
:102110001043206484F83C10304601B0BDE8F083E1
:102120000868400504D4FFF751FA202004E000BFFE
:102130006FF480600860042000212022216384F86D
:102140003D2084F83E10226C1043206484F83C103B
:10215000206C04280AD120680126016841F400712E
:102160000160304601B0BDE8F08300BF0126304673
:1021700001B0BDE8F0830000016845F60000C4F23C
:102180000000814218BF7047B0B586B0002443F606
:1021900030050194C4F202052968122241F02001A1
:1021A0002960296800F5DE3001F0200101910199D4
:1021B0000321019104910421059101A9CDE9022493
:1021C000FFF72EF90094286940F4800028612869FF
:1021D00000F480000090009806B0BDE8B040704761
:1021E00040F200004FF23011C2F20000C2F20101D1
:1021F00000780A68104408607047000080B543F614
:102200000040C4F20200016841F4007101600168FD
:1022100041F480610160016841F480710160032034
:1022200000F086F8002000F005F800F027F8002004
:1022300080BD000070B540F20006C2F2000640F218
:1022400008013278C2F200014FF47A730968B3FBD7
:10225000F2F20446B1FBF2F1084600F0C1FE0F2C89
:102260004FF0010508D838B94FF0FF302146002261
:10227000002500F031F87460284670BD82B000205F
:1022800043F640010190C4F202014A6842F48042E0
:102290004A604A6802F480420192019A00900868FC
:1022A00040F080500860086800F08050009000986E
:1022B00002B07047002848BF704700F01F0101229C
:1022C00002FA01F11C2202EAD0004EF20012CEF214
:1022D000000281507047000010B54EF60C5CCEF243
:1022E000000CDCF80030C3F3022E8EF00704042C3F
:1022F00028BF0424BEF103034FF0FF3E0EFA04F49E
:1023000038BF0023A14399400EFA03F39A431143C7
:1023100000F00F0200F160430901043A03F5644341
:102320006244002848BF02F10C03197010BD000080
:102330004EF60C51CEF200010A684FF6FF031A4028
:1023400060F30A2242F0806040F0FD700860704740
:1023500001220168C0F80025002280F8F424886971
:1023600040F000608861486D40F0805040F003020A
:1023700000204A6570470000002804BF0120704714
:102380002DE9F04F8BB00446056890F8BD0428B9DC
:10239000002084F8BC04204600F094F8032084F860
:1023A000BD04E86BC0055CBF00202061206802F01E
:1023B000DFFD206804F11C0A0A90D4E90C5004F1F6
:1023C000040E9AE8C0079EE80E58CDE9085003A80D
:1023D00080E8C0030A988DE80058CDF81CA002F0F0
:1023E00083FA002853D120680021002502F0C8FD9F
:1023F000616869B301200023002200BF03EBC3031F
:1024000004EB830787F83C20D3B20132A7F84430AD
:10241000D3B2994287F83D0087F84050C7E912557A
:102420007D65EBD800200023002200BF03EBC3032F
:1024300004EB830787F87C220132D3B2994287F8F4
:102440007D0287F88002C7E9A200C7F89402EDD8A0
:10245000A06822680A90D4E90C5004F1140E04F12B
:10246000240AD4E903379EE840589AE80007CDE9EA
:10247000085002A880E8005810460A9ACDE9007674
:10248000CDE90589CDF81CA002F02EFB30B1022069
:1024900084F8BD0401200BB0BDE8F08F002084F863
:1024A0003800012084F8BD04606A012802D120466A
:1024B000FFF74EFF206802F007FB00200BB0BDE8DD
:1024C000F08F0000F0B59DB0044601A804305821FB
:1024D000FDF776FF2068B0F1A04F01D01DB0F0BD30
:1024E0004FF48070019001A800F03EF8002818BF5A
:1024F000FEF754F8002743F630061897C4F2020698
:102500003068002440F0010030603068C4F20204FA
:1025100000F00100189018984FF4E850189002202D
:10252000CDE9190703201B900A2018AD1C90204606
:102530002946FEF775FF4FF40070CDE918072046D5
:1025400029461A97FEF76CFF706840F080007060B3
:102550000097706940F480407061706900F48040B9
:10256000009000981DB0F0BD2DE9F04381B0044605
:10257000006843F68C06C107C4F2020604D14FF08E
:10258000000981070CD415E03168A26B21F0C0610D
:1025900011433160B2FA82F14FEA5119810709D52E
:1025A0003168E26B21F0C05111433160002A08BF4D
:1025B0004FF00109410705D44FF00008010712D47C
:1025C00020E000BF3168226B21F4401111433160DB
:1025D000B2FA82F14FEA5118B2F5801F08BF4FF0EE
:1025E000010901070ED53168626B21F440011143E6
:1025F000B2F5800F316008BF4FF00109002A08BF13
:102600004FF0010881065AD50020009056F84C0C76
:1026100047F2000740F0805046F84C0C56F84C0C3E
:10262000C4F2000700F0805000900098386840F431
:1026300080703860FEF7CAFF054600BF3868C005E5
:1026400006D4FEF7C3FF401B0228F7D990E100BF74
:1026500056F81C0C10F4407017D0216C01F4407136
:10266000884212D056F81C0C40F64061C4F2472153
:10267000012220F440700A6000220A6046F81C0C17
:1026800056F81C0CC00740F07B812068216C56F87E
:10269000842C4FF6FF4701F4407322F4F812C0F681
:1026A000FF770F40B3F5407F08BF3A4346F8842CCC
:1026B00056F81C2C6FF31F31114346F81C1CC10641
:1026C00010D4010619D441061FD4C10525D48105B3
:1026D00030D4410536D4B9F1000F3FD1B0F5006FC9
:1026E00063D13BE094F8580040F64061C4F24721C2
:1026F000C1F8A00320680106E5D5B168E26C21F4B9
:1027000040011143B1604106DFD5B168A26C21F0F0
:1027100080611143B160C105D9D5B168626D21F006
:1027200000611143B160B2F1006F08BF4FF00108C2
:102730008105CED5B168626C21F080511143B16042
:102740004105C8D5B268216D22F000520A43B0F5A8
:10275000006FB26018BFB1F1005F23D140F2680989
:10276000C4F247290020C9F80000FEF72FFF0546F4
:1027700056F88C0C000105D5FEF728FF401B0228F7
:10278000F6D9F5E02068C10702D0A16B00296FD00F
:10279000810702D5E16B00296AD0410700F17D80F5
:1027A0007FE000BFB9F1000FD8D1B8F1000F4FF0B2
:1027B000000000F0DE806827C4F24727B860FEF70B
:1027C00005FF054656F88C0C800005D5FEF7FEFE89
:1027D000401B0228F6D9CBE02068410701D5216BC8
:1027E00019B101071AD5616BC1B956F8041CD4E9B7
:1027F000062301F44031656A114341EA831141EA3D
:102800000561D4F82CC046F8041C31686FF0FF0253
:1028100021F4F85102EB0C2211433160C00516D5AA
:10282000606DB0F1006F12D156F8040C226AD4E941
:10283000061300F07060D2034FF6FF75AA430843F9
:10284000A2F5803240EA8310104346F8040C0120C0
:10285000B860FEF7BBFE044656F88C0C800000F111
:102860008B80FEF7B3FE001B0328F5D380E000BF8A
:1028700056F8081C56F8082CD4E9013501F440310B
:1028800002F0706219436769114341EA851141EA18
:10289000077146F8081C410703D5216BB1F5801F6D
:1028A00005D001071FD5616BB1F5800F1BD156F81C
:1028B000081C56F8082CD4E9013701F4403102F025
:1028C000E04219432569114341EA871141EA056154
:1028D000D4F828C046F8081C3168ACF1010221F098
:1028E0001F011143316041051FD5216DB1F1005F1A
:1028F0001BD1271D56F808CC56F8082CA8CFFF038B
:102900004FF6FF7127EA01014FF0C06702F0E04285
:1029100007EA4C2707F100771A433A43A1F58031C3
:1029200042EA8512114346F8081C000510D5271D00
:102930008FCF40EA8110D1034FF6FF729143A1F58A
:10294000803140EA0360084340EA077046F8080C0B
:102950000120C9F80000FEF739FE054656F88C0C38
:1029600000013FF522AFFEF731FE401B0228F5D9EA
:10297000032001B0BDE8F083002001B0BDE8F08382
:10298000FEF724FE054641F2883700BF56F81C0CBE
:1029900080073FF57AAEFEF719FE401BB8424FF0B4
:1029A0000300F3D9E5E70000002804BF01207047C9
:1029B0002DE9F04143F60808C4F202080446D8F8AD
:1029C000F8030D4600F00F00884207D288F8F8534C
:1029D000D8F8F80300F00F00A84277D120688107EB
:1029E00017D5410705D5D8F8001041F4E051C8F8D3
:1029F0000010010705D5D8F8001041F46041C8F86F
:102A00000010D8F80010A26821F0F0011143C8F8B6
:102A10000010C00740D1D8F8F80300F00F00A8421A
:102A200007D988F8F853D8F8F80300F00F00A84247
:102A30004CD12068410707D5D8F80010E26821F48E
:102A4000E0511143C8F80010000708D5D8F800007D
:102A5000216920F4604040EAC100C8F8000000F09D
:102A60007DF8D8F8001045F26862C1F30311C0F692
:102A70000002515C40F2080220FA01F140F2040029
:102A8000C2F200000068C2F200021160FFF7D2FB40
:102A90000020BDE8F08100BF6068811E022907D2D6
:102AA00058F8081C89015CBF0120BDE8F08111E0E5
:102AB000012807D158F8081C89035CBF0120BDE834
:102AC000F08107E058F8081C890703D40120BDE80D
:102AD000F08100BFD8F8001021F003010843C8F8C6
:102AE0000000FEF773FD064641F28837D8F8000073
:102AF000616800F00C00B0EB810F8CD0FEF766FD32
:102B0000801BB842F2D90320BDE8F08140F20800F2
:102B100043F60801C2F20000C4F20201006809682D
:102B200045F27862C1F38221C0F60002515CC840D0
:102B30007047000040F2080043F60801C2F20000AE
:102B4000C4F202010068096845F27862C1F34231BB
:102B5000C0F60002515CC8407047000010B543F653
:102B60000404C4F202046068C0F3810142F2004030
:102B7000C0F2F400DFE801F04202081841F2002040
:102B8000C0F27A0010BD00BF216801F03F02216849
:102B900023684902C3F3881116D4A1FB0001002366
:102BA000FDF796FB17E000BF216801F03F022168A6
:102BB00023684902C3F3881114D4A1FB0001002348
:102BC000FDF786FB15E000BF41F20020C0F27A005D
:102BD0004843B0FBF2F021680222C1F3014102EB4D
:102BE000410109E041F20020C0F27A004843B0FB05
:102BF000F2F02168C1F30271B0FBF1F010BD0000EA
:102C0000002804BF012070472DE9F04182B004463E
:102C1000007843F60006C007C4F202060CD0B06884
:102C200000F00C00042840F089803068800303D550
:102C30006068002800F050812078800723D5B068B4
:102C400010F00C0F11D0B06800F00C00082802D171
:102C50007068400209D5B06800F00C000C2840F004
:102C60009F807068400200F19B803068800703D528
:102C7000E068012840F030813068216920F0F800D8
:102C800040EAC10030602078000713D42078400764
:102C90002AD4A569002D00F01A81B06800F00C005C
:102CA000082840F0AB80012D40F0E880012002B000
:102CB000BDE8F0816069002840F20000C4F24720BE
:102CC00000F088800121C0F8801EFEF77FFC0546D9
:102CD000706F8007DAD4FEF779FC401B0228F7D921
:102CE000032002B0BDE8F081306C5FEAC0080AD46E
:102CF00000200190306C40F080503064306C00F067
:102D000080500190019847F20007C4F2000738682C
:102D1000C00537D4386840F480703860FEF756FC40
:102D2000054600BF3868C0052CD4FEF74FFC401B99
:102D30000228F7D9032002B0BDE8F081B06800F0A6
:102D40000C00082803D1706840023FF56EAFB068F0
:102D500000F00C000C2803D1706840023FF565AF0D
:102D60006068B0F5803F07D0B0F5A02F40F0CC8070
:102D7000306840F480203060306840F4803030604B
:102D8000CCE000BFA068012805D0052858D1306FDD
:102D900040F004003067306F40F0010030675AE0C7
:102DA000E068002800F09C800020C4F24720012148
:102DB0000160FEF70BFC0546306880073FF55CAF0D
:102DC000FEF704FC401B02284FF00300F4D902B0C8
:102DD000BDE8F0810021C0F8801EFEF7F7FB054634
:102DE000706F80077FF552AFFEF7F0FB401B0228A3
:102DF000F6D9032002B0BDE8F08100BF0027C4F27D
:102E0000472700203866FEF7E1FB022D05460BD16F
:102E10003068800140F19480FEF7D8FB401B022807
:102E20004FF00300F4D9D2E7306880014FD5FEF7A8
:102E3000CDFB401B02284FF00300F5D9C7E700BFC8
:102E4000316F002821F001013167316F21F0040159
:102E5000316700F09980FEF7B9FB054641F28837EB
:102E6000306F800700F1A280FEF7B0FB401BB84234
:102E7000F6D9032002B0BDE8F08100BF7068E169B7
:102E800000F480028A4227D1216A00F03F028A4280
:102E900022D147F6C071626A0140B1EB821F1BD19B
:102EA000A16A4FF6FF73C903994300F44032A1F5BC
:102EB00080318A4210D1E16A00F07062B2EB016F9A
:102EC0000AD1216B00F0E040B0EB017F04D100207B
:102ED00002B0BDE8F08100BF012002B0BDE8F08182
:102EE0000020C4F2472000210160FEF76FFB054679
:102EF000306880077FF5C7AEFEF768FB401B0228ED
:102F00004FF00300F4D962E73168002821F48031E2
:102F10003160316821F48021316051D0FEF756FBD9
:102F2000054600BF306880033FF586AEFEF74EFBD6
:102F3000401B6428F6D9032002B0BDE8F08100BF31
:102F400004F11C052FCD246B084340EA8210D903FD
:102F50004FF6FF729143A1F5803140EA05600843C6
:102F600040EA0470706001203866FEF72FFB0446CB
:102F700030688001ABD4FEF729FB001B02284FF01C
:102F80000300F5D923E700BFFEF720FB054641F219
:102F9000883700BF306F800708D5FEF717FB401B4E
:102FA000B8424FF00300F5D911E700BFB8F1000FA8
:102FB0003FF56FAE306C20F08050306469E600BFA2
:102FC000FEF704FB054600BF306880037FF534AE92
:102FD000FEF7FCFA401B64284FF00300F4D9F6E634
:102FE000411E0020B0EB116F1CBF012070474EF254
:102FF0001002CEF2000251604EF62351CEF20001D3
:10300000F0230B700721906011607047704700003B
:103010007047000090F83C20012A04BF022070474E
:10302000B0B501F108053CCDD1E900CE23F47C53C5
:1030300022F470521A432EF4F0431A432CF4E04366
:103040001A4324F4C0431A432A43C96922F4804234
:10305000036811435964002180F83C10BDE8B0407A
:103060000846704790F83C20012A4FF0020254D0E5
:1030700010B580F83D200268D2F804E0D2F808C00C
:103080000C682EF07003234341F2FF74C4F2000475
:10309000A24253600EDC40F2FF73C4F200039A4276
:1030A00016DCB2F1804F2BD040F20043C4F2000393
:1030B00024E000BF40F2FF33C4F201039A4213DC64
:1030C00041F60003C4F200039A4219D0002313E032
:1030D00040F60003C4F200039A4211D040F60043C8
:1030E000C4F200030AE000BF44F20003C4F201038B
:1030F0009A4205D040F20043C4F201039A4204D13F
:1031000049682CF08003194391600121002280F866
:103110003D1080F83C20BDE810401046704700008C
:10312000002804BF0120704710B5044690F83D0008
:1031300028B9002084F83C00204600F01FF8022047
:1031400084F83D002068211D01F012F9012084F867
:10315000460084F83E0084F83F0084F8400084F87C
:10316000410084F8420084F8430084F8440084F865
:10317000450084F83D00002010BD0000006841F2C9
:103180000001C4F20001884218BF704780B582B0C8
:103190000020019043F64000C4F2020001680022C2
:1031A00041F0100101600068002100F01000019062
:1031B00001983620FFF790F8362002B0BDE8804035
:1031C000FFF778B87047000010B501680446086939
:1031D000800744BFC8685FEA807039D40869400737
:1031E00044BFC8685FEA40703ED40869000744BF26
:1031F000C8685FEA007045D40869C00644BFC86863
:103200005FEAC0604AD40869C0071CBFC8685FEAAB
:10321000C07051D10869000644BFC8685FEA006009
:1032200052D40869400644BFC8685FEA406053D47E
:103230000869800646BFC8685FEA806010BD6FF00D
:10324000200220460A61BDE81040FFF7E1BE00BF42
:103250006FF002000861012020778869800743D061
:103260002046FFF7AFFF45E06FF004000861022041
:103270002077886910F4407F40D02046FFF7A2FFF6
:1032800042E000BF6FF00800086104202077C869A1
:1032900080073DD02046FFF795FF3FE06FF010001C
:1032A000086108202077C86910F4407F3AD0204692
:1032B000FFF788FF3CE000BF6FF001000861204687
:1032C00000F052FA2168A5E76FF0800008612046FF
:1032D000FFF79CFE2168A4E76FF0400008612046DC
:1032E00000F044FA2168A3E7204600F04FF820469A
:1032F00000F0A8F92168002020776FE7204600F051
:1033000045F8204600F09EF92168002020776CE700
:10331000204600F03BF8204600F094F92168002098
:10332000207769E7204600F031F8204600F08AF95E
:1033300021680020207766E701680020C4F20100C0
:10334000814218BF704780B586B0002143F6300235
:103350000191C4F20202136800F5883043F01003B3
:103360001360126802F010020192019A4FF4007289
:1033700001920222CDE9022104910121059101A9C6
:10338000FEF74EF806B0BDE8804070477047000079
:1033900090F83C30012B04BF022070474FEAB20284
:1033A000032A00F201812DE9F043DFE802F0033F38
:1033B0007FBF00BF036840F200461A6A43F480658D
:1033C00022F001021A621C6A1A46D3F804C052F8AD
:1033D00018EF8F6824F00204C4F20106B54244EAF3
:1033E000070405D1CF6824F00C0427F004073C4300
:1033F0000F68B54206D1D1E905582CF440762E432A
:1034000046EA080C2EF073063743C3F804C09F61E8
:103410004F6809695F631C629F6947F008079F61F5
:103420009F6927F004079F61B2E000BF036840F284
:1034300000481A6A43F4806522F010021A621C6A7E
:103440001A46D3F804C052F818EF8F6824F020040D
:10345000C4F20108454544EA071407D1CF686FF06C
:10346000400624F0C00406EA07163443D1F8009061
:10347000454506D1D1E905562CF440672E4347EA6D
:10348000860C2EF4E64747EA0927C3F804C09F617B
:103490004F6809699F631C629F6947F400679F61D9
:1034A0009F6927F480679F6171E000BF036840F265
:1034B00000481A6A43F4806522F480721A621C6A1A
:1034C0001A46D3F804C052F81CEF8F6824F4007435
:1034D000C4F20108454544EA072408D1CF6840F208
:1034E000FF463F0224F4406427EA06063443D1F83D
:1034F0000090454506D1D1E905562CF440572E439E
:1035000047EA061C2EF0730747EA0907C3F804C010
:10351000DF614F680969DF631C62DF6947F00807F4
:10352000DF61DF6927F00407DF6131E0036840F203
:1035300000451A6A43F4806722F480521A621A46E0
:10354000D3F820C05C6852F81CEFD1F800808E6878
:10355000C4F20105AF4204D14D6924F4804444EA29
:1035600085142CF4005747EA06372EF4E64646EA5F
:1035700008265C60DE614E6809691E641F62DF69AF
:1035800047F40067DF61DF6927F48067DF610902C4
:103590001368194311600021BDE8F043002280F850
:1035A0003C200846704700BF0121002280F83C20E3
:1035B00008467047002804BF0120704710B5044634
:1035C00090F83D0028B9002084F83C00204600F027
:1035D0001FF8022084F83D002068211D00F0C8FE7D
:1035E000012084F8460084F83E0084F83F0084F807
:1035F000400084F8410084F8420084F8430084F8D5
:10360000440084F8450084F83D00002010BD00000F
:1036100000680021C4F20101884218BF704781B0E0
:103620000020009043F64400C4F20200016841F01B
:1036300001010160006800F001000090009801B0F5
:10364000704700007047000041B1082910D00429DC
:1036500014BF00F1410200F13F020BE090F83E2060
:10366000012A1CBF01207047022280F83E2013E08F
:1036700000F140021278012A1CBF0120704702228B
:10368000082907D0042914BF80F8412080F83F2082
:1036900002E000BF80F84020006801F01F01012215
:1036A000036A02FA01F123EA01020262026A11438B
:1036B00041F2FF72C4F200029042016210DC40F25B
:1036C000FF71C4F2000188421CDCB0F1804F3FD092
:1036D00040F20041C4F20001884239D03DE000BF11
:1036E00040F2FF31C4F20101884219DC41F60001C9
:1036F000C4F2000188422BD00021C4F201018842AB
:103700001AD02AE040F60001C4F2000188421FD01E
:1037100040F60041C4F20001884219D01DE000BF0C
:1037200044F20001C4F20101884211D040F200418C
:10373000C4F20101884210D1416C40F2004340F4D0
:103740008062C4F2010341F400419A42416404D111
:10375000816801F00701062903D0016841F00101E9
:1037600001600020704700007047000070470000B3
:103770007047000070470000B0B582B00446006892
:103780000168C368426901F02F05202D03F0200570
:1037900006D12DB1204602B0BDE8B04000F0A6BF72
:1037A0005FEA017C1EBF02F0010E03F4907212EB7F
:1037B0000E0243D1226BCD0618D5012A16D113F083
:1037C000100213D00021019101680191416801911B
:1037D0000199406940063BD4A08DE18DE28D002A1D
:1037E00018BF884240F0EA8102B0B0BD0A0640F13D
:1037F000DF8013F0800200F0DB8094F83D10212977
:10380000F2D1A168B1F5805F03D12169002900F0F0
:103810005982216A4A1C226209784160E18C01398F
:103820000A04E184E0D1C16821F08001C160C1686F
:1038300041F04001C16002B0B0BD00BFCA0718BF6F
:1038400013F4807240F0C8804A0700F1CB80D0E0CA
:10385000A16B0868426893B2002BC5D0A08D83424B
:10386000C2D2E285C969B1F5807F00F09E802068F0
:1038700050E8030F216820F4807041E80302DAB1B8
:10388000206850E8030F216820F4807041E80302AB
:1038900092B1206850E8030F216820F4807041E85D
:1038A00003024AB1206850E8030F216820F48070B9
:1038B00041E80302002ADAD1206850E8050F2168A8
:1038C00020F0010041E80502BAB3206850E8050F76
:1038D000216820F0010041E8050272B3206850E839
:1038E000050F216820F0010041E805022AB3206895
:1038F00050E8050F216820F0010041E80502002A88
:10390000DAD11AE0206850E8050F216820F0400065
:1039100041E80502DAB1206850E8050F216820F07F
:10392000400041E8050292B1206850E8050F216887
:1039300020F0400041E805024AB1206850E8050F38
:10394000216820F0400041E80502002ADAD1202059
:1039500084F83E0000202063206850E8030F2168AF
:1039600020F0100041E80302DAB1206850E8030FAC
:10397000216820F0100041E8030292B1206850E86D
:10398000030F216820F0100041E803024AB12068CB
:1039900050E8030F216820F0100041E80302002ADC
:1039A000DAD1A06BFDF7DCFAA08DE18D401A7CE145
:1039B00049067FF519AF13F040013FF415AFC16818
:1039C00021F04001C1602021204684F83D1002B062
:1039D000BDE8B04000F072BA226C42F001022264ED
:1039E0004A0706D5BEF1000F03D0226C42F0020256
:1039F00022648A0706D5BEF1000F03D0226C42F084
:103A000004022264BCF1000F06D55EEA050203D071
:103A1000226C42F008022264226C002A3FF4E4AED9
:103A2000890604D51DB1204600F060FE206840697B
:103A3000216C00F0400001F00801401800F0B68051
:103A4000206850E8030F216820F4907041E80302D9
:103A5000BAB3206850E8030F216820F4907041E861
:103A6000030272B3206850E8030F216820F49070BD
:103A700041E803022AB3206850E8030F216820F4CC
:103A8000907041E80302002ADAD11AE0206850E879
:103A9000050F216820F0010041E80502DAB1206835
:103AA00050E8050F216820F0010041E8050292B1BD
:103AB000206850E8050F216820F0010041E8050268
:103AC0004AB1206850E8050F216820F0010041E864
:103AD0000502002ADAD1206B012824D1206850E8A1
:103AE000030F216820F0100041E80302DAB12068DA
:103AF00050E8030F216820F0100041E8030292B162
:103B0000206850E8030F216820F0100041E803020C
:103B10004AB1206850E8030F216820F0100041E806
:103B20000302002ADAD1202084F83E00002020631E
:103B300020684069400640F1BF80206850E8050FCA
:103B4000216820F0400041E80502DAB1206850E821
:103B5000050F216820F0400041E8050292B120687D
:103B600050E8050F216820F0400041E805024AB105
:103B7000206850E8050F216820F0400041E8050268
:103B8000002ADAD1A06B002800F0968044F2AD4103
:103B9000C0F600010165FDF72BFA00283FF424AEC2
:103BA000A06B016D02B0BDE8B04008472046FFF7AA
:103BB000E1FD0020206402B0B0BD00BF401A00BF8C
:103BC000216851E8031F226821F4907142E8031331
:103BD000BBB3216851E8031F226821F4907142E8C9
:103BE000031373B3216851E8031F226821F4907115
:103BF00042E803132BB3216851E8031F226821F424
:103C0000907142E80313002BDAD11AE0216851E8E1
:103C1000051F226821F0010142E80513DBB121688C
:103C200051E8051F226821F0010142E8051393B114
:103C3000216851E8051F226821F0010142E80513BF
:103C40004BB1216851E8051F226821F0010142E8CB
:103C50000513002BDAD1202184F83E1000212163C6
:103C6000216851E8031F226821F0100142E8031384
:103C7000DBB1216851E8031F226821F0100142E8FE
:103C8000031393B1216851E8031F226821F010014A
:103C900042E803134BB1216851E8031F226821F069
:103CA000100142E80313002BDAD181B2204602B0A2
:103CB000BDE8B040FFF75CBD204602B0BDE8B040B3
:103CC000FFF758BD216A31F8022B6FF35F22426083
:103CD0002162A3E5002804BF0120704710B5044607
:103CE00090F83D0028B9002084F83C00204600F000
:103CF00021F8242084F83D002068C16821F4005197
:103D0000C160204600F072FD2068016921F49041F5
:103D10000161416921F02A014161C16841F400510A
:103D2000C16000202021206484F83D1084F83E10FA
:103D300010BD0000F0B585B00446016844F60000EF
:103D4000C4F20000814201D005B0F0BD002643F668
:103D500030010096C4F202010A69032742F480226E
:103D60000A610A6900F5E23002F480220092009AAA
:103D700000960A6842F008020A60096801F008012A
:103D8000009100994FF4407100910221CDE9011694
:103D90000721049169460397FDF742FB40F228157D
:103DA00046F25800C2F20005C4F202004FF0006172
:103DB000402285E8470004204FF48063C5E908608D
:103DC0002846C5E90436C5E90666C5E90A762E63C4
:103DD000FDF700FA002818BFFCF7E0FB27200021C0
:103DE00000226563AC63FEF777FA2720FEF762FADC
:103DF00005B0F0BD7047000070B5044690F83D0076
:103E000020280BD100294FF0010055D0002A13467D
:103E100008BF70BD94F83C00012801D1022070BD9C
:103E2000012084F83C00002621202162A384E38441
:103E3000266484F83D00606B44F2356C44F2E5651D
:103E40002268C0F6000CC0F60005C0E90FC544F2B8
:103E5000B945C0F600050432C0E91356FDF76CFA07
:103E600020686FF04001016084F83C60206850E8F1
:103E7000050F216840F0800041E80502DAB12068B2
:103E800050E8050F216840F0800041E8050292B13A
:103E9000206850E8050F216840F0800041E80502E5
:103EA0004AB1206850E8050F216840F0800041E8E1
:103EB0000502002ADAD1002070BD00007047000022
:103EC00070470000FEE7000080B540F27800002156
:103ED000C2F20000C5F20501002220234FF0800C41
:103EE00080E80E10C0E904228261C0E90822C0E91E
:103EF0000A220263FCF7AEFB002808BF80BDEFF387
:103F0000108072B6FEE7000080B582B0002043F654
:103F100030010190C4F202010A6842F480020A6092
:103F20000A6802F480020192019A00900868002257
:103F300040F4001008600868002100F400100090B0
:103F400000980E20FEF7C8F90E20FEF7B3F93920CD
:103F500000210022FEF7C0F9392002B0BDE8804000
:103F6000FEF7A8B92DE9F04786B0002743F63000E8
:103F7000CDE904770097C4F20200016841F6000A17
:103F800041F0100101600168C4F2020A01F0100161
:103F90000091009900970168AAF5A05541F004012D
:103FA00001600168002201F004010091009900976E
:103FB000016844F2810841F020010160016801F0CC
:103FC0002001009100990097016841F08001016093
:103FD000016801F08001009100990097016841F0AB
:103FE00001010160016801F0010100910099009751
:103FF000016841F002010160016801F002010091D5
:1040000000990097016841F008010160016801F022
:104010000801009100990097016841F0400101609A
:10402000006844F2810100F04000009000982846AA
:10403000FDF7C6FA5046402100224FF04009FDF737
:10404000BFFA4FF4005001904FF4881001AECDE953
:104050000207AAF580503146FDF7E2F9012428460F
:104060003146CDF80480CDE902470497FDF7D8F931
:1040700050463146CDE90194CDE90377FDF7D0F9FB
:104080008020CDE90107504631460397FDF7C8F976
:10409000282000210022FEF71FF92820FEF70AF948
:1040A00006B0BDE8F087000080B540F2881045F604
:1040B0000001C2F20000C4F2000148F2A062002335
:1040C0004FF4804CC0F2010280E80E00C0E9033CCE
:1040D000C0E90533C0E90733FDF77EFA002808BFC1
:1040E00080BDEFF3108072B6FEE7000010B592B00D
:1040F00040F2E86000220021C2F20000C4F2010296
:1041000014238024CDE910110791C0E90021C0E9F2
:104110000213C0E904118461FFF74CFA20B1EFF3F8
:10412000108072B6FEE700BF40F2E860C2F2000005
:1041300010A9FEF797FF28B1EFF3108072B600BF09
:10414000FEE700BF602009900A200A9040F2E86074
:104150000024C2F2000009A90022CDE90B44CDE9F8
:104160000D440F94FFF714F920B1EFF3108072B6ED
:10417000FEE700BF4FF40050069040F2E860C2F244
:10418000000001A90594CDE90344CDE90144089458
:10419000FEF740FF20B1EFF3108072B6FEE700BFDC
:1041A00040F2E860C2F20000FFF7C6F812B010BD9E
:1041B00080B582B040F2307041F200020021C2F2BC
:1041C0000000C4F200024FF6FF73CDE90011C0E910
:1041D0000021C0E902138161FEF7A2FF20B1EFF3D5
:1041E000108072B6FEE700BF40F23070C2F20000ED
:1041F0006946FEF737FF28B1EFF3108072B600BFB3
:10420000FEE700BF02B080BD80B540F2787044F692
:104210000001C2F20000C4F2000100234FF00C0CB8
:104220004FF4E13280E80E00C0E90333C0E905C372
:10423000C361FFF74FFD002808BF80BDEFF310807A
:1042400072B600BFFEE7000080B540F2DC10C2F29B
:1042500000004FF0A0410622C0E900120221002216
:104260000123C0E90312C0E90613C0E90822C0E92E
:104270000B32FEF781F8002808BF80BDEFF31080F5
:1042800072B600BFFEE70000FEE70000FEE7000098
:104290007047000070470000FDF7A2BFB0B594B0B2
:1042A000002443F64000CDE90B44CDE909440694CF
:1042B000CDE90444CDE902440194C4F2020001684E
:1042C000022541F080510160006800F080500190AB
:1042D000019847F200000194C4F20000016841F423
:1042E00040410160006800F44040019001980120C5
:1042F00007904FF4A02008904FF480000E90042007
:104300000F90A820CDE910050720CDE9120507A8D8
:104310000D95FEF775FC28B1EFF3108072B600BF63
:10432000FEE700BF0F20CDE902054FF4A050059035
:104330004FF48050069002A805210494FEF734FB48
:1043400020B1EFF3108072B6FEE700BF14B0B0BD2D
:104350004EF68850CEF20000016841F47001016011
:104360007047000040F23070C2F20000FEF72CBF30
:1043700010B540F6FF3E0368C4F2000E40F2004C58
:104380007045C4F2010C27DCB0F1804F31D040F20F
:104390000042C4F2000290422BD040F60002C4F268
:1043A0000002904225D041F6FF72C4F20002904212
:1043B00029DC70453CDCB0F1804F5FD040F2004218
:1043C000C4F20002904259D040F60002C4F200024A
:1043D000904253D056E000BF40F60042C4F20002C3
:1043E000904206D0604504D00022C4F201029042FF
:1043F000D9D14A6823F07003134341F6FF72C4F227
:1044000000029042D5DD43F6FF72C4F201029042F1
:1044100022DC42F20002C4F2000290422ED00022BE
:10442000C4F20102904229D0604527D02AE000BFA3
:1044300040F60042C4F2000290421FD041F6000252
:10444000C4F20002904219D041F60042C4F20002C8
:10445000904213D016E000BF44F20002C4F2010201
:1044600090420BD044F60002C4F20102904205D003
:1044700044F20042C4F20102904203D1CA6823F41C
:104480004073134323F080024B69D1F800E08C683D
:104490001A430260C46240F48062C0F828E06245BA
:1044A00004BF096901630121416110BD806B0021D6
:1044B000C185C184FFF75EB9806B01684A6990F8D5
:1044C0003D30212B2DD112F080022AD00021C18451
:1044D000016851E8031F026821F0C00142E803139C
:1044E000DBB1016851E8031F026821F0C00142E816
:1044F000031393B1016851E8031F026821F0C00162
:1045000042E803134BB1016851E8031F026821F030
:10451000C00142E80313002BDAD1202180F83D10BE
:104520000168496990F83E20222A40F07D8011F010
:10453000400179D00021C185016851E8031F02685C
:1045400021F4907142E80313BBB3016851E8031FE3
:10455000026821F4907142E8031373B3016851E8D3
:10456000031F026821F4907142E803132BB3016822
:1045700051E8031F026821F4907142E80313002BF5
:10458000DAD11AE0016851E8051F026821F0010143
:1045900042E80513DBB1016851E8051F026821F00C
:1045A000010142E8051393B1016851E8051F026853
:1045B00021F0010142E805134BB1016851E8051FE4
:1045C000026821F0010142E80513002BDAD1016BEA
:1045D000012924D1016851E8031F026821F010016C
:1045E00042E80313DBB1016851E8031F026821F0C0
:1045F000100142E8031393B1016851E8031F0268F8
:1046000021F0100142E803134BB1016851E8031F88
:10461000026821F0100142E80313002BDAD12021B7
:1046200080F83E1000210163016C41F0100101642B
:10463000FFF7A0B80168806B0968C90548BFFFF79C
:104640003DBC0021C18400BF016851E8051F02681C
:1046500021F0800142E8051383B3016851E8051F8A
:10466000026821F0800142E805133BB3016851E87C
:10467000051F026821F0800142E80513F3B10168CB
:1046800051E8051F026821F0800142E80513002B64
:10469000DAD113E0016851E8031F026841F04001DC
:1046A00042E80313002B08BF7047016851E8031F5D
:1046B000026841F0400142E8031393B1016851E8F8
:1046C000031F026841F0400142E803134BB1016847
:1046D00051E8031F026841F0400142E80313002B38
:1046E000D8D17047806BFFF7EBBB000081B090F82A
:1046F0003E10222921D183680246B3F5805F09D19B
:1047000052F8281F52F8183C002B63D003685B68EE
:104710000AE000BF52F8281F13B90369002BF5D037
:1047200003685B6803F07F030B701168013111604F
:10473000C18D01390A04C18502D001B0704700BFA4
:104740000168CA6822F02002CA60CA6822F4807236
:10475000CA604A6922F001024A61202180F83E10B5
:10476000016B01293ED10021016300BF016851E8BE
:10477000031F026821F0100142E80313DBB1016856
:1047800051E8031F026821F0100142E8031393B1BE
:10479000016851E8031F026821F0100142E8031389
:1047A0004BB1016851E8031F026821F0100142E893
:1047B0000313002BDAD101680A68D20606D500225D
:1047C00000920A680092496800910099818D01B0B9
:1047D000FEF7CEBF026852686FF35F2221F8022B0A
:1047E0008162A5E701B0FFF705BB000010B50446E4
:1047F0000068D4E902C22369016921F440511143E0
:104800000161626943EA0C01E3691143C26819431B
:1048100049F20C639A431143C1604169A26921F4D2
:10482000407141F20043114340F48062C4F201033D
:104830009A42416102D1FEF77DF901E0FEF766F987
:10484000E16963681922B1F5004FA0FB020123D191
:104850005A00DB0FFBF73CFD48F21F51C5F2EB118C
:10486000A0FB01235A094FF69C73C0F6FF7303F1B6
:10487000805302FB0300322303EBC000A0FB0101C5
:104880004FF4F87000EA111000EB0210C1F342116E
:1048900008442168886010BD9A009B0FFBF718FD43
:1048A00048F21F51C5F2EB11A0FB01235A094FF644
:1048B0009C73C0F6FF7302FB0300322303EB00106E
:1048C000A0FB0101F02000EA511000EB0210C1F33F
:1048D000431108442168886010BD000040F27870E0
:1048E000C2F20000FEF748BF82B00499DDF808C0AC
:1048F000012940F64051C0F203016FD1826B4FF69F
:10490000BF7322F480328263C268CFF6BD731A404F
:10491000C260C2680B9B22F44012012BC26003D11B
:10492000C26842F48012C26000220092009A0132F2
:104930000092009A8A4200F2A9800269002A1ED4DD
:10494000009A01320092009A8A4200F29F80026926
:10495000002A14D4009A01320092009A8A4200F28E
:1049600095800269002A0AD4009A01320092009AC6
:104970008A4200F28B800269B2F1FF3FD6DC00224E
:104980000092026942F001020261009A0132009233
:10499000009A8A427AD80269D2071AD0009A013264
:1049A0000092009A8A4271D80269D20711D0009A07
:1049B00001320092009A8A4268D80269D20708D070
:1049C000009A01320092009A8A425FD80269D207A7
:1049D000DBD10021BCF1010F72D169E0C268089BF4
:1049E00042F04002C26000220192019A013201921B
:1049F000019A8A4250D80269002A1BD4019A0132D6
:104A00000192019A8A4247D80269002A12D4019A77
:104A100001320192019A8A423ED80269002A09D4E1
:104A2000019A01320192019A8A4235D80269B2F1A3
:104A3000FF3FDADC00220192026942F001020261CA
:104A4000019A01320192019A8A4225D80269D2075D
:104A50001AD0019A01320192019A8A421CD8026945
:104A6000D20711D0019A01320192019A8A4213D8D9
:104A70000269D20708D0019A01320192019A8A4252
:104A80000AD80269D207DBD1002106E00321BCF17C
:104A9000010F15D10CE000BF0321826B002B14BF66
:104AA00022F4803242F480328263BCF1010F07D1DC
:104AB000826842F006028260826842F020028260D0
:104AC000084602B0704700000146D0F8000E20F002
:104AD0000300C1F8000ED1F8040840F002020020E3
:104AE000C1F80428704700002DE9F04F83B0DDF8CD
:104AF0004C800E9F0022B8F1000FC0F80421C0F8CE
:104B00000821C0F80C21C0F81021C0F81421C0F809
:104B10001821C0F81C21C0F82021C0F82421C0F8B9
:104B20002821C0F82C21C0F83021C0F83421C0F869
:104B30003821C0F83C2107D0826B00F5006B42F4AD
:104B40000012826314E000BFD0F8042800F5006B67
:104B500042F00202C0F80428826B22F40012826341
:104B6000026842F040020260066846F08006066075
:104B70000026C0F8006ED0F80068012FC0F8006869
:104B800006D1DBF80070002B18BF47F0010703E0E7
:104B9000DBF8003043F00307DDF83CE0DDF830904F
:104BA00040F64055C0F203050023C0F80078019399
:104BB000019B01330193019BAB4249D80369002B50
:104BC0001BD4019B01330193019BAB4240D8036985
:104BD000002B12D4019B01330193019BAB4237D8C8
:104BE0000369002B09D4019B01330193019BAB4264
:104BF0002ED80369B3F1FF3FDADC002301934FF4B1
:104C000084630361019B01330193019BAB421FD875
:104C100003699B061AD5019B01330193019BAB42AB
:104C200016D803699B0611D5019B01330193019BA3
:104C3000AB420DD803699B0608D5019B0133019354
:104C4000019BAB4204D803699B06DBD4002400E03F
:104C5000012400230293029B01330293029BAB4287
:104C600048D80369002B1BD4029B01330293029B9B
:104C7000AB423FD80369002B12D4029B013302934D
:104C8000029BAB4236D80369002B09D4029B013347
:104C90000293029BAB422DD80369B3F1FF3FDADCEC
:104CA0000023029310230361029B01330293029BB2
:104CB000AB421FD80369DB061DD5029B013302936B
:104CC000029BAB4216D80369DB0614D5029B013365
:104CD0000293029BAB420DD80369DB060BD5029B06
:104CE00001330293029BAB4204D80369DB06DBD499
:104CF00001E000BF01244FF0000A0029CBF810A00A
:104D0000CBF814A0CBF81CA000F00481D0F8003937
:104D10004FF0006707EA13134FF67F324E1EC0F8BC
:104D20000039C0F810A9C0F808297BD08B1E032BCE
:104D300006F003097246009404D22024B9F1000F52
:104D40003FD165E026F0030400234FF0904E4FF66C
:104D50007F384FF0000C00BF00EB0C05D5F8207930
:104D6000043C0EEAE777C5F82079C5F83039C5F874
:104D70002889D5F840790CF1800C0EEAE777C5F860
:104D80004079C5F85039C5F84889D5F860790EEAF8
:104D9000E777C5F86079C5F87039C5F86889D5F83E
:104DA00080790EEAE777C5F88079C5F89039C5F8BB
:104DB0008889D1D1DDF84C800CF12004B9F1000FC5
:104DC00026D000F510673D594FF0904C0CEAE57580
:104DD0003B193D5100244FF67F3EB9F1010F1C6194
:104DE000C3F808E014D01D6AB9F1020F0CEAE577A8
:104DF0001F621C63C3F828E00AD01F6C4FF0904577
:104E000005EAE7771F6400271F654FF67F379F6429
:104E1000DDF83090009C002996464FF67F324FF027
:104E2000006777D0D0F8003B002E07EA1313C0F8D4
:104E3000003B4FF00003C0F8103BC0F8082B69D0CE
:104E40000239032906F0030C04D22023BCF1000F21
:104E50003BD15FE0009426F003044FF090474FF6FB
:104E60007F3600214518D5F8202B043C07EAE27272
:104E7000C5F8202BC5F8303BC5F8286BD5F8402B7A
:104E800001F1800107EAE272C5F8402BC5F8503BFA
:104E9000C5F8486BD5F8602B07EAE272C5F8602BBD
:104EA000C5F8703BC5F8686BD5F8802B07EAE2724D
:104EB000C5F8802BC5F8903BC5F8886BD2D1009C13
:104EC00001F12003BCF1000F24D000F53062D65868
:104ED0004FF0904707EAE676D118D65000264FF6F5
:104EE0007F33BCF1010F0E618B6013D00A6ABCF1F5
:104EF000020F07EAE2720A620E638B620AD00A6C42
:104F00004FF0904303EAE2720A6400220A654FF60A
:104F10007F328A64DBF81010B9F1000F21F4807140
:104F2000CBF810106FF08041C0F818A0416103D198
:104F3000816941F010018161816943F60002C8F284
:104F40003C021143BEF1000F816103D0816941F041
:104F500008018161B8F1010F05D1816941F08041FB
:104F600041F004018161204603B0BDE8F08F0000EC
:104F70000146806820F0010200208A60704700002E
:104F8000B0B50446C06820F0C040E06091B101298E
:104F900026D1E068002540F00050E0600120FCF7D9
:104FA0001DFA6069C00705F1010014D1312D0546D5
:104FB000F4D310E0E068002540F08040E06000BFDE
:104FC0000120FCF70BFA6069C00705F1010002D06F
:104FD000312D0546F4D33238B0FA80F04009B0BD27
:104FE0000120B0BDFEE70000FDF708F9FFF756F914
:104FF000FEF7B8FFFEF788FFFEF766FFFFF704F93C
:10500000FFF722F9FFF750F8FFF770F8FFF7D0F835
:1050100040F2E860C2F2000000210025FEF714FB18
:1050200000F048F86420FCF7D9F946F69C14C2F267
:105030000004204600F02CF840F2700646F2676744
:10504000C2F20006C6F2666702E000BF00F096F802
:10505000204600F081F8307838B900BF4FF49670E0
:10506000FCF7BCF930780028F8D07068357001285A
:105070001FBF50FB07F14A1002EBD17101EB810118
:1050800018BFB0EB0100E1D100F0A4F9E0E70000A7
:1050900080B5024640F27800C2F20000002143F2DF
:1050A000F003FBF709FC002808BF80BDBDE8804085
:1050B000FBF774BA2DE9F04182B00A208DF80500A3
:1050C00040F288106424C2F200000DF10502422172
:1050D00001230094FCF736FE002818BFFBF75EFAA8
:1050E00040F28810C2F2000001AA4221012300947C
:1050F000FCF724FB002818BFFBF750FA9DF80400CA
:10510000762825D145F2806840F288140026C0F642
:1051100000086427C2F200040DF1060538F81600F5
:105120004221ADF8060020462A4602230097FCF7EC
:1051300009FE002818BFFBF731FA0120FCF74EF9F1
:1051400001367A2EEAD1002002B0BDE8F08100BF1E
:10515000012002B0BDE8F08180B5024640F278003F
:10516000C2F20000022143F2F003FBF7A5FB002886
:1051700008BF80BDBDE88040FBF710BA2DE9F043C1
:1051800081B042F65C5840F60D20C2F20108C4F22C
:105190002140C8F8000040F20C00C2F20000D0F834
:1051A00000E040F6215C44F64541C0F20A0CC4F22E
:1051B0005411BEF1010FC8F80410C8F808C0C0F2BD
:1051C000EF8046F69C1940F2BC764FEA4E0101236F
:1051D0004FF0FF37C2F20009C2F20006F41919F8C5
:1051E0000350607805F0F00200F0F0000233101A6E
:1051F00009EB07028B4207F1010765705070EDDB88
:10520000BEF1010FC0F2CC80A1F1020E01250C20ED
:105210000BE000BF0126471C44EA0602023508F8ED
:1052200000208D42384680F2BC8019F80520754573
:1052300002F0F004EEDAAF1C19F8072002F0F002D9
:10524000A242E7D1774580F283802B1D19F8032015
:1052500002F0F002A2427BD173457DDAAF1D19F84E
:10526000072002F0F002A24276D1774578DA05F104
:10527000080319F8032002F0F002A24270D173452E
:1052800070DA05F10A0719F8072002F0F002A242CD
:1052900068D177456ADA05F10C0319F8032002F0AA
:1052A000F002A24262D1734562DA05F10E0719F8E5
:1052B000072002F0F002A2425AD177455CDA05F1EC
:1052C000100319F8032002F0F002A24254D17345F2
:1052D00054DA05F1120719F8072002F0F002A24291
:1052E0004CD177454EDA05F1140319F8032002F08A
:1052F000F002A24246D1734546DA05F1160719F8C5
:10530000072002F0F002A2423ED1774540DA05F1D3
:10531000180319F8032002F0F002A24238D17345B5
:1053200038DA05F11A0719F8072002F0F002A24254
:1053300030D1774532DA05F11C0219F802300E2619
:1053400003F0F003A34208BF174608BF0F2600E092
:1053500002263D465FE700BF03261D465BE700BF10
:105360000426F6E705261D4655E700BF0626F0E7AA
:1053700007261D464FE700BF0826EAE709261D4617
:1053800049E700BF0A26E4E70B261D4643E700BFB6
:105390000C26DEE70D261D463DE700BF0E26D8E7AA
:1053A0000C2708EB070044F22151C0F804C040F27A
:1053B0007800C4F24E41C2F2000048F80710FBF733
:1053C00063FA07F10801404601B0BDE8F04300F080
:1053D00035B900002DE9F04140F20C0142F65C586D
:1053E00042F25410C2F20001C2F20108C0F60D20D0
:1053F000D1F800C0C8F8070044F2541040F60D215F
:10540000C5F25240C5F22131BCF1010FC8E90010CC
:10541000C0F2F8804FEA4C0046F69C1E831E012421
:105420000B25C2F2000E09E0012602347D1C42EA7F
:105430000601844208F8071080F2BC801EF80410B0
:105440002F469C4201F0F002EEDAA51C1EF8051072
:1054500001F0F0019142E7D19D4280F28380211D4D
:105460001EF8016006F0F00696427BD199427DDA83
:10547000A51D1EF8056006F0F006964276D19D4205
:1054800078DA04F108011EF8016006F0F006964291
:1054900070D1994270DA04F10A051EF8056006F031
:1054A000F006964268D19D426ADA04F10C011EF8BA
:1054B000016006F0F006964262D1994262DA04F188
:1054C0000E051EF8056006F0F00696425AD19D4280
:1054D0005CDA04F110011EF8016006F0F006964255
:1054E00054D1994254DA04F112051EF8056006F011
:1054F000F00696424CD19D424EDA04F114011EF89A
:10550000016006F0F006964246D1994246DA04F16F
:1055100016051EF8056006F0F00696423ED19D4243
:1055200040DA04F118011EF8016006F0F006964218
:1055300038D1994238DA04F11A051EF8056006F0F0
:10554000F006964230D19D4232DA04F11C011EF879
:1055500001400E2604F0F004944208BF0D4608BF37
:105560000F2600E002262C465FE700BF03260C460C
:105570005BE700BF0426F6E705260C4655E700BFAB
:105580000626F0E707260C464FE700BF0826EAE7A5
:1055900009260C4649E700BF0A26E4E70B260C461D
:1055A00043E700BF0C26DEE70D260C463DE700BFB3
:1055B0000E26D8E7BCF1010F25DB40F2BC71C2F228
:1055C00000014A1C072300BF0EEB030111F8067C03
:1055D0001E1F864202F8017C15DA11F8047C9E1E1B
:1055E000864217700FDA11F8021C834251700ADAF2
:1055F0001EF803109170991C083304328142E3DBDA
:1056000001E000BF0B2544F22151C4F24E4148F89D
:10561000051042F2441108EB0500C0F60D21C0F858
:10562000031040F27800C2F200000735FBF72CF9B6
:1056300040462946BDE8F041AFF30080034640F202
:1056400078708AB2C2F200001946FEF7D5BBF1EEBF
:10565000100A4FF6FF71C0F2C03120EA010040F09D
:105660004070E1EE100A70470000000000000000EA
:1056700001020304060708090000000001020304F8
:10568000128012080C0811401101328017171805FA
:10569000030A19021A7A703A7135721173FAA2016B
:1056A0004F80508051005222535E5480589E7A2081
:1056B0007B107C1E7D357E5A7F6980768180828852
:1056C000838F849685A386AF87C488D789E8A5058C
:1056D000AB072495253326E39F78A068A103A6D8BD
:1056E000A7D8A8F0A990AA941000430A44F0453422
:1056F00046584728483A59885A885B445C675D4950
:105700005E0E6C0A6D556E116F9F6A40014002601B
:1057100013E734113F00750576E14C007701B80AB4
:1057200041183B12A48896009730982099309A84AB
:105730009B299C039D4C9E3F78040E610F4B1602E3
:105740001E00210222912907330B350B371D3871BA
:10575000392A3C784D404E2069006B3A74108D4FC9
:105760008E008F009000910096009A00B10CB20E4E
:10577000B3824B010006101600061016A057000851
:10578000000000201000000028020008B0570008A8
:105790001000002028F70100480200080000000067
:1057A00001000000100000000024F400E06100008F
:04000005080001C529
:00000001FF
