:020000040800F2
:10000000180C002099020008F12B0008C1210008FB
:10001000ED2B0008C5060008B534000800000000FC
:10002000000000000000000000000000F92B0008A4
:10003000C906000800000000F52B0008FD2B000891
:10004000B3020008B3020008B3020008B3020008BC
:10005000B3020008B3020008B3020008B3020008AC
:10006000B3020008B3020008B3020008B30200089C
:10007000B3020008B3020008B3020008B30200088C
:10008000B3020008B3020008B3020008B30200087C
:10009000B3020008B3020008B3020008B30200086C
:1000A000B3020008B3020008B3020008B30200085C
:1000B000B3020008B3020008B3020008B30200084C
:1000C000B3020008B3020008B3020008B30200083C
:1000D000B3020008B3020008B3020008B30200082C
:1000E000CD060008B3020008B3020008B3020008FE
:1000F000B3020008B3020008B3020008B30200080C
:10010000B3020008B3020008B3020008B3020008FB
:10011000B3020008B3020008B3020008B3020008EB
:10012000B3020008B3020008B3020008B3020008DB
:10013000B30200080000000000000000B302000845
:10014000B3020008B3020008B3020008B3020008BB
:10015000B3020008B3020008B3020008B3020008AB
:10016000B3020008B3020008B3020008B30200089B
:10017000B3020008B3020008B30200080000000048
:1001800000000000B30200080000000000000000B2
:10019000B30200080000000000000000B3020008E5
:1001A000000000000000000000000000B302000892
:1001B000B3020008B3020008B3020008B30200084B
:1001C000B302000800F002F800F057F814A696E811
:1001D000000CB244B344DA4501D100F04EF8BAE85D
:1001E0000F000FA696E83000A5EB040504EB060708
:1001F000AAEB0704A7F101074FEA15154FEA3414DB
:10020000A4F10104AC4201D300F037F813F0010F60
:1002100018BFFB1A43F0010300F001F8DBE71847B1
:10022000F03A0000103B0000103A24BF78C878C1B3
:10023000FAD8520724BF30C830C144BF04680C60EC
:1002400070470000704700000023002400250026AE
:10025000103A28BF78C1FBD8520728BF30C148BF29
:100260000B607047642900F0F780002070471FB5CD
:1002700003F024FD1FBD10B510BD00F0E8F91146D4
:10028000FFF7F5FF03F04EF900F006FA03B4FFF7AD
:10029000F2FF03BC00F00EFA094880470948004706
:1002A000FEE7FEE7FEE7FEE7FEE7FEE7FEE7FEE726
:1002B000FEE7FEE704480549054A064B7047000083
:1002C000B52C0008C501000818060020180C0020F5
:1002D000180800201808002053EA020C00F069807A
:1002E0002DE9F04B4FF00006002B1FBFB3FA83F54A
:1002F00003FA05F424FA05F65E4012BF1643B2FA7B
:1003000082F502FA05F4C5F120051EBF22FA05FCAC
:1003100044EA0C04203556EA044C4FEA144418BF52
:10032000641C4FF000084FF00009904271EB030C81
:1003300039D3002919BFB1FA81F701FA07F6B0FAEB
:1003400080F700FA07F6C7F120071EBF20FA07FC66
:1003500046EA0C062037B6FBF4FCA7EB0507103F76
:1003600007F01F0BCBF120062CFA06F60CFA0BFB5C
:1003700044BFB3460026202FA4BF5E464FF0000BBB
:100380005BEA060C08BF4FF0010B19EB0B0948EBB9
:100390000608ABFB027C06FB02CC0BFB03CCC01BAC
:1003A00071EB0C01C1E70B46024641464846BDE8E9
:1003B000F08B13B5084318BF4FF0FF300146AFF381
:1003C0000080BDE81C4070470FB41CB5074B06AA5F
:1003D0007B4469460090059800F021F900206946A9
:1003E00000F030F91CBC5DF814FB00007102000045
:1003F0002DE9F0410E460446002020622046E168C7
:10040000884730B3252805D0D4E901219047206AD8
:10041000401CF2E7E168204600278847050018D015
:10042000A5F14100192802D820354FF40067324663
:10043000294620462760FFF715FF40B1012804D068
:10044000F61D26F007060836D8E7361DD6E72846FB
:10045000DAE7206ABDE8F0812DE9F0410646002484
:1004600010687529314616A510D0AFF3008000281A
:1004700002DA404213A507E031688A0701D512A5C8
:1004800002E0490704D511A5012401E0AFF3008083
:1004900000210A2206F1240709E0B0FBF2FCB0FBC0
:1004A000F2F302FB1C00303078541846491C002837
:1004B000F3D123462A463046BDE8F04100F051B85A
:1004C000000000002D0000002B00000020000000B4
:1004D00010B5431C02E010F8011B71B18107FAD17D
:1004E0004FF0013202C88C1A8C4314EAC211F9D0C1
:1004F000C01A0A0603D0C01E10BDC01A10BD0A04DF
:1005000001D0801E10BD0902FCD0401E10BD4FF06E
:10051000000200B5134694469646203922BFA0E853
:100520000C50A0E80C50B1F12001BFF4F7AF09075F
:1005300028BFA0E80C5048BF0CC05DF804EB890050
:1005400028BF40F8042B08BF704748BF20F8022B93
:1005500011F0804F18BF00F8012B704770477047AB
:1005600070472DE9F0470D4699469246044600F142
:1005700024080168880604D5E06921F01001216093
:1005800000E00120A84201DD471B00E00027A1692F
:100590007A1902EB0900081AA0612078C00602D47B
:1005A0002046AFF30080002608E0D4E901211AF8C4
:1005B00006009047206A401C761C20624E45F4DB02
:1005C0002078C0060AD52046AFF3008006E0D4E9C3
:1005D000012130209047206A401C2062381EA7F17C
:1005E0000107F4DC07E0D4E9012118F80500904781
:1005F000206A401C2062281EA5F10105F3DC20467C
:10060000AFF300802078000602D50220BDE8F08715
:100610000120FBE701694A1C02610878704700B5B8
:100620008FB0CDE901310021059105497944CDE92B
:10063000031011466846FFF7DBFE0FB000BD000057
:10064000E5FFFFFF0A6802F8010B0A607047754674
:1006500000F02CF8AE4605006946534620F007002E
:10066000854618B020B5FFF725FEBDE820404FF0C5
:1006700000064FF000074FF000084FF0000BAC46AB
:10068000ACE8C009ACE8C009ACE8C009ACE8C009F6
:1006900021F007018D46704710B50446AFF3008086
:1006A0002046BDE81040FFF7F1BD0000004870474C
:1006B0001000002001491820ABBEFEE72600020012
:1006C00070470000FEE700007047000043F614404A
:1006D000C4F201000068800458BF704710B540F2B2
:1006E0000044C4F202042046012100F009F920462A
:1006F0000121012200F00CF94FF40050BDE8104038
:1007000000F01CB8EFF3108072B600BFFEE70000E7
:10071000B0B5044600F002F9054640F20000C2F20E
:1007200000000078611C18BF044400BF00F0F6F818
:10073000401BA042FAD3B0BD7047000043F61441FD
:10074000C4F201010A68024214BF08607047FFF753
:10075000F3BF00002DE9F04F82B000F13E4707F1F2
:10076000FF77860546EA972741F60006C4F202069F
:10077000072243F6004EB04208BF0622C4F2010E23
:10078000062F38BF3A46002600274FF00008009297
:1007900009E000BF08F101080237B8F1100F06F1B7
:1007A000040600F0A3800D68012202FA08F415EA9D
:1007B0000409EFD0D1F804B003220BF0030CACF124
:1007C0000105BA40012D6FEA020A0FD88268CD6890
:1007D00002EA0A02BD402A4382604268A243CBF388
:1007E000001404FA08F42243426005E0BCF1030F50
:1007F00002D14FF0030C1EE0C2688C6802EA0A02C4
:10080000BC402243BCF1020FC26014D16FF003025E
:1008100002EA58020244D2F820C006F01C040F235A
:100820000D69A3402CEA0303A5402B431362D1F8C2
:1008300004B00BF0030C02680CFA07F302EA0A0298
:100840001A431BF4403F0260A4D0002243F6440345
:100850000192C4F202031A684FF6084C42F4804237
:100860001A601A68CFF6FF7C02F480420192019A66
:1008700028F00302724452F80C3006F00C050F24E5
:10088000AC40A343009C04FA05F52B4342F80C301E
:10089000DEF808204B6842EA090543F60C4CDC02FE
:1008A00058BF22EA0905CEF80850C4F2010CDCF862
:1008B00000209C0242EA090558BF22EA0905CCF84B
:1008C0000050DEF804209C0342EA090558BF22EAE2
:1008D0000905CEF80450DEF80020DB0342EA0905E2
:1008E00058BF22EA0905CEF8005053E702B0BDE830
:1008F000F08F00000069084018BF01207047000019
:10090000426902EA0103914341EA03418161704770
:10091000002A08BF090481617047000040F214609A
:10092000C2F2000000687047002804BF0120704731
:10093000F0B581B0044690F83D0028B9002084F855
:100940003C00204600F046FB242084F83D0020684F
:10095000016821F001010160016841F4004101607A
:10096000016821F40041016001F000F8636848F279
:10097000A16CC0F2010C40F60011C0F23D016345CC
:100980003CBF48F28041C0F21E01884202D20120E1
:1009900001B0F0BD4DF68361C4F21B31A0FB011222
:1009A0002168970CD1F804E04FF496762EF03F05BD
:1009B00045EA92454D60774348F638160D6AC0F215
:1009C0004106A7FB067625F03F07634538BF960C26
:1009D000721C3A430A62CA6948F2A0664CF6FF7775
:1009E000C0F20106B34222EA07020BD801385B00CD
:1009F000B0FBF3F001306FF31F30042898BF0420E0
:100A00001BE000BFA768013857B119277B43B0FB33
:100A1000F3F001306FF31F3070B100F5804007E054
:100A200003EB4303B0FBF3F001306FF31F3018B159
:100A300000F5004001E000BF01201043C8610868D4
:100A4000D4E9072320F0C0001043184308608868E9
:100A500048F2FF3204F10C0790438CCF1843104347
:100A6000A6698860C86820F0FF0038433043C8603A
:100A7000086840F00100086000202021206484F80C
:100A80003D10206384F83E0001B0F0BD2DE9F04731
:100A900084B0984617460E460446FFF73FFF94F889
:100AA0003D10202923D1054620688169890719D581
:100AB000FFF734FF401B1928F6D9002020212063BE
:100AC00084F83D1084F83E00206C04F13C0940F0AD
:100AD000200020640220002189F8001004B0BDE845
:100AE000F08700BFA14619F83C1F012904D102205C
:100AF00004B0BDE8F08700BF012289F80020036838
:100B0000DDE90D1A0C9ADB0703D1036843F00103FA
:100B10000360036823F400630360222084F83D002F
:100B2000402084F83E000020206462626185608D70
:100B3000314620850020CFF6FF70E06220463A461D
:100B40004346CDE900A501F03DFB18B1012004B0FA
:100B5000BDE8F087208DA8B102282BD0012835D11F
:100B600021680A6822F480620A60002203924A69BE
:100B700003928A690392039A0A6842F400720A6037
:100B80002CE000BF00200390206841690391816937
:100B900003910399016841F400710160202084F8F9
:100BA0003D00002084F83E00002189F8001004B0C8
:100BB000BDE8F08721680A6822F480620A600A684A
:100BC00042F400620A600022039202E000210391D5
:100BD00021684A6903928969039103990AF1010620
:100BE00080B2032818D8022842D0012856D1BAF181
:100BF000000F00F0AB802068014651F8142F520618
:100C000000F1A8800868C00600F1E280FFF786FEC8
:100C1000401B5045EFD9D0E0BAF1000F10D000BF13
:100C20002068014651F8142F52060ED40868C006F9
:100C300000F1CE80FFF772FE401B5045F0D9BCE0BA
:100C400020684169490640F1B1800069616A087015
:100C5000606A2268411C208D616201382085638DA5
:100C6000013B638553695B0740F18080106973E045
:100C700020684169490747D4002E59D0BAF1000FC6
:100C800000F09980FFF74AFE401B504500F2958026
:100C9000206841694907F5D536E000BF2068416901
:100CA00049070FD4002E65D0BAF1000F00F0838001
:100CB000FFF734FE401B504500F27F8020684169F9
:100CC0004907F5D5016821F4806101600069616A16
:100CD0000870606A218D01300139606221852068C9
:100CE000618D01396185416949070DD4002E4FD0CE
:100CF000BAF1000F5FD0FFF711FE401B50455CD8E2
:100D0000206841694907F6D5016841F40071016026
:100D10000069616A0870606A2268411C6162218D05
:100D200001392185618D013961851169417014E0B6
:100D300041694907E8D4416949075CBF41695FEAF5
:100D40004171E1D441694907F2D5DDE72068416985
:100D500049062BD50069616A0870606A218D0130EF
:100D60006062481E2085618D0139618501047FF430
:100D700037AF13E741694907A4D4416949075CBF0C
:100D800041695FEA41719DD441694907F2D599E70C
:100D900041694907B8D4416949075CBF41695FEAC5
:100DA0004171B1D441694907F2D5ADE750F8141F3C
:100DB000C90601460CD4FFF7B1FD002020212063B5
:100DC00084F83D1084F83E00206C40F020000AE0DA
:100DD0006FF01000086000202021206384F83D108F
:100DE00084F83E00206C20640120002189F8001066
:100DF00004B0BDE8F08700002DE9F04383B09946C8
:100E000016460F460446FFF789FD94F83D10202949
:100E10001ED1054620688169890715D5FFF77EFD3B
:100E2000401B1928F6D900202021206384F83D10AA
:100E300084F83E00216C41F02001216484F83C00DC
:100E4000022003B0BDE8F08394F83C10012903D1DF
:100E5000022003B0BDE8F083012284F83C2003683F
:100E6000DDE90B180A9ADB0703D1036843F001039D
:100E70000360036823F400630360212084F83D00CD
:100E8000402084F83E000020206462626185608D0D
:100E9000394620850020CFF6FF70E06220463246BA
:100EA0004B46CDE9008501F01BFB18B1012003B0D2
:100EB000BDE8F083208D002850D0206808F101069D
:100EC000014651F8142F12062CD49EB1B8F1000F30
:100ED0005AD000BF086840055ED4FFF71FFD401BD5
:100EE000404556D82068014651F8142F1206F1D516
:100EF00018E000BF0A6852054ED40A68120611D4E1
:100F00000A68520548D40A6812060BD40A685205CA
:100F100042D40A68120605D40A6852053CD40A680D
:100F20001206E7D5626A114611F8013B0361238D71
:100F30006162591E2185678D013F678547697F077B
:100F40000AD50F0408D051780161911C6162991E85
:100F50002185628D013A62850904B1D1204641465E
:100F60002A4601F0F7FB38BB2068016841F40071A4
:100F70000160202084F83D00002084F83E0084F8C1
:100F80003C0003B0BDE8F0830868400504D4FFF7D7
:100F9000C5FC202004E000BF6FF4806008600420DE
:100FA00000212022216384F83D2084F83E10226C29
:100FB0001043206484F83C10206C04287FF476AF42
:100FC0002068016841F400710160012003B0BDE8B0
:100FD000F0830000016845F20040C4F20000814245
:100FE00018BF7047B0B586B0002443F630050194B1
:100FF000C4F20205296800F5D83041F002012960E9
:10100000296801F00201019101994FF410710191D9
:101010001221CDE90214032104910421059101A9B3
:10102000FFF798FB0094286940F4001028612869B4
:1010300000F400100090009806B0BDE8B040704782
:1010400040F2000040F21461C2F20000C2F200015E
:1010500000780A68104408607047000080B543F6C5
:101060000040C4F20200016841F4007101600168AF
:1010700041F480610160016841F4807101600320E6
:1010800000F086F8002000F005F800F027F80020B6
:1010900080BD000070B540F20006C2F2000640F2CA
:1010A00008013278C2F200014FF47A730968B3FB89
:1010B000F2F20446B1FBF2F1084600F0C1FE0F2C3B
:1010C0004FF0010508D838B94FF0FF302146002213
:1010D000002500F031F87460284670BD82B0002011
:1010E00043F640010190C4F202014A6842F4804292
:1010F0004A604A6802F480420192019A00900868AE
:1011000040F080500860086800F08050009000981F
:1011100002B07047002848BF704700F01F0101224D
:1011200002FA01F11C2202EAD0004EF20012CEF2C5
:10113000000281507047000010B54EF60C5CCEF2F4
:10114000000CDCF80030C3F3022E8EF00704042CF0
:1011500028BF0424BEF103034FF0FF3E0EFA04F44F
:1011600038BF0023A14399400EFA03F39A43114379
:1011700000F00F0200F160430901043A03F56443F3
:101180006244002848BF02F10C03197010BD000032
:101190004EF60C51CEF200010A684FF6FF031A40DA
:1011A00060F30A2242F0806040F0FD7008607047F2
:1011B00001220168C0F80025002280F8F424886923
:1011C00040F000608861486D40F0805040F00302BC
:1011D00000204A6570470000002804BF01207047C6
:1011E0002DE9F04F8BB00446056890F8BD0428B98E
:1011F000002084F8BC04204600F094F8032084F812
:10120000BD04E86BC0055CBF00202061206802F0CF
:1012100017F9206804F11C0A0A90D4E90C5004F173
:10122000040E9AE8C0079EE80E58CDE9085003A8BE
:1012300080E8C0030A988DE80058CDF81CA001F0A2
:10124000BBFD002853D120680021002502F000F9E1
:10125000616869B301200023002200BF03EBC303D0
:1012600004EB830787F83C20D3B20132A7F844305F
:10127000D3B2994287F83D0087F84050C7E912552C
:101280007D65EBD800200023002200BF03EBC303E1
:1012900004EB830787F87C220132D3B2994287F8A6
:1012A0007D0287F88002C7E9A200C7F89402EDD852
:1012B000A06822680A90D4E90C5004F1140E04F1DD
:1012C000240AD4E903379EE840589AE80007CDE99C
:1012D000085002A880E8005810460A9ACDE9007626
:1012E000CDE90589CDF81CA001F066FE30B10220E1
:1012F00084F8BD0401200BB0BDE8F08F002084F815
:101300003800012084F8BD04606A012802D120461B
:10131000FFF74EFF206801F03FFE00200BB0BDE854
:10132000F08F0000F0B59DB0044601A804305821AC
:10133000FFF7EDF82068B0F1A04F01D01DB0F0BD6F
:101340004FF48070019001A800F03EF8002818BF0B
:10135000FFF7D8F9002743F630061897C4F20206C3
:101360003068002440F0010030603068C4F20204AC
:1013700000F00100189018984FF4E85018900220DF
:10138000CDE9190703201B900A2018AD1C902046B8
:101390002946FFF7DFF94FF40070CDE91807204622
:1013A00029461A97FFF7D6F9706840F08000706000
:1013B0000097706940F480407061706900F480406B
:1013C000009000981DB0F0BD2DE9F04381B00446B7
:1013D000006843F68C06C107C4F2020604D14FF040
:1013E000000981070CD415E03168A26B21F0C061BF
:1013F00011433160B2FA82F14FEA5119810709D5E0
:101400003168E26B21F0C05111433160002A08BFFE
:101410004FF00109410705D44FF00008010712D42D
:1014200020E000BF3168226B21F44011114331608C
:10143000B2FA82F14FEA5118B2F5801F08BF4FF09F
:10144000010901070ED53168626B21F44001114397
:10145000B2F5800F316008BF4FF00109002A08BFC4
:101460004FF0010881065AD50020009056F84C0C28
:1014700047F2000740F0805046F84C0C56F84C0CF0
:10148000C4F2000700F0805000900098386840F4E3
:1014900080703860FFF742FA054600BF3868C00523
:1014A00006D4FFF73BFA401B0228F7D990E100BFB2
:1014B00056F81C0C10F4407017D0216C01F44071E8
:1014C000884212D056F81C0C40F64061C4F2472105
:1014D000012220F440700A6000220A6046F81C0CC9
:1014E00056F81C0CC00740F07B812068216C56F830
:1014F000842C4FF6FF4701F4407322F4F812C0F633
:10150000FF770F40B3F5407F08BF3A4346F8842C7D
:1015100056F81C2C6FF31F31114346F81C1CC106F2
:1015200010D4010619D441061FD4C10525D4810564
:1015300030D4410536D4B9F1000F3FD1B0F5006F7A
:1015400063D13BE094F8580040F64061C4F2472173
:10155000C1F8A00320680106E5D5B168E26C21F46A
:1015600040011143B1604106DFD5B168A26C21F0A2
:1015700080611143B160C105D9D5B168626D21F0B8
:1015800000611143B160B2F1006F08BF4FF0010874
:101590008105CED5B168626C21F080511143B160F4
:1015A0004105C8D5B268216D22F000520A43B0F55A
:1015B000006FB26018BFB1F1005F23D140F268093B
:1015C000C4F247290020C9F80000FFF7A7F9054633
:1015D00056F88C0C000105D5FFF7A0F9401B022836
:1015E000F6D9F5E02068C10702D0A16B00296FD0C1
:1015F000810702D5E16B00296AD0410700F17D80A7
:101600007FE000BFB9F1000FD8D1B8F1000F4FF063
:10161000000000F0DE806827C4F24727B860FFF7BB
:101620007DF9054656F88C0C800005D5FFF776F954
:10163000401B0228F6D9CBE02068410701D5216B79
:1016400019B101071AD5616BC1B956F8041CD4E968
:10165000062301F44031656A114341EA831141EAEE
:101660000561D4F82CC046F8041C31686FF0FF0205
:1016700021F4F85102EB0C2211433160C00516D55C
:10168000606DB0F1006F12D156F8040C226AD4E9F3
:10169000061300F07060D2034FF6FF75AA430843AB
:1016A000A2F5803240EA8310104346F8040C012072
:1016B000B860FFF733F9044656F88C0C800000F14F
:1016C0008B80FFF72BF9001B0328F5D380E000BFC8
:1016D00056F8081C56F8082CD4E9013501F44031BD
:1016E00002F0706219436769114341EA851141EACA
:1016F000077146F8081C410703D5216BB1F5801F1F
:1017000005D001071FD5616BB1F5800F1BD156F8CD
:10171000081C56F8082CD4E9013701F4403102F0D6
:10172000E04219432569114341EA871141EA056105
:10173000D4F828C046F8081C3168ACF1010221F049
:101740001F011143316041051FD5216DB1F1005FCB
:101750001BD1271D56F808CC56F8082CA8CFFF033C
:101760004FF6FF7127EA01014FF0C06702F0E04237
:1017700007EA4C2707F100771A433A43A1F5803175
:1017800042EA8512114346F8081C000510D5271DB2
:101790008FCF40EA8110D1034FF6FF729143A1F53C
:1017A000803140EA0360084340EA077046F8080CBD
:1017B0000120C9F80000FFF7B1F8054656F88C0C77
:1017C00000013FF522AFFFF7A9F8401B0228F5D929
:1017D000032001B0BDE8F083002001B0BDE8F08334
:1017E000FFF79CF8054641F2883700BF56F81C0CFD
:1017F00080073FF57AAEFFF791F8401BB8424FF0F3
:101800000300F3D9E5E70000002804BF012070477A
:101810002DE9F04143F60808C4F202080446D8F85E
:10182000F8030D4600F00F00884207D288F8F853FD
:10183000D8F8F80300F00F00A84277D1206881079C
:1018400017D5410705D5D8F8001041F4E051C8F884
:101850000010010705D5D8F8001041F46041C8F820
:101860000010D8F80010A26821F0F0011143C8F868
:101870000010C00740D1D8F8F80300F00F00A842CC
:1018800007D988F8F853D8F8F80300F00F00A842F9
:101890004CD12068410707D5D8F80010E26821F440
:1018A000E0511143C8F80010000708D5D8F800002F
:1018B000216920F4604040EAC100C8F8000000F04F
:1018C0007DF8D8F8001043F6D642C1F30311C0F6F4
:1018D0000002515C40F2080220FA01F140F20400DB
:1018E000C2F200000068C2F200021160FFF7D2FBF2
:1018F0000020BDE8F08100BF6068811E022907D288
:1019000058F8081C89015CBF0120BDE8F08111E096
:10191000012807D158F8081C89035CBF0120BDE8E5
:10192000F08107E058F8081C890703D40120BDE8BE
:10193000F08100BFD8F8001021F003010843C8F877
:101940000000FEF7EBFF064641F28837D8F80000AA
:10195000616800F00C00B0EB810F8CD0FEF7DEFF69
:10196000801BB842F2D90320BDE8F08140F20800A4
:1019700043F60801C2F20000C4F2020100680968DF
:1019800043F6E642C1F38221C0F60002515CC84032
:101990007047000040F2080043F60801C2F2000060
:1019A000C4F202010068096843F6E642C1F342311D
:1019B000C0F60002515CC8407047000010B543F605
:1019C0000404C4F202046068C0F3810142F20040E2
:1019D000C0F2F400DFE801F04202081841F20020F2
:1019E000C0F27A0010BD00BF216801F03F022168FB
:1019F00023684902C3F3881116D4A1FB0001002318
:101A0000FEF76AFC17E000BF216801F03F02216881
:101A100023684902C3F3881114D4A1FB00010023F9
:101A2000FEF75AFC15E000BF41F20020C0F27A0038
:101A30004843B0FBF2F021680222C1F3014102EBFE
:101A4000410109E041F20020C0F27A004843B0FBB6
:101A5000F2F02168C1F30271B0FBF1F010BD00009B
:101A6000002804BF012070472DE9F04182B00446F0
:101A7000007843F60006C007C4F202060CD0B06836
:101A800000F00C00042840F089803068800303D502
:101A90006068002800F050812078800723D5B06866
:101AA00010F00C0F11D0B06800F00C00082802D123
:101AB0007068400209D5B06800F00C000C2840F0B6
:101AC0009F807068400200F19B803068800703D5DA
:101AD000E068012840F030813068216920F0F8008A
:101AE00040EAC10030602078000713D42078400716
:101AF0002AD4A569002D00F01A81B06800F00C000E
:101B0000082840F0AB80012D40F0E880012002B0B1
:101B1000BDE8F0816069002840F20000C4F247206F
:101B200000F088800121C0F8801EFEF7F7FE054610
:101B3000706F8007DAD4FEF7F1FE401B0228F7D958
:101B4000032002B0BDE8F081306C5FEAC0080AD41F
:101B500000200190306C40F080503064306C00F018
:101B600080500190019847F20007C4F200073868DE
:101B7000C00537D4386840F480703860FEF7CEFE78
:101B8000054600BF3868C0052CD4FEF7C7FE401BD1
:101B90000228F7D9032002B0BDE8F081B06800F058
:101BA0000C00082803D1706840023FF56EAFB068A2
:101BB00000F00C000C2803D1706840023FF565AFBF
:101BC0006068B0F5803F07D0B0F5A02F40F0CC8022
:101BD000306840F480203060306840F480303060FD
:101BE000CCE000BFA068012805D0052858D1306F8F
:101BF00040F004003067306F40F0010030675AE079
:101C0000E068002800F09C800020C4F247200121F9
:101C10000160FEF783FE0546306880073FF55CAF44
:101C2000FEF77CFE401B02284FF00300F4D902B0FF
:101C3000BDE8F0810021C0F8801EFEF76FFE05466A
:101C4000706F80077FF552AFFEF768FE401B0228D9
:101C5000F6D9032002B0BDE8F08100BF0027C4F22E
:101C6000472700203866FEF759FE022D05460BD1A6
:101C70003068800140F19480FEF750FE401B02283E
:101C80004FF00300F4D9D2E7306880014FD5FEF75A
:101C900045FE401B02284FF00300F5D9C7E700BFFF
:101CA000316F002821F001013167316F21F004010B
:101CB000316700F09980FEF731FE054641F2883722
:101CC000306F800700F1A280FEF728FE401BB8426B
:101CD000F6D9032002B0BDE8F08100BF7068E16969
:101CE00000F480028A4227D1216A00F03F028A4232
:101CF00022D147F6C071626A0140B1EB821F1BD14D
:101D0000A16A4FF6FF73C903994300F44032A1F56D
:101D100080318A4210D1E16A00F07062B2EB016F4B
:101D20000AD1216B00F0E040B0EB017F04D100202C
:101D300002B0BDE8F08100BF012002B0BDE8F08133
:101D40000020C4F2472000210160FEF7E7FD0546B0
:101D5000306880077FF5C7AEFEF7E0FD401B022824
:101D60004FF00300F4D962E73168002821F4803194
:101D70003160316821F48021316051D0FEF7CEFD11
:101D8000054600BF306880033FF586AEFEF7C6FD0E
:101D9000401B6428F6D9032002B0BDE8F08100BFE3
:101DA00004F11C052FCD246B084340EA8210D903AF
:101DB0004FF6FF729143A1F5803140EA0560084378
:101DC00040EA0470706001203866FEF7A7FD044603
:101DD00030688001ABD4FEF7A1FD001B02284FF054
:101DE0000300F5D923E700BFFEF798FD054641F251
:101DF000883700BF306F800708D5FEF78FFD401B86
:101E0000B8424FF00300F5D911E700BFB8F1000F59
:101E10003FF56FAE306C20F08050306469E600BF53
:101E2000FEF77CFD054600BF306880037FF534AEC9
:101E3000FEF774FD401B64284FF00300F4D9F6E66A
:101E4000411E0020B0EB116F1CBF012070474EF205
:101E50001002CEF2000251604EF62351CEF2000184
:101E6000F0230B700721906011607047002804BFB9
:101E70000120704710B5044690F83D0028B90020B5
:101E800084F83C00204600F021F8242084F83D002E
:101E90002068C16821F40051C160204600F014FFA1
:101EA0002068016921F490410161416921F02A0112
:101EB0004161C16841F40051C160002020212064CB
:101EC00084F83D1084F83E1010BD0000016844F60F
:101ED0000000C4F20000814218BF704780B586B090
:101EE000002143F630020191C4F20202136900F5A9
:101EF000E23043F480231361136903F480230193D8
:101F0000019B0191136843F008031360126802F00B
:101F100008020192019A4FF4407201920222CDE927
:101F20000221032104910721059101A9FEF712FC6A
:101F300006B0BDE8804070472DE9F04381B004460B
:101F400090F83D0020280DD10F4600294FF00100E8
:101F500000F0DD801646002A00F0D98094F83C009D
:101F6000012803D1022001B0BDE8F083012084F8EC
:101F70003C000020206421201D4684F83D00FEF72F
:101F8000CDFCA684E684A1680646B1F5805F03D146
:101F90002069002800F01081B8460027002084F84E
:101FA0003C00E18C2068002900F0908005F10109D7
:101FB0000DE000BFB8F1000F28D018F8011B4160F8
:101FC000E18C0139E184E18C002900F07F80016817
:101FD0000906EFD4B9F1000F0AD0FDB1FEF79EFC5F
:101FE000801BA8421AD8206801680906F6D5E1E7E7
:101FF00001680906DED4016809065CBF01685FEA72
:102000000161D7D401680906F2D5D3E737F8021B7E
:102010004FF000086FF35F21D1E700BF206850E860
:10202000030F216820F4D07041E80302BAB320689E
:1020300050E8030F216820F4D07041E8030272B326
:10204000206850E8030F216820F4D07041E80302B3
:102050002AB3206850E8030F216820F4D07041E8CB
:102060000302002ADAD11AE0206850E8050F21683F
:1020700020F0010041E80502DAB1206850E8050FC0
:10208000216820F0010041E8050292B1206850E883
:10209000050F216820F0010041E805024AB12068DF
:1020A00050E8050F216820F0010041E80502002AF0
:1020B000DAD1202084F83D0084F83E00002084F826
:1020C0003C00032001B0BDE8F08300BF0168490671
:1020D00019D4FDB1691C0DD10168490613D40168FA
:1020E00049065CBF01685FEA41610CD4016849069A
:1020F000F2D508E0FEF712FC801BA8420AD820683F
:1021000000684006F6D5202084F83D00002001B08C
:10211000BDE8F083206850E8030F216820F4D070F8
:1021200041E80302E2B3206850E8030F216820F47D
:10213000D07041E803029AB3206850E8030F216889
:1021400020F4D07041E8030252B3206850E8030F36
:10215000216820F4D07041E80302002ADAD11FE0A0
:10216000206850E8050F216820F0010041E80502D1
:10217000002A9ED0206850E8050F216820F0010059
:1021800041E80502002A3FF494AF206850E8050FAB
:10219000216820F0010041E80502002A3FF489AFE0
:1021A000206850E8050F216820F0010041E8050291
:1021B000002AD5D17DE700BF4FF00008EEE6000011
:1021C000FEE700002DE9F04383B0044600680B9D54
:1021D0000A9E0768994647F480670760076890463B
:1021E00047F48073036043690F46DA071DD1711C01
:1021F00011D0002E00F03681FEF790FB401BB0425C
:1022000000F2328120684169C907F5D00DE000BFB6
:102210004169C90709D14169C90706D14169C9079F
:1022200004BF41695FEAC171F2D007F0FE070761A0
:102230004169890738D44169721C29D0490529D4DC
:10224000002E00F0398100BFFEF768FB401BB04252
:1022500000F2348120684169890725D44169490524
:10226000F2D517E0416989071ED44169490511D4A7
:102270004169890718D4416949050BD44169890727
:1022800012D44169490505D4416989070CD44169D3
:102290004905E7D5016841F4007101606FF4806180
:1022A000416104200BE100BF00210291014651F879
:1022B000142F02924A680292029A0A68120620D4E7
:1022C000002E00F0AB80721C51D10A68520500F15B
:1022D000AD800A68120614D40A68520500F1A6807F
:1022E0000A6812060DD40A68520500F19F800A6838
:1022F000120606D40A68520500F198800A68120690
:10230000E3D5B9F1010F45D04FEA1821016101462B
:1023100051F8142F12063DD4002E00F07F80721C5D
:102320002AD10A68520500F181800A68120631D468
:102330000A6852057AD40A6812062BD40A68520534
:1023400074D40A68120625D40A6852056ED40A6845
:102350001206E6D51EE000BFFEF7E0FA401BB042D1
:1023600061D82068014651F8142F1206C9D40868B4
:102370004005F1D55AE000BF0868400556D4FEF785
:10238000CDFA401BB0424ED82068014651F8142FB8
:102390001206F1D55FFA88F10161014651F8142F58
:1023A00012061AD4D6B3721C33D10A6852053DD432
:1023B0000A68120611D40A68520537D40A68120650
:1023C0000BD40A68520531D40A68120605D40A688B
:1023D00052052BD40A681206E7D50168002241F4A1
:1023E0008071016020464FF001113346009500F0E6
:1023F00005FA002850D02068006844E0FEF78EFA05
:10240000401BB0420FD82068014651F8142F120625
:10241000E3D408684005F1D508E000BF086840052E
:1024200004D4FEF77BFA202004E000BF6FF4806044
:102430000860042000212022216384F83D2084F8D4
:102440003E10226C1043206484F83C10206C042859
:1024500041D12068016841F400710160012003B09E
:10246000BDE8F083FEF75AFA00202021206384F8AB
:102470003D1084F83E00216C41F020012164216868
:1024800084F83C000868C00544BF4FF40070206425
:10249000032003B0BDE8F08347F0010C2768022158
:1024A000C0F20101204632462B46C7F810C003B0E7
:1024B000BDE8F04300F046BAFEF730FA20200021D4
:1024C0002022216384F83D2084F83E10226C1043C2
:1024D000206484F83C10012003B0BDE8F0830000C4
:1024E0002DE9F04381B00446006890460268099DDA
:1024F00042F4807202604269089E9946D2070F46F4
:102500001DD1711C11D0002E00F0D280FEF706FA0A
:10251000401BB04200F2CE8020684169C907F5D067
:102520000DE000BF4169C90709D14169C90706D15A
:102530004169C90704BF41695FEAC171F2D007F080
:10254000FE0101614169890738D44169721C29D0B3
:10255000490529D4002E00F0E98000BFFEF7DEF91E
:10256000401BB04200F2E48020684169890725D40D
:1025700041694905F2D517E0416989071ED44169CF
:10258000490511D44169890718D4416949050BD41B
:102590004169890712D44169490505D44169890710
:1025A0000CD441694905E7D5016841F40071016027
:1025B0006FF4806141610420BBE000BF0021009105
:1025C000014651F8142F00924A680092009A0A6856
:1025D00012061ED4002E00F08580721C4DD10A68B0
:1025E000520500F187800A68120612D40A68520563
:1025F00000F180800A6812060BD40A68520579D46B
:102600000A68120605D40A68520573D40A681206CD
:10261000E5D5B9F1010F43D04FEA18210161014618
:1026200051F8142F12063BD4002E5BD0721C29D116
:102630000A6852055ED40A68120631D40A68520547
:1026400058D40A6812062BD40A68520552D40A6874
:10265000120625D40A6852054CD40A681206E7D53A
:102660001EE000BFFEF75AF9401BB0423FD8206879
:10267000014651F8142F1206CBD408684005F1D555
:1026800038E000BF0868400534D4FEF747F9401B26
:10269000B0422CD82068014651F8142F1206F1D50B
:1026A0005FFA88F10161002001B0BDE8F08300BF4E
:1026B000FEF734F900202021206384F83D1084F8CF
:1026C0003E00216C41F020012164216884F83C0027
:1026D0000868C00544BF4FF400702064032001B0B7
:1026E000BDE8F0830868400504D4FEF717F9202000
:1026F00004E000BF6FF48060086004200021202205
:10270000216384F83D2084F83E10226C104320643D
:1027100084F83C10206C042817D12068016841F42B
:1027200000710160012001B0BDE8F083FEF7F6F80A
:10273000202000212022216384F83D2084F83E10CF
:10274000226C1043206484F83C10012001B0BDE8E5
:10275000F083000070B50368044653F8140F400777
:1027600037D40E46F1B1701C24D100BF1868400563
:1027700032D4186840072CD4186840052CD4186847
:10278000400726D41868400526D41868400720D48E
:102790001868400520D4186840074FF0000048BF73
:1027A00070BDE3E71868400516D4FEF7B7F820209F
:1027B00016E000BF154600BF186840050CD4FEF7B0
:1027C000ADF8401BB042F2D8236853F8140F40070D
:1027D000F2D5002070BD00BF6FF480601860042047
:1027E00000212022216384F83D2084F83E10226CD1
:1027F00010432064012084F83C1070BD2DE9F041A5
:1028000005461446DDF8188001F47F002A681E464C
:10281000B0F5803F8FB23FD150693840C01BB0FA4D
:1028200080F04009A04277D1701C2BD0002E77D0C9
:10283000FEF774F8A0EB0800B04273D8286840692E
:102840003840C01BB0FA80F04009A042F0D063E0ED
:1028500050693840C01BB0FA80F04009A0425BD1FB
:1028600050693840C01BB0FA80F04009A04253D1F3
:1028700050693840C01BB0FA80F04009A0424FF0C8
:1028800000005DD150693840C01BB0FA80F04009AB
:10289000A042DDD040E000BF90693840C01BB0FAD4
:1028A00080F04009A04237D1701C1DD0C6B300BFD4
:1028B000FEF734F8A0EB0800B04233D828688069EE
:1028C0003840C01BB0FA80F04009A042F0D023E0AD
:1028D00090693840C01BB0FA80F04009A0424FF028
:1028E000000018BFBDE8F08190693840C01BB0FA05
:1028F00080F04009A0420FD190693840C01BB0FA67
:1029000080F04009A04207D190693840C01BB0FA5E
:1029100080F04009A042DBD00020BDE8F08100BF7C
:10292000FDF7FCFF00202021286385F83D1085F885
:102930003E00296C41F02001296485F83C0001200B
:10294000BDE8F081F0B581B0044600681D464369DA
:102950008FB203EA0701B94202D1002001B0F0BDF5
:102960004169164601321AD049050ED4A6B300BFFC
:10297000FDF7D4FF401BB04230D820684169394090
:10298000B942EAD041694905F2D5016841F40071C4
:1029900001606FF480614161042020E041694905D4
:1029A000F3D441693940B942D7D041694905ECD4E3
:1029B00041693940B942D0D041694905E5D44169FE
:1029C0003940B942C9D041694905DED4416939402D
:1029D000B942E3D1C1E700BFFDF7A0FF20200021ED
:1029E0002022216384F83D2084F83E10226C10439D
:1029F000206484F83C10012001B0F0BD2DE9F047BF
:102A000086B02820002100220027FEF795FB282011
:102A1000FEF780FB43F63000CDE904770097C4F25F
:102A20000200016841F6000A41F0040101600168FA
:102A3000C4F2020A01F004010091009900970168B4
:102A4000AAF5A05541F0800101600168002201F063
:102A50008001009100990097016844F2810841F0DB
:102A600002010160016801F00201009100990097E4
:102A7000016841F008010160016801F0080100915E
:102A800000990097016841F040010160016801F080
:102A90004001009100990097016841F00101016037
:102AA000006844F2810100F001000090009828467F
:102AB000FDF72EFF5046402100224FF04009FDF760
:102AC00027FF4FF4005001904FF4881001AECDE97C
:102AD0000207AAF580503146FDF73CFE0124284646
:102AE0003146CDF80480CDE902470497FDF732FE68
:102AF00050463146CDE90194CDE90377FDF72AFE32
:102B00008020CDE90107504631460397FDF722FEAC
:102B1000282000210022FEF70FFB2820FEF7FAFAFA
:102B200006B0BDE8F087000080B540F2700045F2C5
:102B30000041C2F20000C4F2000148F2A06200238A
:102B40004FF4804CC0F2010280E80E00C0E9033C63
:102B5000C0E90533C0E90733FDF7E6FE002808BFEA
:102B600080BDEFF3108072B6FEE7000080B540F242
:102B7000D05044F60001C2F20000C4F2000100236C
:102B80004FF00C0C4FF4164280E80E00C0E90333FE
:102B9000C0E905C3C361FFF769F9002808BF80BD1C
:102BA000EFF3108072B600BFFEE7000080B540F280
:102BB000C400C2F200004FF0A0410622C0E900129A
:102BC000022100220123C0E90312C0E90613C0E973
:102BD0000822C0E90B32FEF7FFFA002808BF80BDCB
:102BE000EFF3108072B600BFFEE70000FEE70000C2
:102BF000FEE700007047000070470000FEF720BAB3
:102C0000B0B594B0002443F64000CDE90B44CDE9C3
:102C100009440694CDE90444CDE902440194C4F288
:102C200002000168022541F080510160006800F057
:102C300080500190019847F200000194C4F2000016
:102C4000016841F440410160006800F44040019097
:102C50000198012007904FF4A02008904FF48000C5
:102C60000E9004200F90A820CDE910050720CDE993
:102C7000120507A80D95FEF7F3FE28B1EFF31080BB
:102C800072B600BFFEE700BF0F20CDE902054FF48A
:102C9000A05005904FF48050069002A8052104949E
:102CA000FEF7B2FD20B1EFF3108072B6FEE700BF71
:102CB00014B0B0BD4EF68850CEF20000016841F469
:102CC000700101607047000010B504460068D4E947
:102CD00002C22369016921F4405111430161626913
:102CE00043EA0C01E3691143C268194349F20C63DA
:102CF0009A431143C1604169A26921F4407141F2D4
:102D00000043114340F48062C4F201039A424161DE
:102D100002D1FEF73FFE01E0FEF728FEE16963689D
:102D20001922B1F5004FA0FB020123D15A00DB0F9D
:102D3000FDF7D2FA48F21F51C5F2EB11A0FB0123B7
:102D40005A094FF69C73C0F6FF7303F1805302FBE0
:102D50000300322303EBC000A0FB01014FF4F87025
:102D600000EA111000EB0210C1F34211084421687F
:102D7000886010BD9A009B0FFDF7AEFA48F21F5114
:102D8000C5F2EB11A0FB01235A094FF69C73C0F664
:102D9000FF7302FB0300322303EB0010A0FB0101D1
:102DA000F02000EA511000EB0210C1F34311084477
:102DB0002168886010BD000082B00499DDF808C069
:102DC000012940F64051C0F203016FD1826B4FF6EA
:102DD000BF7322F480328263C268CFF6BD731A409B
:102DE000C260C2680B9B22F44012012BC26003D167
:102DF000C26842F48012C26000220092009A01323E
:102E00000092009A8A4200F2A9800269002A1ED428
:102E1000009A01320092009A8A4200F29F80026971
:102E2000002A14D4009A01320092009A8A4200F2D9
:102E300095800269002A0AD4009A01320092009A11
:102E40008A4200F28B800269B2F1FF3FD6DC002299
:102E50000092026942F001020261009A013200927E
:102E6000009A8A427AD80269D2071AD0009A0132AF
:102E70000092009A8A4271D80269D20711D0009A52
:102E800001320092009A8A4268D80269D20708D0BB
:102E9000009A01320092009A8A425FD80269D207F2
:102EA000DBD10021BCF1010F72D169E0C268089B3F
:102EB00042F04002C26000220192019A0132019266
:102EC000019A8A4250D80269002A1BD4019A013221
:102ED0000192019A8A4247D80269002A12D4019AC3
:102EE00001320192019A8A423ED80269002A09D42D
:102EF000019A01320192019A8A4235D80269B2F1EF
:102F0000FF3FDADC00220192026942F00102026115
:102F1000019A01320192019A8A4225D80269D207A8
:102F20001AD0019A01320192019A8A421CD8026990
:102F3000D20711D0019A01320192019A8A4213D824
:102F40000269D20708D0019A01320192019A8A429D
:102F50000AD80269D207DBD1002106E00321BCF1C7
:102F6000010F15D10CE000BF0321826B002B14BFB1
:102F700022F4803242F480328263BCF1010F07D127
:102F8000826842F006028260826842F0200282601B
:102F9000084602B0704700000146D0F8000E20F04D
:102FA0000300C1F8000ED1F8040840F0020200202E
:102FB000C1F80428704700002DE9F04F83B0DDF818
:102FC0004C800E9F0022B8F1000FC0F80421C0F819
:102FD0000821C0F80C21C0F81021C0F81421C0F855
:102FE0001821C0F81C21C0F82021C0F82421C0F805
:102FF0002821C0F82C21C0F83021C0F83421C0F8B5
:103000003821C0F83C2107D0826B00F5006B42F4F8
:103010000012826314E000BFD0F8042800F5006BB2
:1030200042F00202C0F80428826B22F4001282638C
:10303000026842F040020260066846F080060660C0
:103040000026C0F8006ED0F80068012FC0F80068B4
:1030500006D1DBF80070002B18BF47F0010703E032
:10306000DBF8003043F00307DDF83CE0DDF830909A
:1030700040F64055C0F203050023C0F800780193E4
:10308000019B01330193019BAB4249D80369002B9B
:103090001BD4019B01330193019BAB4240D80369D0
:1030A000002B12D4019B01330193019BAB4237D813
:1030B0000369002B09D4019B01330193019BAB42AF
:1030C0002ED80369B3F1FF3FDADC002301934FF4FC
:1030D00084630361019B01330193019BAB421FD8C1
:1030E00003699B061AD5019B01330193019BAB42F7
:1030F00016D803699B0611D5019B01330193019BEF
:10310000AB420DD803699B0608D5019B013301939F
:10311000019BAB4204D803699B06DBD4002400E08A
:10312000012400230293029B01330293029BAB42D2
:1031300048D80369002B1BD4029B01330293029BE6
:10314000AB423FD80369002B12D4029B0133029398
:10315000029BAB4236D80369002B09D4029B013392
:103160000293029BAB422DD80369B3F1FF3FDADC37
:103170000023029310230361029B01330293029BFD
:10318000AB421FD80369DB061DD5029B01330293B6
:10319000029BAB4216D80369DB0614D5029B0133B0
:1031A0000293029BAB420DD80369DB060BD5029B51
:1031B00001330293029BAB4204D80369DB06DBD4E4
:1031C00001E000BF01244FF0000A0029CBF810A055
:1031D000CBF814A0CBF81CA000F00481D0F8003983
:1031E0004FF0006707EA13134FF67F324E1EC0F808
:1031F0000039C0F810A9C0F808297BD08B1E032B1A
:1032000006F003097246009404D22024B9F1000F9D
:103210003FD165E026F0030400234FF0904E4FF6B7
:103220007F384FF0000C00BF00EB0C05D5F820797B
:10323000043C0EEAE777C5F82079C5F83039C5F8BF
:103240002889D5F840790CF1800C0EEAE777C5F8AB
:103250004079C5F85039C5F84889D5F860790EEA43
:10326000E777C5F86079C5F87039C5F86889D5F889
:1032700080790EEAE777C5F88079C5F89039C5F806
:103280008889D1D1DDF84C800CF12004B9F1000F10
:1032900026D000F510673D594FF0904C0CEAE575CB
:1032A0003B193D5100244FF67F3EB9F1010F1C61DF
:1032B000C3F808E014D01D6AB9F1020F0CEAE577F3
:1032C0001F621C63C3F828E00AD01F6C4FF09045C2
:1032D00005EAE7771F6400271F654FF67F379F6475
:1032E000DDF83090009C002996464FF67F324FF073
:1032F000006777D0D0F8003B002E07EA1313C0F820
:10330000003B4FF00003C0F8103BC0F8082B69D019
:103310000239032906F0030C04D22023BCF1000F6C
:103320003BD15FE0009426F003044FF090474FF646
:103330007F3600214518D5F8202B043C07EAE272BD
:10334000C5F8202BC5F8303BC5F8286BD5F8402BC5
:1033500001F1800107EAE272C5F8402BC5F8503B45
:10336000C5F8486BD5F8602B07EAE272C5F8602B08
:10337000C5F8703BC5F8686BD5F8802B07EAE27298
:10338000C5F8802BC5F8903BC5F8886BD2D1009C5E
:1033900001F12003BCF1000F24D000F53062D658B3
:1033A0004FF0904707EAE676D118D65000264FF640
:1033B0007F33BCF1010F0E618B6013D00A6ABCF140
:1033C000020F07EAE2720A620E638B620AD00A6C8D
:1033D0004FF0904303EAE2720A6400220A654FF656
:1033E0007F328A64DBF81010B9F1000F21F480718C
:1033F000CBF810106FF08041C0F818A0416103D1E4
:10340000816941F010018161816943F60002C8F2CF
:103410003C021143BEF1000F816103D0816941F08C
:1034200008018161B8F1010F05D1816941F0804146
:1034300041F004018161204603B0BDE8F08F000037
:103440000146806820F0010200208A607047000079
:10345000B0B50446C06820F0C040E06091B10129D9
:1034600026D1E068002540F00050E0600120FDF723
:103470004FF96069C00705F1010014D1312D0546EF
:10348000F4D310E0E068002540F08040E06000BF29
:103490000120FDF73DF96069C00705F1010002D088
:1034A000312D0546F4D33238B0FA80F04009B0BD72
:1034B0000120B0BDFEE7000080B584B002460120C7
:1034C0000DF10F01CDE9001040F270004FF0FF3C0C
:1034D000C2F20000A0211023CDF808C0FDF7D6FAF3
:1034E000002818BFFDF70EF99DF80F0004B080BD4D
:1034F00080B584B0034640F270004FF0FF3CCDE948
:103500000012C2F20000A0211A461023CDF808C014
:10351000FDF772FC20B104B0BDE88040FDF7F2B8C1
:1035200004B080BDA0B040F20044C4F20204FDF734
:1035300095FDFFF765FBFFF761FAFFF7F5FAFFF777
:1035400015FBFFF733FB00F001FB00208DF87F0037
:103550008DF87E000A208DF87D0007208DF87A0016
:1035600018204FF0010B8DF8790007208DF87CB002
:103570008DF87BB0FFF7A0FF82468DF878000B2016
:10358000FDF7C6F80820FFF797FF8DF877000B20AE
:10359000FDF7BEF80920FFF78FFF8DF876000B20AE
:1035A000FDF7B6F80A20FFF787FF8DF875000B20AE
:1035B000FDF7AEF80B20FFF77FFF8DF874000B20AE
:1035C000FDF7A6F80C20FFF777FF8DF873000B20AE
:1035D000FDF79EF80D20FFF76FFF8DF872000B20AE
:1035E000FDF796F80A200021002200F025FB0120BB
:1035F00001210722182300F0C7FA43F6EE48C0F66F
:1036000000080DF10E070FF29839002056E000BFB8
:103610000DF17D000DF17E010DF17F0200F04AFAFF
:103620009DF87D209DF87E309DF87F6043F6F54142
:103630003846C0F600010096FCF7C6FE384600F09A
:10364000C7F91FA80DF17B010DF17A020DF1790385
:1036500000F0CEF99DF87A209DF87B309DF87960D6
:103660009DF87C503846BAA1CDE90065FCF7ACFE68
:10367000384600F0ADF99DF876209DF877309DF83A
:1036800078603846BEA10096FCF79EFE384600F0F2
:103690009FF99DF873209DF874309DF872609DF835
:1036A000755038464946CDE90065FCF78DFE384631
:1036B00000F08EF99DF878A09DF87F00824540F0DB
:1036C000CF809DF877009DF87E10884240F0C8803A
:1036D000404600F07DF920460121FDF711F9204612
:1036E0008021FDF70DF920464FF48041FDF708F9E0
:1036F0004FF47A70FDF70CF8404600F069F9204667
:103700000121FDF7FDF820468021FDF7F9F820465C
:103710004FF48041FDF7F4F84FF47A70FCF7F8FFAE
:10372000404600F055F920460121FDF7E9F8204612
:103730008021FDF7E5F820464FF48041FDF7E0F8E1
:103740004FF47A70FCF7E4FF404600F041F9204660
:103750000121FDF7D5F820468021FDF7D1F820465C
:103760004FF48041FDF7CCF84FF47A70FCF7D0FFAE
:10377000404600F02DF920460121FDF7C1F8204612
:103780008021FDF7BDF820464FF48041FDF7B8F8E1
:103790004FF47A70FCF7BCFF404600F019F9204660
:1037A0000121FDF7ADF820468021FDF7A9F820465C
:1037B0004FF48041FDF7A4F84FF47A70FCF7A8FFAE
:1037C000404600F005F920460121FDF799F8204612
:1037D0008021FDF795F820464FF48041FDF790F8E1
:1037E0004FF47A70FCF794FF404600F0F1F8204661
:1037F0000121FDF785F820468021FDF781F820465C
:103800004FF48041FDF77CF84FF47A70FCF780FFAD
:10381000404600F0DDF820460121FDF771F8204612
:103820008021FDF76DF820464FF48041FDF768F8E0
:103830004FF47A70FCF76CFF404600F0C9F8204660
:103840000121FDF75DF820468021FDF759F820465B
:103850004FF48041FDF754F84FF47A70FCF758FFAD
:1038600020468021FDF74CF84FF4FA70FCF750FF2A
:1038700020468021FDF744F84FF4FA70FCF748FF2A
:1038800020460121FDF736F801287FF4C1AE012062
:1038900001210722182300F077F90A2000210022D5
:1038A00000F0CAF900208DF878000A208DF8760023
:1038B00007208DF8730018208DF8720007201EA9CC
:1038C00001228DF877B08DF875B08DF874B0FFF7E0
:1038D0000FFE0B20FCF71CFF08200DF177010122E1
:1038E000FFF706FE0B20FCF713FF09200DF1760110
:1038F0000122FFF7FDFD0B20FCF70AFF0A200DF166
:1039000075010122FFF7F4FD0B20FCF701FF0B20EE
:103910001DA90122FFF7ECFD0B20FCF7F9FE0C209E
:103920000DF173010122FFF7E3FD0B20FCF7F0FE20
:103930000D200DF172010122FFF7DAFD0B20FCF7DB
:10394000E7FE204601210022FCF7E2FF60E600BF0F
:103950002020202020446174653A2025642F2564AE
:103960002F32302564206F6E2025647468206461D6
:1039700079206F6620746865207765656B0A0000A2
:10398000416C61726D2054696D65203D2025643A5B
:1039900025643A25642020202020202020000000DB
:1039A000416C61726D20446174653A2025642F2555
:1039B000642F32302564206F6E2025647468206483
:1039C0006179206F6620746865207765656B0A00F1
:1039D00010B50446FCF77CFD82B240F2D050C2F232
:1039E000000021466423BDE81040FEF7A5BA0000A0
:1039F0002DE9F04F87B0834640F27000CDE90423F3
:103A00008A46642601270DF11B05C2F20000D02171
:103A100003220123CDE900570296FDF737F800286D
:103A200018BFFCF76FFE40F270009DF81B40C2F219
:103A30000000D02104220123CDE901760095FDF795
:103A400025F8002818BFFCF75DFE40F270009DF8D5
:103A50001B6064274FF00108C2F20000D02105224C
:103A60000123CDE900580297FDF710F8002818BF90
:103A7000FCF748FE40F270009DF81B90C2F2000077
:103A8000D02106220123CDE900580297FCF7FEFF62
:103A9000002818BFFCF736FE04999DF81B008BF830
:103AA00000408AF8006081F800900599087007B01E
:103AB000BDE8F08F2DE9F04784B0804640F27000F9
:103AC00092468946642501260DF10F04C2F20000DA
:103AD000D02100220123CDE900460295FCF7D6FF54
:103AE000002818BFFCF70EFE40F270009DF80F7022
:103AF000C2F20000D02101220123CDE9016500942A
:103B0000FCF7C4FF002818BFFCF7FCFD0120CDE93D
:103B1000004040F270009DF80F506426C2F2000091
:103B2000D021022201230296FCF7B0FF002818BF23
:103B3000FCF7E8FD9DF80F008AF8007089F8005046
:103B400088F8000004B0BDE8F087000080B584B0BC
:103B500010208DF80F0001200DF10F01CDE90010AC
:103B600040F270004FF0640CC2F20000D021072236
:103B70000123CDF808C0FDF73FF9002818BFFCF776
:103B8000C1FD04B080BD00002DE9F04184B08DF886
:103B90000C0040F2700003AD8DF80D108DF80E2072
:103BA0008DF80F3064260124C2F20000D0210322D8
:103BB00001236F1C05F10208CDE900540296FDF7C0
:103BC0001BF9002818BFFCF79DFD40F27000C2F2FF
:103BD0000000D021042201230335CDE900740296B0
:103BE000FDF70AF9002818BFFCF78CFD40F27000C1
:103BF00064260124C2F20000D02105220123CDE970
:103C000000840296FDF7F8F8002818BFFCF77AFD4B
:103C100040F27000C2F20000D02106220123CDE95B
:103C200000540296FDF7E8F8002818BFFCF76AFD7B
:103C300004B0BDE8F0810000F0B585B08DF811202A
:103C40000DF111028DF81300012740F27000561C8F
:103C50008DF81210941C6425CDE90027C2F20000F3
:103C6000D021002201230295FDF7C6F8002818BFD5
:103C7000FCF748FD40F27000C2F20000D0210122A2
:103C80000123CDE900670295FDF7B6F8002818BFBB
:103C9000FCF738FD0120CDE9004040F270006427B8
:103CA000C2F20000D021022201230297FDF7A4F8FE
:103CB000002818BFFCF726FD05B0F0BDF1EE100A94
:103CC0004FF6FF71C0F2C03120EA010040F04070B1
:103CD000E1EE100A70470000000000000000010241
:103CE0000304060708090000000001020304414C18
:103CF00041524D0A0054696D65203D2025643A25E6
:103D0000643A25642020202020202020000000008C
:103D1000303D0008000000201000000028020008CC
:103D2000403D000810000020080C00004802000878
:103D300001000000100000000024F400000000005A
:04000005080001C529
:00000001FF
