:020000040800F2
:10000000680C002091020008851A00087D1A00087B
:10001000811A000889040008F52700080000000084
:100020000000000000000000000000008D1A000821
:100030008D04000800000000891A0008911A0008C9
:10004000AB020008AB020008AB020008AB020008DC
:10005000AB020008AB020008AB020008AB020008CC
:10006000AB020008AB020008AB020008AB020008BC
:10007000AB020008AB020008AB020008AB020008AC
:10008000AB020008AB020008AB020008AB0200089C
:10009000AB020008AB020008AB020008AB0200088C
:1000A000AB020008AB020008AB020008AB0200087C
:1000B000AB020008AB020008AB020008AB0200086C
:1000C000AB020008AB020008AB020008AB0200085C
:1000D000AB020008AB020008AB020008AB0200084C
:1000E000AB020008AB020008AB020008AB0200083C
:1000F000AB020008AB020008AB020008AB0200082C
:10010000AB020008AB020008AB020008AB0200081B
:10011000AB020008AB020008551B0008611B000879
:10012000AB020008AB020008AB020008AB020008FB
:10013000AB0200080000000000000000AB02000855
:10014000AB020008AB020008AB020008AB020008DB
:10015000AB020008AB020008AB020008AB020008CB
:10016000AB020008AB020008AB020008AB020008BB
:10017000AB020008AB020008AB0200080000000060
:1001800000000000AB0200080000000000000000BA
:10019000AB0200080000000000000000AB020008F5
:1001A000000000000000000000000000AB0200089A
:1001B000AB020008AB020008AB020008AB0200086B
:1001C000AB02000800F002F800F052F814A696E81E
:1001D000000CB244B344DA4501D100F049F8BAE862
:1001E0000F000FA696E83000A5EB040504EB060708
:1001F000AAEB0704A7F101074FEA15154FEA3414DB
:10020000A4F10104AC4201D300F032F813F0010F65
:1002100018BFFB1A43F0010300F001F8DBE71847B1
:10022000C42C0000E42C0000103A24BF78C878C128
:10023000FAD8520724BF30C830C144BF04680C60EC
:1002400070470000704700000023002400250026AE
:10025000103A28BF78C1FBD8520728BF30C148BF29
:100260000B6070471FB502F023FE1FBD10B510BD17
:1002700000F0D0F81146FFF7F5FF02F08DFB00F01B
:10028000EEF803B4FFF7F2FF03BC00F0F5F800004E
:100290000948804709480047FEE7FEE7FEE7FEE71A
:1002A000FEE7FEE7FEE7FEE7FEE7FEE70448054956
:1002B000054A064B70470000411B0008C5010008B5
:1002C00068060020680C00206808002068080020EC
:1002D00053EA020C00F069802DE9F04B4FF0000664
:1002E000002B1FBFB3FA83F503FA05F424FA05F6D1
:1002F0005E4012BF1643B2FA82F502FA05F4C5F168
:1003000020051EBF22FA05FC44EA0C04203556EAFB
:10031000044C4FEA144418BF641C4FF000084FF01F
:100320000009904271EB030C39D3002919BFB1FACF
:1003300081F701FA07F6B0FA80F700FA07F6C7F17D
:1003400020071EBF20FA07FC46EA0C062037B6FB42
:10035000F4FCA7EB0507103F07F01F0BCBF12006BD
:100360002CFA06F60CFA0BFB44BFB3460026202FEE
:10037000A4BF5E464FF0000B5BEA060C08BF4FF0CF
:10038000010B19EB0B0948EB0608ABFB027C06FBE3
:1003900002CC0BFB03CCC01B71EB0C01C1E70B467D
:1003A000024641464846BDE8F08B13B5084318BFE6
:1003B0004FF0FF300146AFF30080BDE81C407047AE
:1003C0004FF0000200B5134694469646203922BFEE
:1003D000A0E80C50A0E80C50B1F12001BFF4F7AF39
:1003E000090728BFA0E80C5048BF0CC05DF804EB1B
:1003F000890028BF40F8042B08BF704748BF20F889
:10040000022B11F0804F18BF00F8012B7047704786
:1004100070477047754600F02BF8AE4605006946F8
:10042000534620F00700854618B020B5FFF73EFF81
:10043000BDE820404FF000064FF000074FF00008E5
:100440004FF0000BAC46ACE8C009ACE8C009ACE822
:10045000C009ACE8C00921F007018D46704710B50E
:100460000446AFF300802046BDE81040FFF709BF07
:10047000004870474000002001491820ABBEFEE74D
:100480002600020070470000FEE7000070470000F1
:1004900072B600BFFEE70000B0B5044600F0EEF80B
:1004A000054640F23000C2F200000078611C18BF1F
:1004B000044400BF00F0E2F8401BA042FAD3B0BDF4
:1004C0002DE9F04F82B000F13E4707F1FF77860536
:1004D00046EA972741F60006C4F20206072243F6D1
:1004E000004EB04208BF0622C4F2010E062F38BFEC
:1004F0003A46002600274FF00008009209E000BFAE
:1005000008F101080237B8F1100F06F1040600F0F7
:10051000A3800D68012202FA08F415EA0409EFD05D
:10052000D1F804B003220BF0030CACF10105BA4082
:10053000012D6FEA020A0FD88268CD6802EA0A022A
:10054000BD402A4382604268A243CBF3001404FA00
:1005500008F42243426005E0BCF1030F02D14FF0E2
:10056000030C1EE0C2688C6802EA0A02BC40224307
:10057000BCF1020FC26014D16FF0030202EA58020C
:100580000244D2F820C006F01C040F230D69A340DA
:100590002CEA0303A5402B431362D1F804B00BF0FF
:1005A000030C02680CFA07F302EA0A021A431BF46E
:1005B000403F0260A4D0002243F644030192C4F2FB
:1005C00002031A684FF6084C42F480421A601A6817
:1005D000CFF6FF7C02F480420192019A28F00302D8
:1005E000724452F80C3006F00C050F24AC40A343C3
:1005F000009C04FA05F52B4342F80C30DEF8082085
:100600004B6842EA090543F60C4CDC0258BF22EA6B
:100610000905CEF80850C4F2010CDCF800209C0259
:1006200042EA090558BF22EA0905CCF80050DEF875
:1006300004209C0342EA090558BF22EA0905CEF8C6
:100640000450DEF80020DB0342EA090558BF22EA25
:100650000905CEF8005053E702B0BDE8F08F000066
:10066000426902EA0103914341EA03418161704713
:10067000002A08BF090481617047000040F26060F1
:10068000C2F200000068704740F2300040F2606142
:10069000C2F20000C2F2000100780A68104408604B
:1006A0007047000080B543F60040C4F202000168C4
:1006B00041F400710160016841F4806101600168EA
:1006C00041F480710160032000F086F8002000F002
:1006D00005F800F027F8002080BD000070B540F25A
:1006E0003006C2F2000640F238013278C2F2000150
:1006F0004FF47A730968B3FBF2F20446B1FBF2F1EE
:10070000084600F059FF0F2C4FF0010508D838B902
:100710004FF0FF3021460022002500F031F87460D0
:10072000284670BD82B0002043F640010190C4F21B
:1007300002014A6842F480424A604A6802F48042F8
:100740000192019A0090086840F0805008600868A3
:1007500000F080500090009802B07047002848BF19
:10076000704700F01F01012202FA01F11C2202EA87
:10077000D0004EF20012CEF200028150704700000D
:1007800010B54EF60C5CCEF2000CDCF80030C3F372
:10079000022E8EF00704042C28BF0424BEF10303AC
:1007A0004FF0FF3E0EFA04F438BF0023A1439940F6
:1007B0000EFA03F39A43114300F00F0200F1604375
:1007C0000901043A03F564436244002848BF02F17A
:1007D0000C03197010BD00004EF60C51CEF2000152
:1007E0000A684FF6FF031A4060F30A2242F0806065
:1007F00040F0FD700860704701220168C0F8D824FD
:10080000002280F8CC24886940F000608861486D3F
:1008100040F0805040F0030200204A65704700001D
:10082000002804BF0120704770B582B004460568F7
:1008300090F8950428B9002084F89404204600F02C
:100840002DF90320B5F1A04F84F8950404BF0020D2
:10085000A071206801F012FE94E80F00267C00963B
:1008600001F0A2FA002840F001812068002101F087
:100870000DFE002840F0FA8094F804E0BEF1000F6D
:1008800000F0ED800EF0030CBEF1040F4FF00002FB
:1008900040D30EF0FC03A4F190000321012500BF1A
:1008A000CE1E80F8A460A0F8BE608E1E80F8C860DE
:1008B000A0F8E2604E1E80F8EC60A0F8066180F8B7
:1008C0001011A0F82A110E1D013180F8A55080F8F2
:1008D000A820C0E92B22C0F8B42080F8C95080F8C5
:1008E000CC20C0E93422C0F8D82080F8ED5080F840
:1008F000F020C0E93D22C0F8FC2080F8115180F8BA
:100900001421C0E94622C0F8202190309942314696
:10091000C6D1F21EBCF1000F2CD002EBC20004EBDA
:10092000800301210020BCF1010F59751A75DA8589
:100930001876C3E9070058621CD0531C03EBC305AB
:1009400004EB8505BCF1020F69752B75EB852876E4
:10095000C5E9070068620DD0901C00EBC00104EBF4
:10096000810101220875C88500204A750876C1E911
:1009700007004862BEF1000F71D0BEF1040F4FF0C6
:10098000000235D30EF0FC0003212346CE1E83F86F
:1009900054628E1E83F878624E1E83F8C0120D1DBD
:1009A000013183F8552283F85822C3E99722C3F80E
:1009B000642283F8792283F87C22C3E9A022C3F859
:1009C000882283F89D2283F89C6283F8A022C3E9E1
:1009D000A922C3F8AC2283F8C12283F8C422C3E958
:1009E000B222C3F8D022903381422946CED1EA1EEA
:1009F000BCF1000F33D002EBC20004EB80010020F9
:100A0000BCF1010F81F8550281F8542281F8580297
:100A1000C1E99700C1F8640221D0511C01EBC10368
:100A200004EB8303BCF1020F83F8550283F85412E0
:100A300083F85802C3E99700C3F864020FD0901CF2
:100A400000EBC00104EB8101002281F8552281F8FE
:100A5000540281F85822C1E99722C1F8642294E82F
:100A60000F00267C009601F0B9FA28B1022084F824
:100A70009504012002B070BD00206074012084F84C
:100A80009504207B012802D12046FFF7B5FE20689F
:100A900001F094FA002002B070BD0000F0B59DB0E6
:100AA000044601A804305821FFF78AFC2068B0F101
:100AB000A04F01D01DB0F0BD4FF48070019001A88F
:100AC00000F03EF8002818BFFFF7E2FC002743F6CD
:100AD00030061897C4F202063068002440F0010086
:100AE00030603068C4F2020400F0010018901898D9
:100AF0004FF4E85018900220CDE9190703201B900D
:100B00000A2018AD1C9020462946FFF7D9FC4FF467
:100B10000070CDE91807204629461A97FFF7D0FC48
:100B2000706840F0800070600097706940F4804009
:100B30007061706900F48040009000981DB0F0BDB5
:100B40002DE9F04381B00446006843F68C06C107E6
:100B5000C4F2020604D14FF0000981070CD415E05D
:100B60003168A26B21F0C06111433160B2FA82F1A9
:100B70004FEA5119810709D53168E26B21F0C05164
:100B800011433160002A08BF4FF00109410705D425
:100B90004FF00008010712D420E000BF3168226B3B
:100BA00021F4401111433160B2FA82F14FEA511839
:100BB000B2F5801F08BF4FF0010901070ED531685B
:100BC000626B21F440011143B2F5800F316008BF20
:100BD0004FF00109002A08BF4FF0010881065AD5DD
:100BE0000020009056F84C0C47F2000740F080506F
:100BF00046F84C0C56F84C0CC4F2000700F080503C
:100C000000900098386840F480703860FFF736FD37
:100C1000054600BF3868C00506D4FFF72FFD401B0E
:100C20000228F7D990E100BF56F81C0C10F4407070
:100C300017D0216C01F44071884212D056F81C0C78
:100C400040F64061C4F24721012220F440700A605E
:100C500000220A6046F81C0C56F81C0CC00740F035
:100C60007B812068216C56F8842C4FF6FF4701F4F5
:100C7000407322F4F812C0F6FF770F40B3F5407FBF
:100C800008BF3A4346F8842C56F81C2C6FF31F31EA
:100C9000114346F81C1CC10610D4010619D44106A4
:100CA0001FD4C10525D4810530D4410536D4B9F10E
:100CB000000F3FD1B0F5006F63D13BE094F85800CE
:100CC00040F64061C4F24721C1F8A0032068010644
:100CD000E5D5B168E26C21F440011143B1604106F1
:100CE000DFD5B168A26C21F080611143B160C1050C
:100CF000D9D5B168626D21F000611143B160B2F1E4
:100D0000006F08BF4FF001088105CED5B168626C55
:100D100021F080511143B1604105C8D5B268216D01
:100D200022F000520A43B0F5006FB26018BFB1F173
:100D3000005F23D140F26809C4F247290020C9F8B6
:100D40000000FFF79BFC054656F88C0C000105D50A
:100D5000FFF794FC401B0228F6D9F5E02068C10794
:100D600002D0A16B00296FD0810702D5E16B002969
:100D70006AD0410700F17D807FE000BFB9F1000F2C
:100D8000D8D1B8F1000F4FF0000000F0DE806827E6
:100D9000C4F24727B860FFF771FC054656F88C0C83
:100DA000800005D5FFF76AFC401B0228F6D9CBE08E
:100DB0002068410701D5216B19B101071AD5616B74
:100DC000C1B956F8041CD4E9062301F44031656A20
:100DD000114341EA831141EA0561D4F82CC046F879
:100DE000041C31686FF0FF0221F4F85102EB0C2271
:100DF00011433160C00516D5606DB0F1006F12D19E
:100E000056F8040C226AD4E9061300F07060D2038D
:100E10004FF6FF75AA430843A2F5803240EA8310DB
:100E2000104346F8040C0120B860FFF727FC044685
:100E300056F88C0C800000F18B80FFF71FFC001B24
:100E40000328F5D380E000BF56F8081C56F8082C9C
:100E5000D4E9013501F4403102F070621943676949
:100E6000114341EA851141EA077146F8081C410720
:100E700003D5216BB1F5801F05D001071FD5616B2C
:100E8000B1F5800F1BD156F8081C56F8082CD4E990
:100E9000013701F4403102F0E04219432569114362
:100EA00041EA871141EA0561D4F828C046F8081CD8
:100EB0003168ACF1010221F01F011143316041059D
:100EC0001FD5216DB1F1005F1BD1271D56F808CC4D
:100ED00056F8082CA8CFFF034FF6FF7127EA01014F
:100EE0004FF0C06702F0E04207EA4C2707F10077B5
:100EF0001A433A43A1F5803142EA8512114346F87C
:100F0000081C000510D5271D8FCF40EA8110D103A2
:100F10004FF6FF729143A1F5803140EA0360084328
:100F200040EA077046F8080C0120C9F80000FFF7F6
:100F3000A5FB054656F88C0C00013FF522AFFFF7E4
:100F40009DFB401B0228F5D9032001B0BDE8F083CA
:100F5000002001B0BDE8F083FFF790FB054641F2A9
:100F6000883700BF56F81C0C80073FF57AAEFFF7B4
:100F700085FB401BB8424FF00300F3D9E5E70000C2
:100F8000002804BF012070472DE9F04143F608080E
:100F9000C4F202080446D8F8F8030D4600F00F002A
:100FA000884207D288F8F853D8F8F80300F00F0009
:100FB000A84277D12068810717D5410705D5D8F811
:100FC000001041F4E051C8F80010010705D5D8F829
:100FD000001041F46041C8F80010D8F80010A26871
:100FE00021F0F0011143C8F80010C00740D1D8F833
:100FF000F80300F00F00A84207D988F8F853D8F892
:10100000F80300F00F00A8424CD12068410707D533
:10101000D8F80010E26821F4E0511143C8F800103C
:10102000000708D5D8F80000216920F4604040EAA4
:10103000C100C8F8000000F07DF8D8F8001042F6B2
:10104000CA62C1F30311C0F60002515C40F23802DB
:1010500020FA01F140F23400C2F200000068C2F24E
:1010600000021160FFF73AFB0020BDE8F08100BFED
:101070006068811E022907D258F8081C89015CBFEC
:101080000120BDE8F08111E0012807D158F8081CC3
:1010900089035CBF0120BDE8F08107E058F8081C17
:1010A000890703D40120BDE8F08100BFD8F8001003
:1010B00021F003010843C8F80000FFF7DFFA0646F5
:1010C00041F28837D8F80000616800F00C00B0EBFE
:1010D000810F8CD0FFF7D2FA801BB842F2D90320DF
:1010E000BDE8F08140F2380043F60801C2F200008A
:1010F000C4F202010068096842F6DA62C1F3822193
:10110000C0F60002515CC8407047000040F2380051
:1011100043F60801C2F20000C4F202010068096847
:1011200042F6DA62C1F34231C0F60002515CC840B7
:101130007047000010B543F60404C4F2020460686E
:10114000C0F3810142F20040C0F2F400DFE801F098
:101150004202081841F20020C0F27A0010BD00BF20
:10116000216801F03F02216823684902C3F3881116
:1011700016D4A1FB00010023FFF7AAF817E000BF77
:10118000216801F03F02216823684902C3F38811F6
:1011900014D4A1FB00010023FFF79AF815E000BF6B
:1011A00041F20020C0F27A004843B0FBF2F021681F
:1011B0000222C1F3014102EB410109E041F20020AA
:1011C000C0F27A004843B0FBF2F02168C1F302712B
:1011D000B0FBF1F010BD0000002804BF01207047F3
:1011E0002DE9F04182B00446007843F60006C007BE
:1011F000C4F202060CD0B06800F00C00042840F0E5
:1012000089803068800303D56068002800F0508131
:101210002078800723D5B06810F00C0F11D0B0688B
:1012200000F00C00082802D17068400209D5B068AF
:1012300000F00C000C2840F09F807068400200F124
:101240009B803068800703D5E068012840F030813A
:101250003068216920F0F80040EAC1003060207851
:10126000000713D4207840072AD4A569002D00F088
:101270001A81B06800F00C00082840F0AB80012D06
:1012800040F0E880012002B0BDE8F08160690028EC
:1012900040F20000C4F2472000F088800121C0F82D
:1012A000801EFFF7EBF90546706F8007DAD4FFF771
:1012B000E5F9401B0228F7D9032002B0BDE8F08110
:1012C000306C5FEAC0080AD400200190306C40F016
:1012D00080503064306C00F080500190019847F2EB
:1012E0000007C4F200073868C00537D4386840F4F6
:1012F00080703860FFF7C2F9054600BF3868C00546
:101300002CD4FFF7BBF9401B0228F7D9032002B009
:10131000BDE8F081B06800F00C00082803D17068C7
:1013200040023FF56EAFB06800F00C000C2803D10E
:10133000706840023FF565AF6068B0F5803F07D048
:10134000B0F5A02F40F0CC80306840F480203060B1
:10135000306840F480303060CCE000BFA0680128E5
:1013600005D0052858D1306F40F004003067306F49
:1013700040F0010030675AE0E068002800F09C80EF
:101380000020C4F2472001210160FFF777F90546EC
:10139000306880073FF55CAFFFF770F9401B02280B
:1013A0004FF00300F4D902B0BDE8F0810021C0F88D
:1013B000801EFFF763F90546706F80077FF552AF17
:1013C000FFF75CF9401B0228F6D9032002B0BDE804
:1013D000F08100BF0027C4F2472700203866FFF7DE
:1013E0004DF9022D05460BD13068800140F1948003
:1013F000FFF744F9401B02284FF00300F4D9D2E76D
:10140000306880014FD5FFF739F9401B02284FF0B3
:101410000300F5D9C7E700BF316F002821F00101B3
:101420003167316F21F00401316700F09980FFF7D7
:1014300025F9054641F28837306F800700F1A28018
:10144000FFF71CF9401BB842F6D9032002B0BDE8F3
:10145000F08100BF7068E16900F480028A4227D100
:10146000216A00F03F028A4222D147F6C071626AC7
:101470000140B1EB821F1BD1A16A4FF6FF73C90374
:10148000994300F44032A1F580318A4210D1E16ADB
:1014900000F07062B2EB016F0AD1216B00F0E04006
:1014A000B0EB017F04D1002002B0BDE8F08100BFA5
:1014B000012002B0BDE8F0810020C4F247200021E5
:1014C0000160FFF7DBF80546306880077FF5C7AE9F
:1014D000FFF7D4F8401B02284FF00300F4D962E76D
:1014E0003168002821F480313160316821F4802195
:1014F000316051D0FFF7C2F8054600BF3068800365
:101500003FF586AEFFF7BAF8401B6428F6D90320F2
:1015100002B0BDE8F08100BF04F11C052FCD246BA3
:10152000084340EA8210D9034FF6FF729143A1F5B8
:10153000803140EA0560084340EA04707060012091
:101540003866FFF79BF8044630688001ABD4FFF79C
:1015500095F8001B02284FF00300F5D923E700BFE0
:10156000FFF78CF8054641F2883700BF306F8007DF
:1015700008D5FFF783F8401BB8424FF00300F5D9B8
:1015800011E700BFB8F1000F3FF56FAE306C20F0EF
:101590008050306469E600BFFFF770F8054600BF71
:1015A000306880037FF534AEFFF768F8401B64288D
:1015B0004FF00300F4D9F6E6411E0020B0EB116FA6
:1015C0001CBF012070474EF21002CEF200025160A3
:1015D0004EF62351CEF20001F0230B7007219060EC
:1015E00011607047704700007047000090F83C2081
:1015F000012A4FF0020254D010B580F83D20026855
:10160000D2F804E0D2F808C00C682EF0700323432F
:1016100041F2FF74C4F20004A24253600EDC40F2B7
:10162000FF73C4F200039A4216DCB2F1804F2BD054
:1016300040F20043C4F2000324E000BF40F2FF3355
:10164000C4F201039A4213DC41F60003C4F2000322
:101650009A4219D0002313E040F60003C4F20003BD
:101660009A4211D040F60043C4F200030AE000BFE2
:1016700044F20003C4F201039A4205D040F2004351
:10168000C4F201039A4204D149682CF08003194343
:1016900091600121002280F83D1080F83C20BDE8D7
:1016A0001040104670470000002804BF012070471A
:1016B00010B5044690F83D0028B9002084F83C009D
:1016C000204600F01FF8022084F83D002068211D0C
:1016D00000F04CFA012084F8460084F83E0084F8BB
:1016E0003F0084F8400084F8410084F8420084F808
:1016F000430084F8440084F8450084F83D0000204D
:1017000010BD000010B582B0006841F20041C4F283
:101710000001884216D041F20001C4F20001884263
:101720002CD10020019043F64000C4F20200016871
:10173000362441F010010160006800F010000190B3
:1017400001980FE00020009043F64000C4F2020030
:101750000168372441F020010160006800F020009A
:1017600000900098204600210022FFF709F820464B
:1017700002B0BDE81040FEF7F1BF00BF02B010BDDF
:1017800090F83D1001291CBF01207047022180F80C
:101790003D10006841F2FF72C168C4F2000290423D
:1017A00041F00101C1600DDC40F2FF71C4F20001A3
:1017B000884215DCB0F1804F2AD040F20041C4F2DB
:1017C000000123E040F2FF31C4F20101884213DC42
:1017D00041F60001C4F20001884219D0002113E053
:1017E00040F60001C4F20001884211D040F60041E9
:1017F000C4F200010AE000BF44F20001C4F201019A
:10180000884205D040F20041C4F20101884206D16D
:10181000816801F00701062904BF002070470168B4
:1018200041F0010101600020704700007047000096
:1018300070B504460068C5680669B10716D515F08D
:10184000020113D06FF0020101610121217780694B
:10185000800703D02046FFF7E9FF05E0204600F0AF
:101860008FF8204600F08EF800202077700719D5F9
:1018700015F0040016D020686FF004010161022108
:101880002177806910F4407F04D02046FFF7CEFF17
:1018900006E000BF204600F073F8204600F072F822
:1018A00000202077300717D515F0080014D02068E5
:1018B0006FF00801016104212177C069800703D01E
:1018C0002046FFF7B3FF05E0204600F059F8204618
:1018D00000F058F800202077F00619D515F0100018
:1018E00016D020686FF01001016108212177C069CE
:1018F00010F4407F04D02046FFF798FF06E000BFB9
:10190000204600F03DF8204600F03CF8002020770B
:10191000F00718BF15F0010002D1300609D412E01B
:1019200020686FF001010161204600F02DF83006BB
:1019300009D515F0800006D020686FF080010161A4
:101940002046FFF74FFE700609D515F0400006D07F
:1019500020686FF040010161204600F027F8B006D2
:1019600058BF70BD15F0200008D021686FF020022C
:1019700020460A61BDE87040FFF736BE70BD00002A
:10198000704700007047000040F2A001C2F2000161
:101990000A1D904206D040F2D052C2F2000290429C
:1019A00018BF7047012008607047000070470000B2
:1019B000002804BF0120704710B5044690F841008C
:1019C00028B9002084F84000204600F021F82420A7
:1019D00084F841002068C16821F40051C1602046AC
:1019E00000F06AF92068016921F4904101614169C0
:1019F00021F02A014161C16841F40051C160002019
:101A00002021606484F8411084F84210606310BDA6
:101A1000016844F60000C4F20000814218BF70471C
:101A200080B586B0002143F630020191C4F2020273
:101A3000136900F5E23043F480231361136903F462
:101A400080230193019B0191136843F00803136005
:101A5000126802F008020192019A4FF4407201925A
:101A60000222CDE90221032104910721059101A958
:101A7000FEF726FD06B0BDE880407047FEE7000097
:101A8000FEE70000FEE7000070470000704700001E
:101A9000FEF7FABDB0B594B0002443F64000CDE99E
:101AA0000B44CDE909440694CDE90444CDE9024450
:101AB0000194C4F202000168022541F080510160E6
:101AC000006800F080500190019847F200000194F6
:101AD000C4F20000016841F440410160006800F474
:101AE000404001900198012007904FF4A0200890F9
:101AF0004FF480000E9004200F90A820CDE910052F
:101B00000720CDE9120507A80D95FFF765FB18B171
:101B100072B600BFFEE700BF0F20CDE902054FF40B
:101B2000A05005904FF48050069002A8052104941F
:101B3000FFF726FA10B172B6FEE700BF14B0B0BDD1
:101B40004EF68850CEF20000016841F47001016049
:101B50007047000040F2A400C2F20000FFF768BE28
:101B600040F2D050C2F20000FFF762BE10B540F65E
:101B7000FF3E0368C4F2000E40F2004C7045C4F210
:101B8000010C27DCB0F1804F31D040F20042C4F2AA
:101B9000000290422BD040F60002C4F200029042B4
:101BA00025D041F6FF72C4F20002904229DC704554
:101BB0003CDCB0F1804F5FD040F20042C4F2000242
:101BC000904259D040F60002C4F20002904253D035
:101BD00056E000BF40F60042C4F20002904206D038
:101BE000604504D00022C4F201029042D9D14A6873
:101BF00023F07003134341F6FF72C4F200029042D7
:101C0000D5DD43F6FF72C4F20102904222DC42F2BB
:101C10000002C4F2000290422ED00022C4F201025F
:101C2000904229D0604527D02AE000BF40F600420C
:101C3000C4F2000290421FD041F60002C4F200023A
:101C4000904219D041F60042C4F20002904213D0F3
:101C500016E000BF44F20002C4F2010290420BD031
:101C600044F60002C4F20102904205D044F2004260
:101C7000C4F20102904203D1CA6823F440731343B3
:101C800023F080024B69D1F800E08C681A430260AF
:101C9000C46240F48062C0F828E0624504BF09696C
:101CA0000163012141610169C90708BF10BD0169D4
:101CB00021F00101016110BD10B504460068D4E9AE
:101CC00002C22369016921F4405111430161626933
:101CD00043EA0C01E3691143C268194349F20C63FA
:101CE0009A431143C1604169A26921F4407141F2F4
:101CF0000043114340F48062C4F201039A424161FF
:101D000002D1FFF703FA01E0FFF7ECF9E16963683C
:101D10001922B1F5004FA0FB020123D15A00DB0FBD
:101D2000FEF7D6FA48F21F51C5F2EB11A0FB0123D2
:101D30005A094FF69C73C0F6FF7303F1805302FB00
:101D40000300322303EBC000A0FB01014FF4F87045
:101D500000EA111000EB0210C1F34211084421689F
:101D6000886010BD9A009B0FFEF7B2FA48F21F512F
:101D7000C5F2EB11A0FB01235A094FF69C73C0F684
:101D8000FF7302FB0300322303EB0010A0FB0101F1
:101D9000F02000EA511000EB0210C1F34311084497
:101DA0002168886010BD000082B002F47F42B2F565
:101DB000807F40F07F80826B4FF6BF7322F48032C9
:101DC0008263C268CFF6BD731A40C260029BC268CC
:101DD000DBB222F44012012BC26003D1C26842F48C
:101DE0008012C26000220092009A01320092009A92
:101DF000B2F1706F00F2BE800269002A21D4009A0D
:101E000001320092009AB2F1706F00F2B380026961
:101E1000002A16D4009A01320092009AB2F1706F33
:101E200000F2A8800269002A0BD4009A01320092C5
:101E3000009AB2F1706F00F29D800269B2F1FF3F2B
:101E4000D2DC00220092026942F001020261009A93
:101E500001320092009AB2F1706F00F28B80026939
:101E6000D2071ED0009A01320092009AB2F1706F30
:101E700000F280800269D20713D0009A01320092EA
:101E8000009AB2F1706F75D80269D20709D0009A32
:101E900001320092009AB2F1706F6BD80269D207DA
:101EA000D5D14FF0000C01F47F01B1F5803F40F037
:101EB000818077E0C26842F04002C2600022019255
:101EC000019A01320192019AB2F1706F5AD80269F7
:101ED000002A1ED4019A01320192019AB2F1706F68
:101EE00050D80269002A14D4019A01320192019A51
:101EF000B2F1706F46D80269002A0AD4019A013201
:101F00000192019AB2F1706F3CD80269B2F1FF3FC1
:101F1000D6DC00220192026942F001020261019ABC
:101F200001320192019AB2F1706F2BD80269D20787
:101F30001DD0019A01320192019AB2F1706F21D83D
:101F40000269D20713D0019A01320192019AB2F1CB
:101F5000706F17D80269D20709D0019A0132019235
:101F6000019AB2F1706F0DD80269D207D7D14FF044
:101F7000000C09E04FF0030C01F47F01B1F5803F44
:101F800018D10FE04FF0030C826B13F47F4F14BF96
:101F900022F4803242F48032826301F47F01B1F591
:101FA000803F07D1816841F006018160816841F07E
:101FB00020018160604602B0704700000146D0F801
:101FC000000E20F00300C1F8000ED1F8040840F024
:101FD00002020020C1F80428704700002DE9F04FEC
:101FE00085B0C3F3074A904689460021BAF1000F35
:101FF000C0F80411C0F80811C0F80C11C0F8101195
:10200000C0F81411C0F81811C0F81C11C0F8201144
:10201000C0F82411C0F82811C0F82C11C0F83011F4
:10202000C0F83411C0F83811C0F83C1104D000F1E8
:1020300038014FF400120FE0D0F80418802241F06C
:102040000201C0F80418816B21F40011816301685A
:1020500041F04001016001460B681A430A6008F430
:102060007F420021B2F5807FC0F8001E08D1D0F871
:102070000028B1EB196F09D1C0F800280AE000BFB1
:10208000D0F8001841F0030102E000BF42F0010166
:10209000C0F80018002103910399013103910399BD
:1020A000B1F1706F50D8016900291ED40399013134
:1020B00003910399B1F1706F46D80169002914D4D6
:1020C0000399013103910399B1F1706F3CD8016913
:1020D00000290AD40399013103910399B1F1706F7A
:1020E00032D80169B1F1FF3FD6DC002103914FF4F2
:1020F000846101610399013103910399B1F1706F1A
:1021000022D8016989061DD50399013103910399EC
:10211000B1F1706F18D80169890613D5039901319F
:1021200003910399B1F1706F0ED80169890609D541
:102130000399013103910399B1F1706F04D80169DA
:102140008906D7D4002600E00126002104910499D5
:10215000013104910499B1F1706F4FD801690029E0
:102160001ED40499013104910499B1F1706F45D8DE
:102170000169002914D40499013104910499B1F141
:10218000706F3BD8016900290AD404990131049188
:102190000499B1F1706F31D80169B1F1FF3FD6DC1C
:1021A00000210491102101610499013104910499E5
:1021B000B1F1706F22D80169C90620D504990131A7
:1021C00004910499B1F1706F18D80169C90616D548
:1021D0000499013104910499B1F1706F0ED801692D
:1021E000C9060CD50499013104910499B1F1706FBD
:1021F00004D80169C906D7D401E000BF01265FFAFF
:1022000089F44FF0000B002CC0F810B8C0F814B8D7
:10221000C0F81CB800F00581D0F800194FF0006537
:1022200005EA11114FF67F3CB4F1010EC0F8001918
:10223000C0F810B9C0F808C979D0A21ECDE901963E
:10224000D146032A0EF0030A04D20122BAF1000F8C
:1022500043D167E0CDF800802EF0030700F5186643
:1022600000234FF0904C4FF67F324FF0000800BF34
:1022700056F8601C08F104080CEAE17146F8601C8D
:1022800046F8503C46F8582C56F8401C47450CEA96
:10229000E17146F8401C46F8303C46F8382C56F8B8
:1022A000201C0CEAE17146F8201C46F8103C46F868
:1022B000182C31680CEAE17131603361B26006F1CB
:1022C0008006D5D108F10102DDF800804FF67F3C91
:1022D0004FF00065BAF1000F24D000F510675601E9
:1022E000B9594FF0904303EAE17107EB4212B9513B
:1022F00000264FF67F37BAF1010F1661976011D0B3
:10230000116ABAF1020F03EAE17111621663976272
:1023100008D0116C03EAE1711164002111654FF6D8
:102320007F319164CA46DDE90196002C79D0D0F85E
:10233000001BBEF1000F05EA1111C0F8001B4FF0A1
:102340000001C0F8101BC0F808CB6AD0A11E0329F9
:102350000EF0030C04D20121BCF1000F3AD160E071
:1023600002962EF0030500F5386600234FF09047E3
:102370004FF67F32002100BF56F8604C043107EA67
:10238000E47446F8604C46F8503C46F8582C56F831
:10239000404C8D4207EAE47446F8404C46F8303C25
:1023A00046F8382C56F8204C07EAE47446F8204CDE
:1023B00046F8103C46F8182C346807EAE474346098
:1023C0003361B26006F18006D6D1029E0131BCF1C4
:1023D000000F26D000F530634C011D594FF090429C
:1023E00002EAE57503EB41111D5100274FF67F33DB
:1023F000BCF1010F0F618B6013D00C6ABCF1020FAE
:1024000002EAE4720A620F638B620AD00A6C4FF030
:10241000904303EAE2720A6400220A654FF67F32B3
:102420008A64D0F8101819F47F0F21F48071C0F875
:1024300010186FF08041C0F818B0416103D1816974
:1024400041F010018161816943F60002C8F23C024B
:10245000114318F47F0F816103D0816941F00801B5
:102460008161BAF1010F05D1816941F0804141F0EC
:1024700004018161304605B0BDE8F08F01468068F7
:1024800020F0010200208A6070470000B0B50446C9
:10249000C068002920F0C040E06000F09980012968
:1024A00040F0B080E0680A2540F00050E0600A206B
:1024B000FDF7F2FF54F8140FC00740F09C800A208B
:1024C000FDF7EAFF2068C00740F09E800A20FDF774
:1024D000E3FF2068C00740F0A5800A20FDF7DCFF7D
:1024E0002068C00740F0AC800A20FDF7D5FF2068C7
:1024F000C00740F0B3800A20FDF7CEFF2068C00778
:1025000040F0BA800A20FDF7C7FF2068C00740F0FE
:10251000C1800A20FDF7C0FF2068C00740F0C880D6
:102520000A20FDF7B9FF2068C00740F0CF800A20DD
:10253000FDF7B2FF2068C00740F0D6800A20FDF703
:10254000ABFF2068C00740F0DD800A20FDF7A4FF44
:102550002068C00740F0E4800A20FDF79DFF206856
:10256000C00740F0EB800A20FDF796FF2068C00707
:1025700040F0F2800A20FDF78FFF2068C00740F08E
:10258000F9800A20FDF788FF2068C00740F000812D
:102590000A20FDF781FF2068C00740F007810A206C
:1025A000FDF77AFF2068C00740F00E810A20FDF792
:1025B00073FF2068C00740F016810A20FDF76CFF0A
:1025C0002068C825A5F1C800B0FA80F04009B0BD68
:1025D000E0680A2540F08040E0600A20FDF75CFFDB
:1025E00054F8140FC00706D00A20FDF755FF2068E5
:1025F000C00711D11425A5F1C800B0FA80F0400938
:10260000B0BD00BF0120B0BD1425A5F1C800B0FACF
:1026100080F04009B0BD00BF0A20FDF73DFF2068F3
:10262000C00707D11E25A5F1C800B0FA80F0400907
:10263000B0BD00BF0A20FDF72FFF2068C00707D1FB
:102640002825A5F1C800B0FA80F04009B0BD00BF50
:102650000A20FDF721FF2068C00707D13225A5F128
:10266000C800B0FA80F04009B0BD00BF0A20FDF7F5
:1026700013FF2068C00707D13C25A5F1C800B0FAB8
:1026800080F04009B0BD00BF0A20FDF705FF2068BB
:10269000C00707D14625A5F1C800B0FA80F040096F
:1026A000B0BD00BF0A20FDF7F7FE2068C00707D1C4
:1026B0005025A5F1C800B0FA80F04009B0BD00BFB8
:1026C0000A20FDF7E9FE2068C00707D15A25A5F1C9
:1026D000C800B0FA80F04009B0BD00BF0A20FDF785
:1026E000DBFE2068C00707D16425A5F1C800B0FA59
:1026F00080F04009B0BD00BF0A20FDF7CDFE206884
:10270000C00707D16E25A5F1C800B0FA80F04009D6
:10271000B0BD00BF0A20FDF7BFFE2068C00707D18B
:102720007825A5F1C800B0FA80F04009B0BD00BF1F
:102730000A20FDF7B1FE2068C00707D18225A5F168
:10274000C800B0FA80F04009B0BD00BF0A20FDF714
:10275000A3FE2068C00707D18C25A5F1C800B0FAF8
:1027600080F04009B0BD00BF0A20FDF795FE20684B
:10277000C00707D19625A5F1C800B0FA80F040093E
:10278000B0BD00BF0A20FDF787FE2068C00707D153
:10279000A025A5F1C800B0FA80F04009B0BD00BF87
:1027A0000A20FDF779FE2068C00707D1AA25A5F108
:1027B000C800B0FA80F04009B0BD00BF0A20FDF7A4
:1027C0006BFE2068C00707D1B425A5F1C800B0FA98
:1027D00080F04009B0BD00BF0A20FDF75DFE206813
:1027E000C0077FF4EAAEBE25A5F1C800B0FA80F0BC
:1027F0004009B0BDFEE70000B0B540F60044C4F2A9
:10280000020420468021FDF72BFF20464021FDF7E2
:1028100027FF20462021FDF723FF20461021FDF74A
:102820001FFF20460821FDF71BFF04F580652846A1
:102830000421FDF715FF4FF41670FDF72DFE20461D
:102840008021FDF70DFF20464021FDF709FF2046BE
:102850002021FDF705FF20461021FDF701FF20464E
:102860000821FDF7FDFE28460421FDF7F9FE4FF48F
:102870001670FDF711FE20468021FDF7F1FE20467F
:102880004021FDF7EDFE20462021FDF7E9FE204620
:102890001021FDF7E5FE20460821FDF7E1FE284660
:1028A0000421FDF7DDFE4FF41670FDF7F5FD20461F
:1028B0008021FDF7D5FE20464021FDF7D1FE2046C0
:1028C0002021FDF7CDFE20461021FDF7C9FE204650
:1028D0000821FDF7C5FE28460421FDF7C1FE4FF48F
:1028E0001670FDF7D9FD20468021FDF7B9FE204680
:1028F0004021FDF7B5FE20462021FDF7B1FE204620
:102900001021FDF7ADFE20460821FDF7A9FE28465F
:102910000421FDF7A5FE4FF41670FDF7BDFD20461E
:102920008021FDF79DFE20464021FDF799FE2046BF
:102930002021FDF795FE20461021FDF791FE20464F
:102940000821FDF78DFE28460421FDF789FE4FF48E
:102950001670FDF7A1FD204680210022FDF788FEBC
:10296000204640210022FDF783FE20462021002240
:10297000FDF77EFE204610210022FDF779FE20465D
:1029800008210022FDF774FE284604210022BDE83C
:10299000B040FDF76DBE000094B040F20000C2F2FE
:1029A0000000D0E90237D0E900E2D0E906C1D0E961
:1029B0000465CDE9023700F12003C06ACDE900E2E9
:1029C000CDE906C10ECB40F600440B9008A8C4F236
:1029D0000204CDE904650EC0FDF764FEFFF75AF866
:1029E000002643F6300012960D96C4F202000168EC
:1029F00004F5806541F0100101600168002201F0DA
:102A000010010D910D990D960168042741F0040104
:102A10000160016801F004010D910D990D960168A6
:102A200041F080010160016801F080010D910D9974
:102A30000D96016841F002010160016801F0020198
:102A40000D910D990D96016841F008010160016832
:102A500001F008010D910D990D96016841F04001BA
:102A60000160016801F040010D910D990D9601681A
:102A700041F0010101600068042100F001000D90A7
:102A80000D982846FDF7F4FDA4F50068404644F291
:102A90008101002244F2810BFDF7EAFD04F5406953
:102AA000484640210022FDF7E3FD2046F8210022A0
:102AB000FDF7DEFD0E970EAF4FF0010A28463946AE
:102AC000CDE90FA61196FDF7FBFC4FF400500E90D8
:102AD0004FF48810CDE90F06A4F580603946FDF764
:102AE000EFFC40463946CDE90EBACDE91066FDF758
:102AF000E7FC4020CDE90E0A48463946CDE910668C
:102B0000FDF7DEFC8020CDE90E06484639461096DA
:102B1000FDF7D6FCF820CDE90E0A20463946CDE96E
:102B20001066FDF7CDFC40F21860A4F5E231C2F268
:102B300000000C234FF4E13280E84600C0E9036650
:102B4000C0E90536C661FEF733FF18B172B600BFA3
:102B5000FEE700BF40F2EC00C2F200004FF0A041DF
:102B60000160062101714FF40071C1804FF4817141
:102B7000C0F80910A0F80EA0FDF752FE10B172B611
:102B8000FEE700BF40F2A00BC2F2000BA4F5FE323C
:102B90005846002140F8042F43F67F6240F2CF737D
:102BA000CDE90E11C0E90121C3608161FEF77CFD12
:102BB00010B172B6FEE700BF0BF104000EA9FEF7DC
:102BC00015FD18B172B600BFFEE700BF40F2D0504D
:102BD0000021A4F5FC32C2F2000043F67F6341F607
:102BE0005737CDE90E11C0E90023C0E90217816112
:102BF000FEF75AFD10B172B6FEE700BF40F2D056A4
:102C0000C2F200060EA93046FEF7F0FC10B172B613
:102C1000FEE700BF684600F1080800F1100900F166
:102C2000180A00F12007334600F12806DBF80400FB
:102C30004FF0FF318162196840F69F728A6242F25A
:102C40001072C26249F2E030C0F20400CBF81020EA
:102C5000C862D860FFF7D0FDEB4600BF584600F0D1
:102C6000C5F8204680210022FDF702FD20464021C4
:102C70000022FDF7FDFC204620210022FDF7F8FC94
:102C8000204610210022FDF7F3FC204608210022F7
:102C9000FDF7EEFC284604210022FDF7E9FC404642
:102CA00000F0A4F8204680210022FDF7E1FC204638
:102CB00040210022FDF7DCFC204620210022FDF708
:102CC000D7FC204610210022FDF7D2FC2046082127
:102CD0000022FDF7CDFC284604210022FDF7C8FCA8
:102CE000484600F083F8204680210022FDF7C0FC12
:102CF000204640210022FDF7BBFC20462021002277
:102D0000FDF7B6FC204610210022FDF7B1FC20465D
:102D100008210022FDF7ACFC284604210022FDF723
:102D2000A7FC504600F062F8204680210022FDF703
:102D30009FFC204640210022FDF79AFC20462021DE
:102D40000022FDF795FC204610210022FDF790FCA3
:102D5000204608210022FDF78BFC28460421002292
:102D6000FDF786FC384600F041F82046802100221D
:102D7000FDF77EFC204640210022FDF779FC20462D
:102D800020210022FDF774FC204610210022FDF7CF
:102D90006FFC204608210022FDF76AFC284604212A
:102DA0000022FDF765FC304600F020F82046802127
:102DB0000022FDF75DFC204640210022FDF758FC73
:102DC000204620210022FDF753FC2046102100223E
:102DD000FDF74EFC204608210022FDF749FC28465D
:102DE00004210022FDF744FC38E70000B0B504469A
:102DF000006805283CD8DFE800F00B13031F2D0303
:102E000040F60045C4F20205284680210EE000BFCE
:102E100040F60045C4F202052846202106E000BF26
:102E200040F60045C4F20205284640210122FDF784
:102E30001FFC2846102118E040F60045C4F20205A8
:102E4000284680210122FDF713FC05F5806004214E
:102E50000BE000BF40F60045C4F202052846802181
:102E60000122FDF705FC284608210122FDF700FCA0
:102E7000606840F2A0040A28C2F2000406D00B28C1
:102E80000AD140F2D050C2F2000000E0201D0168DB
:102E900000224A62FEF774FC206830B9206820B92D
:102EA000206810B920680028F6D000202060B0BD4E
:102EB000F1EE100A4FF6FF71C0F2C03120EA0100B6
:102EC00040F04070E1EE100A704700000000000082
:102ED00000000102030406070809000000000102C7
:102EE00003040000082F000800000020400000003C
:102EF00028020008482F000840000020280C00008D
:102F00004802000800000000000000000A00000065
:102F1000010000000B000000020000000B00000098
:102F2000030000000A000000040000000B00000085
:102F3000050000000B000000010000001000000070
:082F40000024F4000000000071
:04000005080001C529
:00000001FF
