:020000040800F2
:10000000E8100020B102000815200008DD1D0008DE
:10001000112000083D0D0008252200080000000006
:100020000000000000000000000000001D2000088B
:10003000410D0008000000001920000821200008E0
:10004000CB020008CB020008CB020008CB0200085C
:10005000CB020008CB020008CB020008CB0200084C
:10006000CB020008CB020008CB020008CB0200083C
:10007000CB020008CB020008CB020008CB0200082C
:10008000CB020008CB020008CB020008CB0200081C
:10009000CB020008CB020008CB020008CB0200080C
:1000A000CB020008CB020008CB020008CB020008FC
:1000B000CB020008CB020008CB020008CB020008EC
:1000C000CB020008CB020008CB020008CB020008DC
:1000D000CB020008CB020008CB020008CB020008CC
:1000E000450D0008CB020008CB020008CB02000837
:1000F000CB020008CB020008CB020008CB020008AC
:10010000CB020008CB020008CB020008CB0200089B
:10011000CB020008CB020008CB020008CB0200088B
:10012000CB020008CB020008CB020008CB0200087B
:10013000CB0200080000000000000000CB02000815
:10014000CB020008CB020008CB020008CB0200085B
:10015000CB020008CB020008CB020008CB0200084B
:10016000CB020008CB020008CB020008CB0200083B
:10017000CB020008CB020008CB0200080000000000
:1001800000000000CB02000800000000000000009A
:10019000CB0200080000000000000000CB020008B5
:1001A000000000000000000000000000CB0200087A
:1001B000CB020008CB020008CB020008CB020008EB
:1001C000CB02000800F002F800F062F814A696E8EE
:1001D000000CB244B344DA4501D100F059F8BAE852
:1001E0000F000FA696E83000A5EB040504EB060708
:1001F000AAEB0704A7F101074FEA15154FEA3414DB
:10020000A4F10104AC4201D300F042F813F0010F55
:1002100018BFFB1A43F0010300F001F8DBE71847B1
:100220004455000064550000103A24BF78C878C1D6
:10023000FAD8520724BF30C830C144BF04680C60EC
:1002400070470000704700000023002400250026AE
:10025000103A28BF78C1FBD8520728BF30C148BF29
:100260000B607047662905F0CE80642900F000819C
:10027000002070471FB505F0B4F800F0E7FB04005C
:100280000020002104F0A0F9E0601FBD10B510BDF2
:1002900000F0E0FC1146FFF7EDFF02F08DF900F0F1
:1002A000FEFC03B4FFF7F2FF03BC00F03FFD0000CB
:1002B0000948804709480047FEE7FEE7FEE7FEE7FA
:1002C000FEE7FEE7FEE7FEE7FEE7FEE70448054936
:1002D000054A064B70470000D5200008C5010008FC
:1002E000E80A0020E8100020E80C0020E80C0020BC
:1002F00053EA020C00F069802DE9F04B4FF0000644
:10030000002B1FBFB3FA83F503FA05F424FA05F6B0
:100310005E4012BF1643B2FA82F502FA05F4C5F147
:1003200020051EBF22FA05FC44EA0C04203556EADB
:10033000044C4FEA144418BF641C4FF000084FF0FF
:100340000009904271EB030C39D3002919BFB1FAAF
:1003500081F701FA07F6B0FA80F700FA07F6C7F15D
:1003600020071EBF20FA07FC46EA0C062037B6FB22
:10037000F4FCA7EB0507103F07F01F0BCBF120069D
:100380002CFA06F60CFA0BFB44BFB3460026202FCE
:10039000A4BF5E464FF0000B5BEA060C08BF4FF0AF
:1003A000010B19EB0B0948EB0608ABFB027C06FBC3
:1003B00002CC0BFB03CCC01B71EB0C01C1E70B465D
:1003C000024641464846BDE8F08B13B5084318BFC6
:1003D0004FF0FF300146AFF30080BDE81C4070478E
:1003E0000FB41CB5074B06AA7B44694600900598DC
:1003F00000F013FB0020694600F022FB1CBC5DF8F6
:1004000014FB0000550600002DE9F0410E4604469D
:10041000002020622046E168884730B3252805D0B7
:10042000D4E901219047206A401CF2E7E1682046A8
:1004300000278847050018D0A5F14100192802D8E7
:1004400020354FF400673246294620462760FFF7E3
:1004500009FF40B1012804D0F61D26F00706083632
:10046000D8E7361DD6E72846DAE7206ABDE8F081EE
:100470002DE9F0410646002410687529314616A57D
:1004800010D0AFF30080002802DA404213A507E045
:1004900031688A0701D512A502E0490704D511A5E4
:1004A000012401E0AFF3008000210A2206F12407B5
:1004B00009E0B0FBF2FCB0FBF2F302FB1C003030B1
:1004C00078541846491C0028F3D123462A46304662
:1004D000BDE8F04100F035B8000000002D0000003C
:1004E0002B0000002000000010B5431C02E010F8B3
:1004F000011B71B18107FAD14FF0013202C88C1A89
:100500008C4314EAC211F9D0C01A0A0603D0C01EE7
:1005100010BDC01A10BD0A0401D0801E10BD090212
:10052000FCD0401E10BD70477047704710B500F0FA
:1005300091FA006810BD10B5044600F08BFA046013
:1005400010BD2DE9F0470D4699469246044600F14C
:1005500024080168880604D5E06921F010012160B3
:1005600000E00120A84201DD471B00E00027A1694F
:100570007A1902EB0900081AA0612078C00602D49B
:100580002046AFF30080002608E0D4E901211AF8E4
:1005900006009047206A401C761C20624E45F4DB22
:1005A0002078C0060AD52046AFF3008006E0D4E9E3
:1005B000012130209047206A401C2062381EA7F19C
:1005C0000107F4DC07E0D4E9012118F805009047A1
:1005D000206A401C2062281EA5F10105F3DC20469C
:1005E000AFF300802078000602D50220BDE8F08736
:1005F0000120FBE72DE9FF4F0C461E464FF0FF3769
:100600008BB0D2E90001DDF860800A908A46C1F320
:100610000A5505B93D46002108464FF00000BAF1E1
:10062000000F00F4400005DA00EB80004FF44001B9
:1006300001EA50004FEA9059B9F1010F00DDB946C7
:100640000A9850EA4A000ED044F61050A5F2FF3541
:1006500045432F14B8F1000F1ED07542291E1EDD30
:10066000C9F100021CE0B8F1010F4FF0000001D009
:10067000302103E0F24305E02154401CB042FBDB93
:1006800030460022002121540B99C1F80880C1E9AD
:1006900000200FB0BDE8F08FBD1B6D1CDEE74A46A1
:1006A00000DA694206A800F05FFA06AB93E807009B
:1006B00003AB83E8070050460A9902F088F88DE8FA
:1006C0000700A0F500501F3800900398002D0ADDA8
:1006D00042F21F014A460844002303A903906846DA
:1006E00002F0F2FA09E0A0F500504A461F38002354
:1006F00003A90390684602F0FCFA8DE807000004A5
:10070000000C03D04FF0FF30410800E01046B8F174
:10071000000F03D00022009215461EE0751E05D47E
:1007200000F09CF9303262556D1EF9D5B3460122B6
:10073000084302D000227F1C04E02078302801D139
:1007400000227F1E002A099784D01DE0112D07DAB0
:1007500000F084F9303262556D1C50EA0102F5D187
:10076000084302D00098C8B10EE00021681E05E0E1
:10077000235C625C63542254401E491C8142F7DBB7
:10078000AB46A81B401E0990002004F80B000B98F4
:10079000099AC0F80880C0E9002B7AE711264FF0CB
:1007A000000857E72DE9F04F88460446D21D22F095
:1007B000070191B0D1E90001CDE90A0102F0D0FBB7
:1007C00002460B98C00F01D02D2007E0206881075A
:1007D00001D52B2002E0202101EAC000032A099064
:1007E00001D0072A05DB03464146204600F07CF98C
:1007F0000BE12078800601D5E06900E00620B8F121
:10080000650F814606D0B8F1660F18D0B8F1670FB2
:1008100070D131E00020B9F1110F009001DB1123FC
:1008200001E009F101030AAA01A90CA8FFF7E2FE01
:10083000DDE90C70002609F10105834647E001203F
:100840004B4600904FF000470AAA01A90CA8FFF7F9
:10085000D1FEDDE90DB00C995D46002610B909F115
:1008600001000D18B9EB050003D4C0F1FF3609F102
:100870000105A5EB09002BE0B9F1010F01DA4FF0FA
:1008800001090020B9F1110F0090484601DD112344
:1008900000E003460AAA01A90CA8FFF7ABFEDDE9B8
:1008A0000C704D4600268346207800070AD4AB45DD
:1008B00000DA5D4601A8012D04DD411911F8011C83
:1008C000302907D04F4502DA17F1040F04DA01206E
:1008D00082460FE06D1EEEE7002F02DCED1B3E446A
:1008E00003E0781CA84200DD7D1CB81B00F1010A62
:1008F0004FF000472078000703D4AA4501DB4FF0F2
:10090000FF3A0021B7F1004F0DF143088DF8431075
:1009100024D002202B23002F01DA7F422D230A212D
:10092000021EA0F1010000DC5FB197FBF1FC97FB18
:10093000F1F201FB1C7C17460CF1300C08F801CDDC
:10094000EEE7A8F1010003702188090501D54521D2
:1009500000E06521A0F1010800F8011C09980FA929
:10096000A1EB0807FF1D00B10120411901EBEA705E
:10097000A1693844081A401EA0612078C00602D43C
:100980002046AFF30080099828B1D4E901219047AF
:10099000206A401C20622078C00622D52046AFF392
:1009A00000801EE0002E04DBB34502DD01A8805D5F
:1009B00000E03020D4E901219047206A401C2062E9
:1009C000761CAAF101005FEA000A0AD100F03EF8A5
:1009D000C0680168405CD4E901219047206A401C4E
:1009E0002062281EA5F10105DCDC07E0D4E9012125
:1009F00018F8010B9047206A401C2062381EA7F1AE
:100A00000107F3DC2046AFF30080032011B041E67C
:100A100001694A1C02610878704700B58FB0CDE9C2
:100A200001310021059105497944CDE903101146B2
:100A30006846FFF7E9FC0FB000BD0000E5FFFFFFCF
:100A40000A6802F8010B0A6070470000004870470E
:100A500030000020004870471000002030B5B0F191
:100A60000A0271F100034FEA900E4EEA817EB0EB6C
:100A70000E0061EB91014FEA101E4EEA017E10EB71
:100A80000E0041EB11114FEA102E4EEA016E10EBF1
:100A90000E0041EB11214FEA104E4EEA014E10EBD1
:100AA0000E0041EB1141401841F100014FEAD00026
:100AB00040EA41704FEAD1014FEA810444EA907460
:100AC00010EB800544EB01046D1944EB0404521B48
:100AD000A3414FF0000348BF0A3200D530BD401C8F
:100AE00041F1000130BD00002DE9F0411F460446F0
:100AF00003260168072A01F4006004DB08B116A58B
:100B000005E016A503E008B115A500E015A521F044
:100B100010002060A069C01EA0610FB1401EA0613E
:100B20002046AFF300804FB1D4E901213846904709
:100B3000206A401C2062C01C206206E0206AFAE79E
:100B4000D4E9012115F8010B9047761EF8D2204612
:100B5000AFF30080BDE8F0814E414E006E616E0043
:100B6000494E4600696E66002DE9F04781461646FB
:100B70008AB0354878440DC88DE80D003248784475
:100B8000801C03AC0DC884E80D0041F69B3008447E
:100B9000372190FBF1F290FBF1F5A5F1800501FB07
:100BA00012041B3C02D56442012000E00020DFF863
:100BB00098A080460027FA44AAF1BE0A0EE0E0079A
:100BC0000AD03246684607EB470101230AEB810150
:100BD00002F08FF88DE8070064107F1C002CEED126
:100BE000194F7F44AE3F19E0E80715D007EB04101A
:100BF0000DF1180A90E80E008AE80E00C068F04275
:100C000001D1981908903246012306A903A802F0E1
:100C100070F803AB83E807006D10641C002DE3D16E
:100C20004FF0010332466946B8F1000F03A802D025
:100C300002F04AF801E002F05CF8C9E90001C9F8E5
:100C400008200AB0BDE8F087BC4B000000487047A0
:100C5000100000207546FFF7F9FFAE460500694613
:100C6000534620F00700854618B020B5FFF72EFB4D
:100C7000BDE820404FF000064FF000074FF000089D
:100C80004FF0000BAC46ACE8C009ACE8C009ACE8DA
:100C9000C009ACE8C00921F007018D46704710B5C6
:100CA0000446AFF300802046BDE81040FFF7F9BAD4
:100CB00030B44FF0013C50F8042B51F8043BCCFA0F
:100CC00052F4D51A20D1FCB950F8042B51F8043B4A
:100CD000CCFA52F4D51A17D1B4B950F8042B51F804
:100CE000043BCCFA52F4D51A0ED16CB950F8042B4F
:100CF00051F8043BCCFA52F4D51A05D1002CDAD0C5
:100D000030BC4FF00000704729BAB1FA81F111F000
:100D10001801D1F120008440F2D1CA40CB4012F03A
:100D2000FF0213F0FF0330BCD01A704701491820AE
:100D3000ABBEFEE72600020070470000FEE70000A1
:100D40007047000043F61440C4F2010000688004BC
:100D500058BF704710B540F20044C4F20204204668
:100D6000012100F09FF920460121012200F0A2F9A3
:100D70004FF40050BDE8104000F0B2B84379012BA9
:100D80004FF0020320D010B50371036802F0100E7B
:100D9000D3F800C0D1E9001440F6FE7202FA0EF258
:100DA00021432CEA020201FA0EF111431960C0211D
:100DB0001A6801FA0EF122EA0101196001210023EB
:100DC00001714371BDE8104018467047002804BF08
:100DD0000120704710B50446007920B900206071E9
:100DE000204600F007F80220207100200121206138
:100DF000217110BD80B586B047F200410068C4F291
:100E00000001002288420592049201D006B080BD04
:100E100043F630000092C4F20200036943F000532D
:100E20000361036903F000530093009B0092036881
:100E300043F001030360006800F001000090009897
:100E4000102001900320CDE9020201F5C63001A96E
:100E500000F052F806B080BD81B04FF0000CCDF824
:100E600000C00068002900900098104414BF14309E
:100E700008300090009900200B6001B0704700001E
:100E80004279012A4FF0020226D010B502710268A1
:100E900001F0100E4FF0010C14680CFA0EF323430E
:100EA0001360D2F800C049B13C230CF4701103FA6E
:100EB0000EF399420AD1022105E000BF0CF03C017B
:100EC0003C2903D1012153681943516001210022BB
:100ED00001714271BDE81040104670477047000034
:100EE00043F61441C4F201010A68024214BF0860CB
:100EF0007047FFF7F3BF00002DE9F04F82B000F11B
:100F00003E4707F1FF77860546EA972741F6000638
:100F1000C4F20206072243F6004EB04208BF062282
:100F2000C4F2010E062F38BF3A46002600274FF0C4
:100F30000008009209E000BF08F101080237B8F18B
:100F4000100F06F1040600F0A3800D68012202FADA
:100F500008F415EA0409EFD0D1F804B003220BF02D
:100F6000030CACF10105BA40012D6FEA020A0FD85B
:100F70008268CD6802EA0A02BD402A438260426864
:100F8000A243CBF3001404FA08F42243426005E0C4
:100F9000BCF1030F02D14FF0030C1EE0C2688C6855
:100FA00002EA0A02BC402243BCF1020FC26014D123
:100FB0006FF0030202EA58020244D2F820C006F0A1
:100FC0001C040F230D69A3402CEA0303A5402B4307
:100FD0001362D1F804B00BF0030C02680CFA07F3AB
:100FE00002EA0A021A431BF4403F0260A4D0002226
:100FF00043F644030192C4F202031A684FF6084C08
:1010000042F480421A601A68CFF6FF7C02F48042F4
:101010000192019A28F00302724452F80C3006F053
:101020000C050F24AC40A343009C04FA05F52B43A8
:1010300042F80C30DEF808204B6842EA090543F616
:101040000C4CDC0258BF22EA0905CEF80850C4F265
:10105000010CDCF800209C0242EA090558BF22EA94
:101060000905CCF80050DEF804209C0342EA09058B
:1010700058BF22EA0905CEF80450DEF80020DB0351
:1010800042EA090558BF22EA0905CEF8005053E7A5
:1010900002B0BDE8F08F00000069084018BF0120D1
:1010A00070470000426902EA0103914341EA0341AB
:1010B00081617047002A08BF090481617047000000
:1010C00040F6E020C2F200000068704740F20000E5
:1010D00040F6E021C2F20000C2F2000100780A6886
:1010E000104408607047000080B543F60040C4F229
:1010F0000200016841F400710160016841F48061FF
:101100000160016841F480710160032000F086F8FD
:10111000002000F005F800F027F8002080BD000056
:1011200070B540F20006C2F2000640F208013278C3
:10113000C2F200014FF47A730968B3FBF2F204467D
:10114000B1FBF2F1084600F095FB0F2C4FF00105C2
:1011500008D838B94FF0FF3021460022002500F0B2
:1011600031F87460284670BD82B0002043F640011B
:101170000190C4F202014A6842F480424A604A681F
:1011800002F480420192019A0090086840F0805079
:101190000860086800F080500090009802B0704726
:1011A000002848BF704700F01F01012202FA01F138
:1011B0001C2202EAD0004EF20012CEF20002815050
:1011C0007047000010B54EF60C5CCEF2000CDCF857
:1011D0000030C3F3022E8EF00704042C28BF042431
:1011E000BEF103034FF0FF3E0EFA04F438BF0023B4
:1011F000A14399400EFA03F39A43114300F00F0202
:1012000000F160430901043A03F564436244002895
:1012100048BF02F10C03197010BD00004EF60C51CE
:10122000CEF200010A684FF6FF031A4060F30A226B
:1012300042F0806040F0FD7008607047002804BFF5
:10124000012070472DE9F04143F60808C4F2020876
:101250000446D8F8F8030D4600F00F00884207D284
:1012600088F8F853D8F8F80300F00F00A84277D1B7
:101270002068810717D5410705D5D8F8001041F43B
:10128000E051C8F80010010705D5D8F8001041F466
:101290006041C8F80010D8F80010A26821F0F001F1
:1012A0001143C8F80010C00740D1D8F8F80300F087
:1012B0000F00A84207D988F8F853D8F8F80300F0CF
:1012C0000F00A8424CD12068410707D5D8F800107C
:1012D000E26821F4E0511143C8F80010000708D576
:1012E000D8F80000216920F4604040EAC100C8F845
:1012F000000000F07DF8D8F8001045F24C72C1F300
:101300000311C0F60002515C40F2080220FA01F11C
:1013100040F20400C2F200000068C2F20002116054
:10132000FFF7FEFE0020BDE8F08100BF6068811E6F
:10133000022907D258F8081C89015CBF0120BDE8CA
:10134000F08111E0012807D158F8081C89035CBF1F
:101350000120BDE8F08107E058F8081C890703D494
:101360000120BDE8F08100BFD8F8001021F0030192
:101370000843C8F80000FFF7A3FE064641F288378D
:10138000D8F80000616800F00C00B0EB810F8CD041
:10139000FFF796FE801BB842F2D90320BDE8F0812A
:1013A00040F2080043F60801C2F20000C4F2020154
:1013B0000068096845F25C72C1F38221C0F6000240
:1013C000515CC8407047000040F2080043F6080135
:1013D000C2F20000C4F202010068096845F25C72C2
:1013E000C1F34231C0F60002515CC84070470000B2
:1013F00010B543F60404C4F202046068C0F381012E
:1014000042F20040C0F2F400DFE801F042020818A6
:1014100041F20020C0F27A0010BD00BF216801F047
:101420003F02216823684902C3F3881116D4A1FB47
:1014300000010023FEF75CFF17E000BF216801F008
:101440003F02216823684902C3F3881114D4A1FB29
:1014500000010023FEF74CFF15E000BF41F2002021
:10146000C0F27A004843B0FBF2F021680222C1F3D7
:10147000014102EB410109E041F20020C0F27A0093
:101480004843B0FBF2F02168C1F30271B0FBF1F008
:1014900010BD0000002804BF012070472DE9F04175
:1014A00082B00446007843F60006C007C4F2020684
:1014B0000CD0B06800F00C00042840F0898030683F
:1014C000800303D56068002800F0508120788007F1
:1014D00023D5B06810F00C0F11D0B06800F00C00EC
:1014E000082802D17068400209D5B06800F00C00ED
:1014F0000C2840F09F807068400200F19B803068AB
:10150000800703D5E068012840F030813068216908
:1015100020F0F80040EAC10030602078000713D4C2
:10152000207840072AD4A569002D00F01A81B06800
:1015300000F00C00082840F0AB80012D40F0E8805E
:10154000012002B0BDE8F0816069002840F200008F
:10155000C4F2472000F088800121C0F8801EFFF708
:10156000AFFD0546706F8007DAD4FFF7A9FD401B79
:101570000228F7D9032002B0BDE8F081306C5FEAA1
:10158000C0080AD400200190306C40F080503064D4
:10159000306C00F080500190019847F20007C4F2CF
:1015A00000073868C00537D4386840F48070386068
:1015B000FFF786FD054600BF3868C0052CD4FFF74D
:1015C0007FFD401B0228F7D9032002B0BDE8F0815F
:1015D000B06800F00C00082803D1706840023FF5A5
:1015E0006EAFB06800F00C000C2803D170684002A8
:1015F0003FF565AF6068B0F5803F07D0B0F5A02F2C
:1016000040F0CC80306840F480203060306840F496
:1016100080303060CCE000BFA068012805D00528EC
:1016200058D1306F40F004003067306F40F0010057
:1016300030675AE0E068002800F09C800020C4F287
:10164000472001210160FFF73BFD05463068800718
:101650003FF55CAFFFF734FD401B02284FF003005D
:10166000F4D902B0BDE8F0810021C0F8801EFFF778
:1016700027FD0546706F80077FF552AFFFF720FD0D
:10168000401B0228F6D9032002B0BDE8F08100BF5C
:101690000027C4F2472700203866FFF711FD022D0E
:1016A00005460BD13068800140F19480FFF708FDBA
:1016B000401B02284FF00300F4D9D2E730688001C4
:1016C0004FD5FFF7FDFC401B02284FF00300F5D972
:1016D000C7E700BF316F002821F001013167316F8A
:1016E00021F00401316700F09980FFF7E9FC05461D
:1016F00041F28837306F800700F1A280FFF7E0FCED
:10170000401BB842F6D9032002B0BDE8F08100BF0B
:101710007068E16900F480028A4227D1216A00F0F2
:101720003F028A4222D147F6C071626A0140B1EBA2
:10173000821F1BD1A16A4FF6FF73C903994300F4BE
:101740004032A1F580318A4210D1E16A00F0706226
:10175000B2EB016F0AD1216B00F0E040B0EB017FEA
:1017600004D1002002B0BDE8F08100BF012002B02A
:10177000BDE8F0810020C4F2472000210160FFF79E
:101780009FFC0546306880077FF5C7AEFFF798FCE1
:10179000401B02284FF00300F4D962E731680028AB
:1017A00021F480313160316821F48021316051D0E1
:1017B000FFF786FC054600BF306880033FF586AE24
:1017C000FFF77EFC401B6428F6D9032002B0BDE879
:1017D000F08100BF04F11C052FCD246B084340EAC3
:1017E0008210D9034FF6FF729143A1F5803140EA90
:1017F0000560084340EA0470706001203866FFF716
:101800005FFC044630688001ABD4FFF759FC001B35
:1018100002284FF00300F5D923E700BFFFF750FC83
:10182000054641F2883700BF306F800708D5FFF7C3
:1018300047FC401BB8424FF00300F5D911E700BF49
:10184000B8F1000F3FF56FAE306C20F0805030647F
:1018500069E600BFFFF734FC054600BF306880032F
:101860007FF534AEFFF72CFC401B64284FF00300DB
:10187000F4D9F6E6411E0020B0EB116F1CBF012029
:1018800070474EF21002CEF2000251604EF6235124
:10189000CEF20001F0230B700721906011607047B9
:1018A00090F83C20012A4FF0020254D010B580F885
:1018B0003D200268D2F804E0D2F808C00C682EF08F
:1018C0007003234341F2FF74C4F20004A242536048
:1018D0000EDC40F2FF73C4F200039A4216DCB2F150
:1018E000804F2BD040F20043C4F2000324E000BF3D
:1018F00040F2FF33C4F201039A4213DC41F60003C5
:10190000C4F200039A4219D0002313E040F600030A
:10191000C4F200039A4211D040F60043C4F200031F
:101920000AE000BF44F20003C4F201039A4205D06A
:1019300040F20043C4F201039A4204D149682CF0FA
:101940008003194391600121002280F83D1080F846
:101950003C20BDE81040104670470000002804BF3E
:101960000120704710B5044690F83D0028B90020CA
:1019700084F83C00204600F01FF8022084F83D0067
:101980002068211D00F0B0FB012084F8460084F897
:101990003E0084F83F0084F8400084F8410084F859
:1019A000420084F8430084F8440084F8450084F839
:1019B0003D00002010BD0000006841F20001C4F2AB
:1019C0000001884218BF704781B00020009043F6A4
:1019D0004000C4F20200016841F01001016000689B
:1019E00000F010000090009801B0704790F83D1092
:1019F00001291CBF01207047022180F83D100068BA
:101A000041F2FF71C4F2000188420DDC40F2FF7127
:101A1000C4F20001884215DCB0F1804F2AD040F2B8
:101A20000041C4F2000123E040F2FF31C4F20101A1
:101A3000884213DC41F60001C4F20001884219D04B
:101A4000002113E040F60001C4F20001884211D0E9
:101A500040F60041C4F200010AE000BF44F2000178
:101A6000C4F20101884205D040F20041C4F20101F4
:101A7000884206D1816801F00701062904BF0020D1
:101A80007047016841F001010160002070470000CB
:101A9000002804BF0120704770B5044690F83D004F
:101AA00028B9002084F83C00204600F06FF802209E
:101AB00084F83D002068D4E902C2D4F810E0C5687B
:101AC00004F1180625F00C05C56005694ACE25F419
:101AD0007C55294319433143114341F400610161AD
:101AE000C16849F20C629143626941EA0C0141EA22
:101AF0000E01114341F40041C160416941F20043CC
:101B000040F48062C4F2010321F440719A424161C1
:101B100002D1FFF759FC01E0FFF742FCD4E9005382
:101B20001921A0FB01015A00DB0FFEF7E1FB48F28F
:101B30001F51C5F2EB11A0FB01235A094FF69C730C
:101B4000C1F6FF7302FB0300322303EBC000A0FBCE
:101B500001014FF4F87000EA111000EB0210C1F31C
:101B600042110844A8602869012120F480402861BE
:101B7000686920F02A006861E86840F40050E86075
:101B80000020206484F83D1070BD00002DE9F04372
:101B900085B0006844F60005C4F20005A84203D0F1
:101BA00005B0BDE8F08300BF002643F63000009684
:101BB000C4F2020001696C4641F4802101610169AF
:101BC0004FF0020801F4802100910099009601680D
:101BD0004FF0030941F0020101600168072701F09D
:101BE0000201009100990096016841F0080101602E
:101BF0000068214600F00800009000984FF48050E3
:101C0000009005F5DE30CDE90186CDF80C90049703
:101C1000FFF772F94FF44070CDE9000805F5E230A6
:101C20002146CDE902690497FFF766F905B0BDE8E2
:101C3000F08300002DE9F041044690F83D000128B2
:101C40000ED10D4600294FF0010000F0C480164669
:101C5000002A08BFBDE8F08194F83C00012803D1B8
:101C60000220BDE8F08100BF012084F83C00002084
:101C700020641220984684F83D00FFF721FA26855B
:101C80006685A1680646B1F5805F02D1206900280B
:101C900060D02F460025608D00285FD018F101002C
:101CA00018D0B8F1000F37D121680BE035F8020BDE
:101CB00000276FF35F204860608D01386085608D7C
:101CC00000284CD0086800066ED5002FEED017F81B
:101CD000010BF0E7216802E00868000609D40868F3
:101CE000000606D4086800065CBF08685FEA00606A
:101CF000F2D51FB117F8010B05E000BF35F8020B54
:101D000000276FF35F204860608D01386085608D2B
:101D10000028E4D123E000BF216800BF0868000666
:101D200006D4FFF7CDF9801B21684045F6D93BE08A
:101D300017B117F8010B04E035F8020B00276FF319
:101D40005F204860608D01386085608D0028E5D196
:101D500005E000BF0027608D00289FD1216808683A
:101D600040061ED4B8F1000F1ED018F101000FD1AB
:101D70000868400615D4086840065CBF08685FEA3A
:101D800040600ED4086840064FF00000F0D51CE01B
:101D9000FFF796F9801B2168404505D80868400682
:101DA000F6D5002011E000BFC86820F08000C860B0
:101DB000C86820F02000C860C86820F48070C8603F
:101DC000486920F0010048610320012184F83D109A
:101DD000002184F83C10BDE8F0810000FEE700001F
:101DE00080B582B00020CDE9000040F2700047F2DB
:101DF0000041C2F20000C4F200010160FEF7E6FFFC
:101E000020B1EFF3108072B6FEE700BF40F2700021
:101E1000C2F2000069460022FEF7B0FF20B1EFF3E6
:101E2000108072B6FEE700BF02B080BD2DE9F0471A
:101E300086B0002743F63000CDE904770097C4F25E
:101E40000200016841F6000A41F0040101600168E6
:101E5000C4F2020A01F004010091009900970168A0
:101E6000AAF5A05641F0800101600168002201F04E
:101E70008001009100990097016844F2810841F0C7
:101E800001010160016801F00101009100990097D2
:101E9000016841F002010160016801F00201009156
:101EA00000990097016841F008010160016801F0A4
:101EB0000801009100990097016841F0400101601C
:101EC000006844F2810100F0400000900098304624
:101ED000FFF7F0F85046402100224FF04009FFF78D
:101EE000E9F84FF4005001904FF4881001ADCDE9AE
:101EF0000207AAF580502946FEF7FEFF012430466E
:101F00002946CDF80480CDE902470497FEF7F4FF97
:101F100050462946CDE90194CDE90377FEF7ECFF61
:101F20008020CDE90107504629460397FEF7E4FFDC
:101F30004FF4E85001900220CDE9020703200490FD
:101F40000A20AAF5C054059020462946FEF7D4FF82
:101F50004FF40070CDE90107204629460397FEF7AC
:101F6000CBFF282000210022FFF72CF92820FFF7C3
:101F700017F906B0BDE8F08780B582B040F2840062
:101F800041F200020021C2F20000C4F200024FF64A
:101F9000FF73CDE90011C0E90021C0E9021381619E
:101FA000FFF7DCFC20B1EFF3108072B6FEE700BF54
:101FB00040F28400C2F200006946FFF771FC28B1CC
:101FC000EFF3108072B600BFFEE700BF02B080BD25
:101FD00080B540F2CC0044F60001C2F20000C4F229
:101FE000000100234FF00C0C4FF4E13280E80E00AA
:101FF000C0E90333C0E905C3C0E90733FFF748FD73
:10200000002808BF80BDEFF3108072B6FEE7000025
:10201000FEE70000FEE70000704700007047000088
:10202000FFF754B8B0B594B0002443F640000C94C8
:10203000CDE90A44CDE908440694CDE90444CDE94C
:1020400002440194C4F202000168012241F080516F
:1020500001600068022500F080500190019847F26D
:1020600000000194C4F20000016862F38F31016046
:10207000006800F440400190019810200B90082067
:102080000F906420CDE9100507A807950A92CDE9C5
:102090000D54CDE91255FFF7FDF928B1EFF310808B
:1020A00072B600BFFEE700BF0F20CDE902054FF476
:1020B000A05005904FF48050069002A8032104948C
:1020C000FFF7BCF820B1EFF3108072B6FEE700BF57
:1020D00014B0B0BD4EF68850CEF20000016841F455
:1020E000700101607047000010B540F6FF3E0368C4
:1020F000C4F2000E40F2004C7045C4F2010C27DC23
:10210000B0F1804F31D040F20042C4F20002904260
:102110002BD040F60002C4F20002904225D041F6D6
:10212000FF72C4F20002904229DC70453CDCB0F141
:10213000804F5FD040F20042C4F20002904259D07A
:1021400040F60002C4F20002904253D056E000BFB5
:1021500040F60042C4F20002904206D0604504D02E
:102160000022C4F201029042D9D14A6823F07003E0
:10217000134341F6FF72C4F200029042D5DD43F6EC
:10218000FF72C4F20102904222DC42F20002C4F269
:10219000000290422ED00022C4F20102904229D0C7
:1021A000604527D02AE000BF40F60042C4F200029A
:1021B00090421FD041F60002C4F20002904219D0B2
:1021C00041F60042C4F20002904213D016E000BF74
:1021D00044F20002C4F2010290420BD044F6000225
:1021E000C4F20102904205D044F20042C4F201025E
:1021F000904203D1CA6823F44073134323F0800252
:102200004B69D1F800E08C681A430260C46240F464
:102210008062C0F828E0624504BF096901630121BA
:10222000416110BDFEE700002DE9F04F81B02DEDBA
:10223000108BA6B09FEDC60B804620F001009FEDED
:10224000C61B089050EC10BB9FEDBFEBDFEDD2CA70
:10225000079051EC110B9FEDC28B9FEDC3DB9FEDFF
:10226000C6FB9FEDCBBBCDE902104FEAC8700190D1
:10227000CDE904B813E000BF51EC1E0B53EC1B2B4F
:1022800002F0F6F902F0C2F903F010F8079B5A4683
:1022900041EC1E0B03F058F8002800F04D81B8F116
:1022A000010FB0EE6CCAC0F20281079B51EC1E0B0D
:1022B0005A4602F099FADDE9023202F0FDFC02F022
:1022C00029FC4AF2F371C3F22D4150FB01F1CA110E
:1022D00002EBD1714FF41D7201FB1201002948BFBE
:1022E00001F51D71B8F1010F069103D10024B0EE84
:1022F0006CCA97E001EB410080000B90080140F2AE
:10230000101B9FED919B0A90880000244FF0030959
:10231000C2F2000BB0EE6CCA099000BFB0EE480AE2
:10232000B0EE491AF0EE680AF0EE691A0C9400F06B
:102330002FFEB0EE40AAA9F10200F0EE60AA02F072
:1023400018FC02460B4602F0B7FC02460B4651EC65
:102350001A0B02F049FA044609980D465BF8000092
:1023600002F0A4FF06461CEE100A0F4602F09EFF84
:10237000824688462046294632463B4602F09CFC6F
:102380005246434602F074F902F040F982460C9836
:10239000013002F0EEFB41EC110BB0EE480AF0EE1A
:1023A000680A00F0F5FDB0EE40AA4846F0EE60AADB
:1023B00002F0DFFB02460B4602F07EFC02460B46B3
:1023C00051EC1A0B02F010FA04460B980D465BF81C
:1023D000000002F06BFF064650460F4602F066FF13
:1023E00080468A4620460C9C294632463B4602F0EF
:1023F00063FC4246534602F03BF902F007F90CEE4B
:10240000100A51EC190B53EC1D2B02F031F941EC81
:10241000190B0A9802348344089809F10409A04270
:102420007FF47CAF0198DDE904B800283FD0204656
:1024300002F09FFB41EC110BB0EE480AF0EE680A87
:1024400000F0A6FD6000471CB0EE409A3846F0EE62
:10245000609A02F08EFB02460B4602F02DFC02460B
:102460000B4651EC190B02F0BFF90546069840F2F5
:1024700010127843C2F2000252F820000E4602F019
:1024800015FF07461CEE100A0C4602F00FFF8146AE
:102490008A46284631463A46234602F00DFC4A4613
:1024A000534602F0E5F802F0B1F80CEE100A1CEE0B
:1024B000100A02F0FBFE9FED2E0B53EC102B02F0E6
:1024C000FBFB53EC1F2B02F0D3F802F09FF80646FB
:1024D00002F0ECFE07460D460DA830A13A462B4609
:1024E000FDF77EFF26F00040B0F1FF4F3FF7C4AE8E
:1024F00000EE106AB1EE041AB4EE410AF1EE10FAE1
:102500003FF7BAAE9FED1E0B384653EC102B294611
:1025100002F0AEF89FED1C0B53EC102B02F0CCFB3D
:1025200002F0F8FA034640F27000C2F20000002107
:102530000022FEF791FC9FE626B0BDEC108B01B0A7
:10254000BDE8F08F00BF00BF0000000000000000E9
:102550001F85EB51B81E19400000000000A0834009
:10256000000000000000F0BF00000000000000407C
:1025700020C45C3CECF6D93F000000000000E03FC6
:10258000000000000000F03F000000000000A0403C
:102590007B14AE47E17A843F0000000074726961E9
:1025A0006E676C6520776176652076616C3A2025D0
:1025B000660A0000000000008CB040F20048C4F23F
:1025C0000208FEF791FDFFF72DFDFFF72FFCFFF747
:1025D00007FCFFF7D1FCFFF7FBFC40F27004C2F2EE
:1025E00000042046FEF7F2FB204600214FF00009D0
:1025F000FEF746FC40F28400C2F20000016840F29F
:10260000FF328A62FFF7F2F942F66E60C0F20A000A
:102610000A9047F27540C6F66970099047F6450082
:10262000C6F26530089046F24E50C2F2770007902D
:1026300007A800F0BDF89FED560B40F2101057ECC4
:10264000104B9FED550BC2F200009FED4F8B1038E1
:1026500056EC105B009015E0DDF804904046012137
:10266000002209F10109FEF725FD0DF1080A504687
:102670004BA14A46FDF7B4FE504600F099F8484693
:10268000FFF7D2FD40468021CDF80490FEF70AFD09
:10269000DDF80090B0EE480A4FF0030AF0EE680A49
:1026A0005BEC108B4046594622463B4602F004FB49
:1026B00001F0ACFF02F0FAFD41EC100B01F098FACA
:1026C00051EC100B01F0A2FF49F8100FAAF1020023
:1026D00002F04FFA22463B4602F0EEFA01F096FF76
:1026E00002F0E4FD41EC100B01F082FA51EC100B0A
:1026F00001F08CFFC9F80400AAF1010002F039FAD8
:1027000022463B4602F0D8FA01F080FF02F0CEFDEF
:1027100041EC100B01F06CFA51EC100B01F076FF5C
:10272000C9F80800504602F024FA22463B4602F05F
:10273000C3FA01F06BFF02F0B9FD41EC100B01F0A0
:1027400057FA51EC100B01F061FFC9F80C0040463C
:1027500059462A46334640F2772801F089FF41EC7A
:10276000100B0AF1040AC2459AD140F20048C4F2A3
:10277000020840460121FEF78FFC01283FF46CAFB0
:10278000DDF8049071E700BF0000000000000000C9
:102790000A07E3E93D83843F000000000000104089
:1027A0006E756D7465726D732069732025640A00FF
:1027B00010B50446FDF798FE82B240F2CC00C2F29A
:1027C000000021466423BDE81040FFF733BA5FEAFA
:1027D000400C08BF91F0000F4FEA8C234FEAC12252
:1027E00043EA51514FEA1C5018BF00F5F0404FEA40
:1027F000300018BF41F000415FEA6C5C00F02980B6
:10280000BCF1FF3F08BF40F080407047130C06BF8B
:1028100012044FF0100C4FF0000C130E04BF120204
:102820000CF1080C130F04BF12010CF1040C930FF0
:1028300004BF92000CF1020CD30F04BF52000CF144
:10284000010C11464FF00002A0F11F00A0EB0C009C
:10285000704711F0004F08BF704731F000413FF45E
:10286000D5AF0B0C06BF09044FF0100C4FF0000C55
:102870000B0E04BF09020CF1080C0B0F04BF090179
:102880000CF1040C8B0F04BF89000CF1020CCB0F70
:1028900004BF49000CF1010CCCF1200322FA03F330
:1028A00041EA030102FA0CF2A0EB0C0000F1010076
:1028B0007047000023F07F4720F07F4C80EA030040
:1028C00000F00040ACEB070303F57C5303F1FF037A
:1028D0002DE9804909B44FEA144324EA03484FEA3A
:1028E000154B25EA0B4E0FF2042606EB13273E7814
:1028F00003FB0667C7F5000707FB06F64FEAD64657
:1029000006F102064FEA543707FB066CCCF1005C77
:102910004FEA1C472CEA074C0CFB06F507FB06F4B4
:1029200004EB15464FEA961649085FEA320234BFB7
:1029300000204FF000404FEAD13706FB07FC4FEA7A
:102940001C4C0CFB0BF7D21B03FB0CF761EB0701D4
:102950000CFB0EF7B0EB074072EB17420CFB08F7CD
:1029600034BFA2EB0742B2EB074261EB17414FEADB
:102970000C444FEA910706FB07FC4FEA1C4C0CFB8A
:102980000BF7B0EBC74072EB573203FB0CF734BFC9
:10299000A2EBC742B2EBC74261EB57310CFB0EF71B
:1029A000B0EBC70072EB57720CFB08F734BFA2EB19
:1029B000C702B2EBC70261EB57714FEA816141EA8E
:1029C00092114FEA826242EA90124FEA806004EB71
:1029D000CC04039F4FEAD13706FB07FC4FEA1C4C9F
:1029E0000CFB0BF7D21B03FB0CF761EB07010CFB95
:1029F0000EF7B0EB074072EB17420CFB08F734BF41
:102A0000A2EB0742B2EB074261EB17414FEA8C554C
:102A100004EB9C244FEA910706FB07FC4FEA1C4C91
:102A20000CFB0BF7B0EBC74072EB573203FB0CF714
:102A300034BFA2EBC742B2EBC74261EB57310CFB8C
:102A40000EF7B0EBC70072EB57720CFB08F734BF00
:102A5000A2EBC702B2EBC70261EB57714FEA81618B
:102A600041EA92114FEA826242EA90124FEA806094
:102A700015EB4C2544F100044FEAD13706FB07FC67
:102A80004FEA1C4C0CFB0BF7D21B03FB0CF761EB62
:102A900007010CFB0EF7B0EB074072EB17420CFB83
:102AA00008F734BFA2EB0742B2EB074261EB1741D4
:102AB0004FEA813141EA92414FEA823242EA904242
:102AC0004FEA80304FEA0C7615EB1C1544F10004F8
:102AD00048EA03434EEA0B484FF0000EB2EB080CF5
:102AE00071EB030724BF624639464EEB0E0E4FF0E2
:102AF000000B0018524149414BEB0B0BB2EB080C99
:102B000071EB03077BF1000B24BF624639464EEBA5
:102B10000E0E4FF0000B0018524149414BEB0B0BCE
:102B2000B2EB080C71EB03077BF1000B24BF62468C
:102B300039464EEB0E0E51EA020718BF46F0010669
:102B400016EB0E7655F1000254F1000103D5BDE8F5
:102B50008901BDE80088BDE88901BDE80048B619D3
:102B6000524141EB0101A3F10103704780807F7E58
:102B70007D7C7B7A797877767675747372717170F3
:102B80006F6E6E6D6C6C6B6A6A69686867666665A5
:102B90006464636362616160605F5F5E5E5D5D5C33
:102BA0005C5B5B5A5A5959585857575656555555A4
:102BB0005454535352525251515050504F4F4F4E04
:102BC0004E4D4D4D4C4C4C4B4B4B4A4A4A49494952
:102BD0004848484747474746464645454544444494
:102BE0004443434343424242424141419C46002BBD
:102BF00030D477002BD04FEA37071CB503B44FF021
:102C000010004FF01001BAF1000F06D0BCF1000F18
:102C1000DCBF40F0080040F008014FF000000FBC9E
:102C2000BDE810400BF1010BBBF1010F08BF5FEADB
:102C3000170722BF12F1010211F101014FF000410B
:102C400043F1000300F0004043EA00007047F9D36D
:102C50005708D0E746EA06464FEA164613F1400FFA
:102C60001FDD13F1200FDFBF16430A46002120337A
:102C70005B42BED0C3F1200746EA06464FEA16463D
:102C800002FA07F746EA070622FA03F2C3F1200721
:102C900001FA07F742EA070221FA03F14FF00003B5
:102CA000A7E746EA020646EA06464FEA164646EA1D
:102CB0000106BCBF46EA0646360C4FF000034FF053
:102CC00000024FF0000194E72DE9804C70B49A4661
:102CD000934691E8380007C831EA400C48BF34EA0F
:102CE000430C03D5FFF7E6FDFFF780FFF0BCBDE81E
:102CF000008C2DE9804C70B49A46934691E83800D8
:102D000007C810F0804F08BF13F0804F03D100F0C8
:102D100005F8FFF76BFFF0BCBDE8008C20F07F47A3
:102D200023F07F4C80EA030000F0004007EB0C0327
:102D3000A3F57C53A3F1FE0392F0000F00F0B380E3
:102D400095F0000F00F077802DE901494FEA11401E
:102D500021EA00484FEA144624EA064700FB06FC35
:102D600008FB06F607FB08F818EB06484CEB164C78
:102D700000FB07F718EB07484CEB17404FEA124BE4
:102D800022EA0B4E4FEA154625EA06470BFB06FCE6
:102D90000EFB06F607FB0EFE1EEB064E4CEB164C2A
:102DA0000BFB07F71EEB074E4CEB174B18EB0B0812
:102DB00040F1000018EB0E0B58EB000840F100004A
:102DC0008F1A4FF000014FF000063CBFC943661B4D
:102DD00014BFB5EB040C00213CBFC943F61B4FEAFE
:102DE000174427EA04454FEA1C472CEA074C04FB2A
:102DF000076205FB07F70CFB05F616EB074642EBEF
:102E0000174204FB0CFC16EB0C4642EB1C421BEB7E
:102E1000060658EB020241414EEA8E0E46EA9E0635
:102E200001D5BDE80189B619524141EB0101A3F179
:102E30000103BDE801894FEA144524EA05464FEA3B
:102E4000114721EA074C05FB07F406FB07F70CFBCB
:102E500006F111EB074144EB174405FB0CFC11EBA9
:102E60000C4144EB1C444FEA124722EA074C05FB95
:102E700007F206FB07F70CFB06F616EB074642EBDC
:102E8000174205FB0CFC16EB0C4642EB1C456A187E
:102E900054F1000148BF7047B619524141EB01019E
:102EA000A3F10103704795F0000F37D04FEA1142AC
:102EB00021EA02464FEA144724EA074C02FB07F1D5
:102EC00006FB07F70CFB06F414EB074441EB174134
:102ED00002FB0CFC14EB0C4441EB1C414FEA154780
:102EE00025EA074C02FB07F506FB07F70CFB06F685
:102EF00016EB074645EB174502FB0CFC16EB0C46A0
:102F000045EB1C42121951F1000148BF7047B61938
:102F1000524141EB0101A3F1010370474FEA14450F
:102F200024EA05464FEA114721EA074C05FB07F161
:102F300006FB07F70CFB06F212EB074241EB1741C9
:102F400005FB0CFC12EB0C4251EB1C414FF0000650
:102F500048BF7047921841EB0101A3F1010370478C
:102F600003B401984100009850EAC12018BF042022
:102F70004A0D18BF40F0010040F2FF72B2EB515F02
:102F800008BF40F00200012808BF052002B07047CA
:102F90002DE9F04D2DED040B2DED0E8B94B0DDE9F8
:102FA0002350259CDDF888A025F0004624F0004839
:102FB000BAF1000F14BF0121002101EB4502FC49C9
:102FC00053184A1093422AD3002814BF0123002328
:102FD00003EB44030B44F7498B4220D358EA00012A
:102FE0009FEDF5AB76D0DFF8D8B35D4503D1BAF1EC
:102FF000000F05D188E0BAF1000F08BF002100D012
:10300000012101EB450111F5001F08D8002814BF6C
:103010000121002101EB440111F5001F0BD99DEDA9
:10302000241B9DED220B14B0BDEC0E8B04B0BDE84B
:10303000F04D01F04BBA0027002DBCBFE149884597
:1030400021DAE1498845A8BF02271CDAC3451ADC0A
:10305000DE4901EB2851142908DDC1F1340220FAC0
:1030600002F101FA02F282420DD108E058B9C1F131
:10307000140228FA02F101FA02F2424503D101F0EA
:103080000101C1F1020756EA0A0124D1002C22DA1B
:10309000002D18BF022F01D0012F0AD00220FDF70A
:1030A0004AFA14B0BDEC0E8B04B0BDE8F04D01F04F
:1030B000EBB90220FDF73FFA01F0E6F951EC100BF5
:1030C00001F098FA41EC100B14B0BDEC0E8B04B07B
:1030D000BDE8F08D18E09FEDBE9B9FEDBF8B0028F3
:1030E00071D1B848804522D105F1804010F580109B
:1030F00008BFBAF1000F07D0B3450ADC002CA8BF07
:103100009DED240BE0DA0DE0B0EE4A0AF0EE6A0A1B
:10311000DAE7002C06DA9DED240B51EC100B01F0E0
:1031200069FA6FE0AE48784490ED000BCCE7D845E3
:103130004DD1002C48DA2EB186423AD1BAF1000FB7
:1031400042D126E0BAF1000F13D00220FDF7F3F9C7
:1031500001F0D6F98DED020B9DED220B8DED000BEC
:1031600010EE900A039961F31E0003909DED020B8F
:10317000AAE78DED029B9DED220B19EE901A10EE41
:10318000900A8DED000B61F31E0003909DED020B84
:103190009AE78DED028B9DED220B18EE901A10EE42
:1031A000900A8DED000B61F31E0003909DED020B64
:1031B0008AE709DA9DED220B51EC1A0B53EC102B28
:1031C00001F012FB1EE020E09DED220B7CE7864221
:1031D0001BDAB4F1804F0DD0A4F10050B0F1FF50D4
:1031E00013D1002D11DB9DED220B51EC100B01F0E2
:1031F000B3F907E09DED220B53EC102B51EC100BB3
:1032000000F0CABC41EC100B5EE79DED220B51ECC7
:10321000100B01F095F9BAF1000FCDE90A0142D186
:103220009FED710B46B3A6F1E040B0F17F600CD08A
:103230005E4538D1002D00DAA7B3022F0CBF012064
:103240004FF0FF3001F095FCDCE7002D01DD002C94
:103250000DDA002D01DD002C1FDB002D16DA002C0D
:1032600014DB012F08BF9FED620B3FF42DAFB0EED2
:10327000490AF0EE690A27E7022F18BF002D0CD08B
:10328000012F0AD1002DFFF61FAF06E0002DB8BFB9
:10329000002C08DA012F3FF417AFB0EE480AF0EE29
:1032A000680A11E71BE0012000EBE57050EA070116
:1032B00015D0791EB0EE4A8AF0EE6A8A084308BF3C
:1032C0009FED4D8B4E480025804570DD4D494E48A1
:1032D000884514DDB0420DDB002C19DB2FE0012006
:1032E000FDF729F914B0BDEC0E8B04B0BDE8F04D2C
:1032F00001F0F6B8B34502DC002C09DC1FE0864281
:1033000002DA002C1BDA03E05E452BDD002C16DD13
:103310000220FDF710F901F0F3F88DED020B53ECEC
:10332000192B51EC180B01F0C7FCCDE900010399F2
:10333000019861F31E0003909DED020BC4E602208C
:10334000FDF7F9F801F0ECF810EE901A18EE900A7B
:103350008DED020B8DED008B61F31E0003909DED52
:10336000020BB1E69DED0A0B53EC1A2B51EC100B3E
:1033700001F0AEFE9FED260BCDE90A0153EC102BB8
:103380009DED0A0B51EC100B01F096FC9FED221BFA
:1033900053EC112B01F0C4FD9DED0A1B53EC112BD6
:1033A00001F08AFC9FED1E1B53EC112B3CE08CE0DE
:1033B000FFFF1F00FFFF0F00000000000000F03FB4
:1033C0000000F03F0000F07F0000404301FCFFFFE1
:1033D000000000000000F07F00000000000000007E
:1033E0008E240000000000000000000000000080AB
:1033F000000000000000F0FF000000000000F0BF2F
:103400000000E0410000F043FFFFEF3F000000003C
:10341000000000000000D03F555555555555D53F8B
:10342000000000000000E03F01F07AFD9DED0A0B76
:1034300041EC190B53EC102B51EC100B01F03CFC40
:1034400053EC192B01F038FC9DED0A0B41EC1B0BE2
:1034500053EC102B9FEDFE0B51EC100B01F02CFCEC
:1034600041EC190B9FEDFC0B51EC1B0B53EC102B9B
:1034700001F022FC41EC1B0B9FEDF90B53EC102BE0
:103480009DED0A0B51EC100B01F016FC53EC1B2BBD
:1034900001F01EFE41EC1B0B51EC190B53EC1B2BE6
:1034A00001F0E6F80490CDE904519DED040B53ECD6
:1034B000192B51EC100B01F00BFE53EC1B2B01F000
:1034C0002FFD41EC100B00F0A9B90020B6F5801FCC
:1034D0000EDA9FEDE50B53EC102B9DED0A0B51EC32
:1034E000100B01F0E9FBCDE90A016FF034000E4644
:1034F00000EB2650A0F2FF37C6F31300DC4940F082
:103500007F6646F040568842D8BF002408DDD9497E
:103510008142C8BF012403DC0024A6F580167F1C6D
:10352000D548784400EBC4080B9698ED000B53EC9B
:10353000102B9DED0A0B51EC100B01F0C9FD98ED1D
:10354000000B41EC1B0B53EC102B9DED0A0B51ECC7
:10355000100B01F08DF841EC100B51EC1A0B53ECF1
:10356000102B01F041F941EC1C0B51EC1B0B53ECFF
:103570001C2B01F0A1FB41EC190BC0488DED0E9BFB
:1035800078440E9590ED000B4FF0005040EA660035
:1035900000EB84408DED120B00F50020139098EDA8
:1035A000000B53EC102B9DED120B51EC100B01F0A6
:1035B0008FFD9DED0A1B53EC112B01F0B1FC41EC8A
:1035C000100B53EC102B9DED0E0B51EC100B01F07A
:1035D00073FB9DED120B41EC1D0B53EC102B9DED7D
:1035E0000E0B51EC100B01F067FB53EC1B2B01F0A1
:1035F00097FC53EC1D2B01F06BFD53EC1C2B01F0E1
:103600005BFB41EC1C0B53EC192B51EC190B01F03B
:1036100053FB41EC1B0B9A480621B0EE4B0AF0EE2F
:103620006B0A784400F01CFEB0EE401AF0EE601A0F
:10363000B0EE41DAF0EE61DA53EC1B2B51EC1B0BD0
:1036400001F03AFB53EC1D2B01F036FB9DED0E0B08
:1036500041EC1B0B53EC192B51EC100B01F008F84B
:1036600053EC1C2B01F028FB53EC1B2B01F000F852
:103670009DED0E0B41EC1B0B53EC102B51EC100B82
:1036800001F01AFB41EC1D0B53EC1D2B9FED7EEB63
:1036900051EC1E0B00F0ECFF53EC1B2B00F0E8FF8D
:1036A0001290CDE912519DED120B53EC1E2B51ECF3
:1036B000100B01F00DFD53EC1D2B01F009FD53EC37
:1036C0001B2B01F02DFC9DED120B41EC1D0B53EC5F
:1036D000102B9DED0E0B51EC100B01F0EDFA41ECAF
:1036E0001B0B53EC192B51EC1D0B01F0E5FA9DED72
:1036F000120B41EC190B53EC102B51EC1C0B01F08D
:10370000DBFA53EC192B00F0B3FF41EC190B51EC31
:103710001B0B53EC192B00F0ABFF0490CDE90451C7
:103720009DED040B53EC1B2B51EC100B01F0D0FC66
:1037300053EC192B01F0F4FB9DED040B41EC190B3C
:1037400053EC102B9FED520B51EC100B01F0B4FA1F
:1037500041EC1B0B9FED500B51EC190B53EC102B54
:1037600001F0AAFA9DED040B41EC190B53EC102B60
:103770009FED4B0B51EC100B01F09EFA53EC192B03
:1037800000F076FF41EC100B4748784400EBC40092
:1037900090ED001B51EC100B53EC112B00F068FF67
:1037A00041EC190B384601F0E4F9CDE90A0153EC7C
:1037B000192B51EC1B0B00F05BFF41EC100B3B484D
:1037C000784400EBC40451EC100B94ED001B53EC57
:1037D000112B00F04DFF9DED0A1B53EC112B00F057
:1037E00047FF0490CDE904519DED0A0B53EC102BDB
:1037F0009DED040B51EC100B01F06AFC94ED001BE5
:1038000053EC112B01F064FC53EC1B2B01F060FC1A
:1038100053EC192B01F084FB41EC100B9DED241BA4
:1038200053EC102B8DED001B00959DED240B51ECFE
:10383000100B01F041FA9DED000B41EC190B53EC1C
:10384000102B9DED240B51EC100B01F041FC2FE0EF
:10385000000000604715F73FFE822B654715F73FD4
:1038600044DF5DF80BAE543E000000000000404312
:103870008E9803007AB60B00DA1F00003420000097
:103880000A1F0000000000000000000000000840C7
:10389000000000E009C7EE3FFD033ADC09C7EE3F38
:1038A000F5015B14E02F3EBE921D00004C1D000090
:1038B0009DED041B53EC112B01F0FEF953EC192B79
:1038C00000F0D6FE9DED040B41EC190B53EC102BD0
:1038D0009DED000B51EC100B01F0EEF9CDE9040168
:1038E0009DED040B51EC190B53EC102B00F0C0FEB6
:1038F000CDE902010C46AA498C422FDB611A08432C
:1039000018D19DED040B53EC102B9DED020B51ECE7
:10391000100B01F0DDFB41EC1B0B9FEDA30B51ECF9
:10392000190B53EC102B00F0A3FE53EC1B2B01F0F2
:10393000C1FA2DD20220FCF7FEFD00F0E1FD10EEF1
:10394000901A18EE900A8DED020B8DED008B61F34D
:103950001E0003909DED020BFFF7B6BB944A24F0C6
:103960000041914214D39349214408437FF4E7ACCA
:103970009DED040B53EC102B9DED020B51EC100B45
:1039800001F0A6FB53EC192B01F094FA7FF6D7ACAB
:1039900024F000408849894A002601EB20518242E8
:1039A0002BDA481C4FF4801121FA00F02044844A9D
:1039B000C0F30A517A44A1F2FF3192ED000B814A23
:1039C0008DED0A0BCA4020EA0202C0F3130040F456
:1039D0008010C1F1140120FA01F60B92002CB8BF3F
:1039E00076429DED0A0B53EC102B9DED040B51EC30
:1039F000100B01F06DFBCDE904019DED040B51ECC2
:103A0000190B53EC102B00F033FE9FED6F0B0A9057
:103A1000CDE90A5153EC102B9DED0A0B51EC100B24
:103A200001F04AF941EC1B0B9FED690B53EC102B95
:103A30009DED0A0B51EC100B01F03EF99DED040BCE
:103A400041EC1C0B53EC102B9DED0A0B51EC100BB1
:103A500001F03EFB53EC192B01F062FA9FED5E1B67
:103A600053EC112B01F028F953EC1C2B00F000FE55
:103A700041EC190B51EC1B0B53EC192B00F0F8FD2A
:103A8000CDE902019DED020B53EC1B2B51EC100B09
:103A900001F01EFB53EC192B01F042FA9DED020BD5
:103AA00041EC190B53EC102B51EC100B01F004F905
:103AB000CDE90A014A489DED0A0B0521784400F042
:103AC000CFFB9DED0A1B51EC100B53EC112B01F0B9
:103AD000F3F89DED021B53EC112B01F021FACDE917
:103AE00004019DED020B53EC192B51EC100B01F06E
:103AF000E3F853EC192B00F0BBFD9FED3B0B41ECC1
:103B0000190B53EC102B9DED040B51EC100B01F035
:103B1000DFFA9DED040B41EC1B0B53EC102B9DEDDC
:103B2000020B51EC100B01F0C7F853EC1B2B00F00B
:103B30005BFE53EC192B01F0CBFA9DED021B53EC0D
:103B4000112B01F0C5FA53EC1A2B01F0E9F9CDE97C
:103B5000020101EB065001150029C8BF039015DCD6
:103B60009DED020B324651EC100B01F080FCFFF78B
:103B7000F7F9042808BF00F0D3FC32469DED020B94
:103B800051EC100B01F073FCCDE902019DED020B2D
:103B900051EC180B53EC102B01F08EF8FFF732BBF1
:103BA0000000904000000000FE822B654715973C06
:103BB00000CC904000346F3F01FCFFFF0000E03F6D
:103BC000001C0000FFFF0F0000000000432EE63F36
:103BD000396CA80C615C20BEEF39FAFE422EE63F3C
:103BE000A01A0000000000000000000000000040DB
:103BF00010B52F499FED2C1B2DED020B84B00598BD
:103C000020F000408842DCBF00209DED040B32DD37
:103C10002849884209D1049840B94FF00100FCF7C7
:103C20008AFC00F05DFC06B010BD05DB9DED040BC9
:103C300000F042FC06B010BD68469DED040B00F09C
:103C40003BF810F0030011D0012818D09DED021BA5
:103C50009DED000B02281AD000F04AFA51EC100B2F
:103C600000F0C8FC06B041EC100B10BD9DED021B2E
:103C70009DED000B012000F06FFB06B010BD9DED27
:103C8000021B9DED000B00F033FA06B010BD0120C1
:103C900000F062FB51EC100B00F0ACFC06B041EC04
:103CA000100B10BD0000000000000000000000002C
:103CB000FB21E93F0000F07F2DE9F14F04462DED97
:103CC000020B2DED088B8AB09FEDE70B80ED020B08
:103CD000139EE74826F0004585420ADC9DED120B55
:103CE000002084ED000B0AB0BDEC088B03B0BDE8EA
:103CF000F08FE0489FEDE0AB9FEDE1BBA84247DDD0
:103D0000E14F9FEDE39B9FEDE48B9DED120B53EC98
:103D10001A2B51EC100B002E1CDD01F0D9F941ECEF
:103D2000100BBD4208D053EC1B2B51EC100B01F0D3
:103D3000CFF9C4E900010BE053EC192B51EC100B47
:103D400001F0C6F953EC182B01F0C2F9C4E90001E7
:103D50000120C8E700F08CFC41EC100BBD4208D0FC
:103D600053EC1B2B51EC100B00F082FCC4E900015A
:103D70000BE053EC192B51EC100B00F079FC53ECD9
:103D8000182B00F075FCC4E900014FF0FF30AAE7E2
:103D9000C348A84279DB9DED120B51EC100B00F0EB
:103DA000CFFB41EC180B9FEDC00B53EC102B00F038
:103DB00083FF9FEDBF1B53EC112B00F059FC00F06B
:103DC000A9FE074600F0D5FE41EC190B53EC1A2B67
:103DD00000F072FF53EC182B01F0A2F841EC180B25
:103DE00053EC1B2B51EC190B00F066FFDFF8C8A257
:103DF00041EC100B4FEA15580125FA4453EC102BF7
:103E000051EC180B01F064F9032DC4E900013DD019
:103E1000C1F30A5005EB4511A8EB000011398142AE
:103E200034DA0AEB051BB0EE48AA9BED000BF0EE6E
:103E300068AA53EC102B51EC190B00F03DFF41EC3C
:103E40001B0B51EC1A0B53EC1B2B01F041F941EC0D
:103E5000180B51EC1A0B53EC182B01F039F953ECF9
:103E60001B2B01F035F99BED020B41EC1A0B53ECC7
:103E7000102B51EC190B00F01FFF53EC1A2B01F023
:103E800027F941EC100B6D1CB8E70EE0002EA8BF1F
:103E90003846BFF628AF94ED000B51EC100B00F044
:103EA000A9FBC4E9000178421DE7C6F3130040F402
:103EB000801EC6F30A50A0F2F530471100F01F052E
:103EC000C5F12000DDF848B008900020069007906A
:103ED0000520EC467949002D07EB0002794408BF24
:103EE00051F8221009D051F8223001EB8201AB4089
:103EF0004A68089922FA01F11943A1FB0E26A1FB99
:103F00000B131A449A4234BF0123002303EB060823
:103F10000CEB8003D3E901A60E448E4234BF01218D
:103F2000002192448A4411B1924502D903E092459E
:103F300001D2012100E00021C3E901A641444CF86F
:103F40002010011EA0F10100C4DC029800F1005015
:103F5000850F0298DDE903678000DDF8148000F02A
:103F600008FE41EC1A0B304600F01AFE9FED541B80
:103F700053EC112B00F0A0FE41EC1B0B384600F077
:103F80000FFE9FED511B53EC112B00F095FE41EC01
:103F9000180B404600F004FE9FED4D1B53EC112B17
:103FA00000F08AFE41EC190B51EC180B53EC192B65
:103FB00000F05EFB53EC1B2B00F05AFB53EC1A2B6A
:103FC00000F056FBCDE90801002008909DED080B9C
:103FD00053EC1A2B51EC100B01F07AF853EC1B2B1D
:103FE00001F076F853EC182B01F072F853EC192B12
:103FF00000F096FF9FED381B53EC112B00F05CFE98
:104000009FED370B41EC180B53EC102B9DED080B7B
:1040100051EC100B00F050FE53EC182B00F028FB75
:104020009FED310B41EC180B53EC102B9DED080B61
:1040300051EC100B00F040FE53EC182B00F018FB75
:1040400041EC100B139810F0004F06D06D4251EC6C
:10405000100B00F0CFFA41EC100B284684ED000B5A
:1040600041E6000000000000000000000000000029
:10407000FB21E93F7CD9024000004054FB21F93F7D
:104080003163621A61B4D03DFB21F93F00000000AA
:104090000000601A61B4D03D7370032E8A19A33BEF
:1040A000FB2139410000000083C8C96D305FE43F47
:1040B000000000000000E03FC217000010170000E1
:1040C000000000000000103E000000000000103C56
:1040D000000000000000103A182D4454FB21F93D67
:1040E0003326A611460B113C00000054FB21F93D7C
:1040F00010B52DED040B2DED088B82B0B0EE419A7A
:10410000F0EE619A0B9820F000449FED4BABB4F1B8
:10411000795F11DA9DED0A0B51EC100B00F0FAFCFF
:10412000002801BFB0EE4A0AF0EE6A0A02B0BDEC08
:10413000088B04BF04B010BD9DED0A0B53EC102B8F
:1041400051EC100B00F0B8FD41EC180B3C48062177
:10415000B0EE480AF0EE680A784400F081F853ECBB
:10416000182B51EC100B00F0A7FD9DED0A0B41EC54
:104170001B0B53EC192B51EC100B00F09DFD41EC87
:10418000190B53EC1B2B51EC180B00F095FD53EC65
:10419000192B00F09DFF9FED2C0B41EC190B53ECFC
:1041A000102B51EC180B00F087FD41EC100B284848
:1041B000844210DA53EC192B51EC100B00F088FFFD
:1041C00053EC1A2B00F0ACFE41EC100B02B0BDEC2E
:1041D000088B04B010BD1F48A042BCBF9FED1E1B42
:1041E0008DED001B06DBA4F500100190002000906F
:1041F0009DED001B51EC100B53EC112B00F068FFF0
:104200009DED000B41EC180B53EC102B51EC1A0BED
:1042100000F05EFF41EC1A0B53EC192B51EC180B1C
:1042200000F056FF53EC1A2B00F07AFE41EC100B15
:10423000CCE7000000000000000000000000F03F9C
:104240002C14000000000000000000000000E03F0F
:104250003333D33F0000E93F000000000000D23FAD
:1042600070B504462DED028B4D1E00EBC500B0EE7F
:10427000408AF0EE608A90ED000B35F0060017D012
:1042800053EC182B51EC100B00F016FD41EC100B09
:104290006D1E04EBC50090ED001B51EC100B53ECB0
:1042A000112B00F0E5F941EC100B35F00600E7D1D9
:1042B000022D36D0042D1CD0062D1CBFBDEC028B68
:1042C00070BD53EC182B51EC100B00F0F5FC94ED85
:1042D0000A1B53EC112B00F0CBF953EC182B00F018
:1042E000EBFC94ED081B53EC112B00F0C1F941ECF1
:1042F000100B53EC182B51EC100B00F0DDFC94ED7F
:10430000061B53EC112B00F0B3F953EC182B00F003
:10431000D3FC94ED040B53EC102B00F0A9F941EC05
:10432000100B53EC182B51EC100B00F0C5FC94ED66
:10433000021B53EC112B00F09BF953EC182B00F0EF
:10434000BBFC94ED001B53EC112B00F091F9BDEC7C
:10435000028B41EC100B70BD31B504462DED040B02
:104360002DED0A8BB0EE41BAF0EE61BA0B989DEDDF
:104370000A0B20F00040B0F1795F0DDA51EC100B20
:10438000FEF7EEFD042808BF00F0CAF89DED0A0B09
:10439000BDEC0A8B05B030BD53EC102B51EC100B6B
:1043A00000F08AFC41EC180B9DED0A0B53EC182B26
:1043B00051EC100B00F080FC41EC190B2C48B0EED6
:1043C000480AF0EE680A05217844FFF749FF9FED9F
:1043D0002ACBB0EE40AAF0EE60AA9CB353EC1C2BA3
:1043E00051EC190B00F068FC41EC1C0B53EC1A2B40
:1043F00051EC190B00F060FC9FED210B41EC190B07
:1044000053EC102B51EC1B0B00F056FC53EC192B0A
:1044100000F05EFE53EC182B00F04EFC53EC1B2B0F
:1044200000F056FE53EC1C2B00F052FE9DED0A1BD3
:1044300053EC112B00F074FDBDEC0A8B05B041EC80
:10444000100B30BDFFE753EC1A2B51EC180B00F0AA
:1044500033FC53EC1C2B00F00BF953EC192B00F040
:104460002BFC9DED0A1B53EC112B00F001F9E3E747
:10447000C412000000000000495555555555C5BFF0
:10448000000000000000E03F9FED070B10B553EC6B
:10449000102B9FED070B51EC100B00F0A5F941EC30
:1044A000100B10BD00000000000000000000000024
:1044B000000000000000F03F10B553EC102B51EC51
:1044C000100B00F0D5F841EC100B10BD10B553ECFB
:1044D000112B51EC100B00F0CBF841EC100B10BD80
:1044E0009FED050B10B553EC102B51EC100B00F0A9
:1044F0007BF941EC100B10BD000000000000000033
:104500009FED050B10B553EC102B51EC100B00F088
:10451000D3FB41EC100B10BD000000000000007048
:104520009FED050B10B553EC102B51EC100B00F068
:10453000C3FB41EC100B10BD000000000000001098
:1045400082B0CDE9000121F0004001909DED000B0B
:1045500002B051EC100B704700B52DED048B83B009
:1045600041EC190B00F0E8FC41EC180B18EE100AB6
:1045700018EE901A8DED008B002818BF012008431B
:1045800020F00040C0F17F6000F1E040C00F14D087
:1045900019EE101A19EE900A8DED009B002918BF34
:1045A0000121084320F00040C0F17F6000F1E040AD
:1045B000C00F04BF0120FBF7BEFF51EC180B03B086
:1045C000BDEC048B00BD000010B500290AD00878AE
:1045D000002807D005487844FCF76AFB002801D082
:1045E000002010BD0248784410BD0000AE1100004C
:1045F000A611000081F00041704780F00040704734
:1046000021F00041704720F00040704721F0004247
:1046100001F00043A2F16052B2F5801F28BFD2F131
:104620007F6C0BD95FEA001C43EAC20242EB507078
:1046300018BF704728BF20F001007047B2F5801FF7
:10464000BCBF184670474FEA410C1CF5001F02D250
:10465000084600F0D3BE70B500F0D8FB000000891A
:10466000FFF7F6BF4FF00040A0F580007047000054
:1046700010B591EA030F48BF83F0004300F1308585
:10468000841A71EB030C05D2121943EB0C03001BC7
:1046900061EB0C014FEA1154A4EB135CDFF81CE151
:1046A0001EEA430F18BF9EEA445F00F0748021EABF
:1046B000045123EA0E0343F48013DCF1200E32D3BD
:1046C00022FA0CFE10EB0E0023FA0CFE41EB0E0159
:1046D000CCF1200E03FA0EFE10EB0E00CCF1200EF2
:1046E00051F10001B1F5801F32D201EB045112FAF1
:1046F0000EF2BDE8104058BF7047401C38BF5FEA5B
:10470000420218BF7047002814BF20F0010041F199
:1047100000014FEA410313F5001F38BF7047A1F1B4
:10472000C04100F0C1BB012A43EB0302ACF1200CF5
:10473000DCF11F0E32BF4FF0000E23FA0CF310EB2A
:10474000030041EB0451B4EB115FD0D0A1EB045155
:1047500001F58011490801EB04515FEA30000ED3E6
:1047600050F1000038BF12FA0EFE08D1BDE810402B
:10477000C9E7401C38BF5FEA4202CAD1C3E7BDE8BF
:1047800010404FEA410313F5001F38BF7047A1F1F5
:10479000C04100F089BB9EEA445F08D011EA5E0F79
:1047A000BDE8104004BF01F0004100207047BDE8A3
:1047B000104070B500F02AFB64FBBE3E0000E0FF35
:1047C00002494FF0000000F020BE00BF0000F87F5B
:1047D000491058BFC1F140415B1058BFC3F140437D
:1047E0008B42EFF3008070472DE9C04130B4DFF811
:1047F000A4C23CEA111418BF3CEA131400F0ED8087
:104800001CEA111481EA030544EAD57418BF1CEAB6
:10481000131500F0C880A4EB050404F17F7404F5BF
:1048200000344FF0004545EAC12145EAC32341EA7F
:10483000505143EA52534FEAC0204FEAC2229942F4
:1048400008BF904200F09D804FEA13650FF24416B6
:10485000765D4FEA134506FB05F7C7F1807706FB47
:1048600007F74FEAD737A7FB03687642A7FB06CEC8
:10487000C8F5803838BFA8F1010807FB08E6A6FB99
:10488000028C4FF0000EE6FB03CEDCF1000CCEF103
:10489000004E38BFAEF1010EA6FB0C584FF00007DA
:1048A000E6FB0E87A1FB08C6A0FB07CE16EB0E06A3
:1048B0004FF0000545F10005E1FB076515F1E04EFD
:1048C0007EBFA4F580345FEA46066D4116F180078D
:1048D00045F100054FEA172747EA05674FEA152516
:1048E0004FEA0666A6F1DE46B6F1805F20D938466B
:1048F00005EBC47124F0010C01EB0C11BCF1FE6F4F
:1049000002D8F0BCBDE8008124425CBF01F5801EE6
:104910009EEAC47F02D4F0BCBDE80081244200F1CD
:104920003980A1F1C041F0BCBDE8004100F0BCBA43
:104930004FEAD02040EA41504FEAD1214FEAD2223B
:1049400042EA43524FEAD323A7FB028607FB0366E2
:1049500005FB02661EEA0E0F58BFA6EB0056B6EB2B
:1049600000564FEA520E4EEAC37E18EB0E0E56EB7F
:10497000530EBCD518EB02085E417F1C55F10005B3
:10498000B5E74FF480154FF000074FF000064FF0E9
:104990000008ACE701F1C04101F000414FF0000018
:1049A000F0BCBDE800810CEA131511EA0C1F00D021
:1049B0000CE013EA0C1F00F026804FF0000081EAA3
:1049C000030101F00041F0BCBDE80081F0BCBDE88E
:1049D000004181EA030100F067BAF0BCBDE8004184
:1049E00070B500F013FA00BF097EFC3E00F007B876
:1049F0004FF0000081EA030101F00041704781EAB5
:104A0000030100F051BAF0BCBDE8004122494FF06B
:104A100000007047FFFDFBF9F7F5F4F2F0EEEDEB67
:104A2000E9E8E6E4E3E1E0DEDDDBDAD8D7D5D4D3AC
:104A3000D1D0CFCDCCCBCAC8C7C6C5C4C2C1C0BFF8
:104A4000BEBDBCBBBAB9B8B7B6B5B4B3B2B1B0AFFE
:104A5000AEADACABAAA9A8A8A7A6A5A4A3A3A2A1E2
:104A6000A09F9F9E9D9C9C9B9A999998979796959D
:104A700095949393929191908F8F8E8E8D8C8C8B39
:104A80008B8A8989888887878685858484838382C1
:104A9000828181800000FF070000F87F51EA030C4B
:104AA00017D41CF5801F58BFBCF5801F00F106808D
:104AB000994218BF704708BF9042704707D711F559
:104AC000801F58BF13F5801F19D49942704789423F
:104AD00070471CF5801F08D5BCF5801FF7D58B42A9
:104AE00018BF704708BF824270474FF4001C1CEB90
:104AF000410F38BF1CEB430F01D28B42704770B59A
:104B000000F084F9922449004FF000514FF0805397
:104B1000FFF75EBE4FEA41034FEA5353A3F58063AC
:104B2000D3F11E03C8BFD3F1210C0CDD4FF00042BE
:104B300042EAC12242EA505232FA03FC8CEAE17C9A
:104B4000ACEBE1707047102BC4BF0020704703F539
:104B5000787CBCF1FF3F04D06FF0004282EA210074
:104B6000704770B500F052F94992248000207047D8
:104B7000F2E710F0004248BF4042B0FA80F310FA6A
:104B800003F10AD0C3F11D0303F5806302EB035266
:104B90004FEA415002EBD12170474FF000007047BF
:104BA000B0FA80F310FA03F10AD0C3F11D0303F544
:104BB00080634FEA03524FEA415002EBD121704724
:104BC0004FF000007047000051EA030C17D41CF5A9
:104BD000801F58BFBCF5801F00F10680994218BFA6
:104BE000704708BF9042704707D711F5801F58BF24
:104BF00013F5801F19D499427047894270471CF5FC
:104C0000801F08D5BCF5801FF7D58B4218BF7047B1
:104C100008BF824270474FF4001C1CEB410F38BFA5
:104C20001CEB430F01D28B42704770B500F0EEF8D9
:104C3000922449004FF080514FF00053FFF7C8BD58
:104C400051EA030C17D41CF5801F58BFBCF5801F18
:104C500000F10680994218BF704708BF9042704724
:104C600007D711F5801F58BF13F5801F19D499423B
:104C70007047894270471CF5801F08D5BCF5801F1E
:104C8000F7D58B4218BF704708BF824270474FF478
:104C9000001C1CEB410F38BF1CEB430F01D28B42B1
:104CA000704770B500F0B2F8922449004FF00051FF
:104CB0004FF08053FFF78CBD70B5DFF848C11CEA98
:104CC000111E1EBF1CEA13159EEA0C0F95EA0C0F6D
:104CD00000F06F8081EA03044EEAD47EAE4421EAFC
:104CE0004C1123EA4C1341F4801143F48013AEF1CC
:104CF0007F7EA1FB024CA0FB0365361955EB0C052A
:104D0000A1FB034C4CF10003A0FB021C16EB0C06AC
:104D1000654153F10003094218BF46F0010613F440
:104D2000007F0BD14FEA03314FEA053041EA1551BC
:104D300040EA165034036FF003020AE04FEAC32141
:104D40004FEAC52041EA555140EA5650F4026FF04F
:104D5000020202EB2E4201EB025585EACE710AD027
:104D60005FEA440C18BF24F0004450F1000041F108
:104D7000000120EAD47040F2FE7C624500D270BD92
:104D8000A84214BF4FF080444FF04044002E08BFAB
:104D90000024BEF1806FA8BFA1F1C041BDE8704002
:104DA00080F2828001F1C04101F000414FF000002B
:104DB00070470CEA13159EEA0C0F18BF95EA0C0F0A
:104DC00006D081EA030E4FF000000EF0004170BDE6
:104DD00000F01CF88900013E00F007B800F009B8A7
:104DE0004FEA430C5FEA5C5C08D081EA030100F003
:104DF0005BB84FEA410C5FEA5C5CF6D102494FF0C8
:104E0000000070470000FF070000F87F0EF1020E5F
:104E10002EF0030E5EF8046B364205D4012A43EBF4
:104E2000030515F5001F12D8012841EB010C1CF5F4
:104E3000001F0CD80ED14FEAD17C0CEB4C0C0CF1BE
:104E4000020C15F5001F08BF4CEBD37C04E04FF0BB
:104E5000080C01E04FEAD37C0CEB4C0526FA05F672
:104E600006F00706B6F1040C06D20EEB860CBDE880
:104E700070404CF0010C6047DFE80CF0090B0202B7
:104E80004FF00041A1F500214FF0000070BD194620
:104E90001046012851EB010418BFD4F5001484BF5B
:104EA000002001F0004170BD0808A0F500114FEA94
:104EB0003101704753EA010C17D41CF5801F58BF0D
:104EC000BCF5801F00F106808B4218BF704708BFF9
:104ED0008242704707D713F5801F58BF11F5801F16
:104EE00019D48B4270479B4270471CF5801F08D530
:104EF000BCF5801FF7D5994218BF704708BF904294
:104F000070474FF4001C1CEB430F38BF1CEB410FE4
:104F100001D2994270470FB40CBC03BCFFF7C1BE6D
:104F200010B591EA030F81F000413FF5A9AB83F082
:104F3000004300F0D5B800002DE9F04101F5801CD8
:104F4000BCF5001FC0F2A9804FEA115C21EA0C51A8
:104F500041F480110CF1FD0C5FEA5C0C0CF5C07C97
:104F600001D340004941890241EA905187022EA4B1
:104F70008E0EA45D0A0C04FB04F602FB06F6C6F1D5
:104F80004046A4FB0662F60D46EA422606FB06F4FE
:104F9000A4FB01235242C3F1404338BF5B1EA6FB72
:104FA00002420024E6FB0324D20B42EA4446A6FB5D
:104FB0000623A1FB02E2A3FB07E4E3FB6142644298
:104FC000C2F1404E38BFAEF1010EA6FB04234FF0F4
:104FD0000002E6FB0E32A2FB03463400E2FB6264F1
:104FE000A1FB06E6A4FB07E8E4FB61687642C8F192
:104FF000405838BFA8F10108A2FB06E4A3FB08E56E
:10500000E2FB6854A1FB05E6A7FB04E8E1FB64862C
:1050100018F1200556F10006A80940EA8660B1099A
:10502000A8F11B0808F03F08B8F10A0F1CD901EBE2
:105030000C51BDE8F08100BFFCF5EEE8E2DDD8D30D
:10504000CFCBC7C3C0BDB9B6B4B1AEACA9A7A5A3F9
:10505000A19F9D9B9A9896959392908F8D8C8B890A
:105060008887868584838281A0FB006800FB01F22B
:1050700008EB4208B8EB872807D5341858EB010431
:10508000D5D5401C51F10001D1E7341A78EB010469
:10509000CDD4401E71F10001C9E75FEA4C0C5FEA14
:1050A0009C5C0DD105D301F000414FF00000BDE83C
:1050B000F081BDE8F04170B5FFF7A8FE6DDBFFBEE3
:1050C000BDE8F04101494FF0000070470000F87F53
:1050D00010B591EA030F48BF83F000433FF5D0AA13
:1050E000841A71EB030C07D28CF0004C121943EBBD
:1050F0000C03001B61EB0C014FEA1154A4EB135C91
:10510000DFF8A4E11EEA430F18BF9EEA445F00F0F7
:10511000B48021EA045123EA6E035242C3EB6E03CA
:1051200038BF5B1EDCF1200E25D322FA0CFE10EBFB
:105130000E0043FA0CFE41EB0E01CCF1200E03FAF7
:105140000EFE10EB0E00CCF1200E51F1000129D41F
:1051500001EB045112FA0EF2BDE8104058BF70473F
:10516000401C1CBFB2F1004F704700280CBF491C07
:1051700020F00100704712EB020E43EB030218BF50
:105180004FF0010E4EEA4202ACF1200CDCF11E0E93
:1051900056D943FA0CFE10EB0E00CCF11E0E51F165
:1051A000FF31D5D50EF1010E12FA0EFE404141EB52
:1051B000010101EB445C5FEA5C5C10D901EB045136
:1051C00010EBDE7038BFBEF1004FBDE8104018BFD5
:1051D000704700280CBF491C20F00100704734D2F2
:1051E0004FEAD42C24F4006411F500111BD0B1FA5D
:1051F00081F20B3AA41AA41ED2F12003914030FA96
:1052000003F31943904001EBCC7101EB0451002CE6
:10521000BDE81040A8BF704701F1C04101F0004156
:105220004FF000007047B0FA80F310FA03F102D19A
:10523000BDE810407047E41A173C4805C90AE2E788
:1052400001EB0451BDE81040704749104FEA3000AF
:1052500001EB0451BDE8104002E04FF0000170473F
:105260004A0008BF0042F8D0B2F5001F28BF7047BF
:1052700001F000414FF0000070479EEA445F07D004
:1052800011EA5E0FBDE8104004BF00210020704706
:10529000BDE8104070B5FFF7B9FD00BF40DFF63E36
:1052A000104683F0004170470000E0FF43004FEAE2
:1052B000D30C4FEA3C0C43401FBF40070CF1605138
:1052C00013F0FE4F70471CF0006F03D10CF000414B
:1052D000002070470CF0004343EA507040EACC00D5
:1052E00010B500F038F800BF000000924FEA00014E
:1052F000FFF7DABD4FF00041A1F500214FF00000AB
:10530000704710B5FFF7CAFB0CBF0120002010BD8D
:1053100010B5FFF7C3FB14BF0120002010BD10B56E
:10532000FFF752FC8CBF0120002010BD10B5FFF725
:105330004BFC2CBF0120002010BD10B5FFF780FCF6
:1053400094BF0120002010BD10B5FFF779FC34BFD9
:105350000120002010BD0EF1020E2EF0030E5EF8AB
:10536000044B244204D44FEA4102B2F17F4F11D8DA
:105370004FEA4003B3F17F4F0CD80ED14FEAD07CF7
:105380000CEB4C0C0CF1020CB2F17F4F08BF4CEB54
:10539000D17C04E04FF0080C01E04FEAD17C0CEB2B
:1053A0004C0324FA03F404F00704B4F1040C06D20D
:1053B0000EEB840CBDE810404CF0010C6047DFE8B8
:1053C0000CF0070802024FF00040A0F5800010BD6D
:1053D0000846420018BFD2F1807288BF00F000403A
:1053E00010BDF1EE100A4FF6FF71C0F2C03120EA95
:1053F000010040F04070E1EE100A7047FF2141EAE1
:10540000D050C0057047FBF7CDB90CF00F03092B46
:1054100008BF082000F059800A2B0BD0082B18BFBA
:10542000704708BF1CF0400F0AD04FF000004FF04B
:10543000000170471CF0400F18BF4FF0004070474C
:105440001CF0100F08D000F07F4220F0704342EAB9
:10545000D3014FEA4370704700F0604021F07F4273
:1054600042EA000201F07F4040EA727070474FF05C
:10547000FF0C4CF4E06C1CEA11531CBF9CEA030CBB
:105480009445C2BFDA4201EB02517047002B0DD0A8
:10549000BCF1000F0FD001F00041002AA4BF41F081
:1054A000E04141F07F614FF00000704701F00041A2
:1054B0004FF00000704750EA01334FF09B0C18BFCB
:1054C0004CF0806C7FF47CA970471CF4801F11D0D5
:1054D0001CF4E02F03D06FEACC31490070474FF045
:1054E0004050EFF3008222F0704242EA000282F361
:1054F000008870474FF00000704700000000000077
:10550000000000000000F03F000000000000F83F35
:1055100000000000000000000000004003B8E23F6F
:10552000000000000000000006D0CF43EBFD4C3E21
:10553000033333333333E33FFFAB6FDBB66DDB3F16
:105540004D268F515555D53F01411DA96074D13F5E
:1055500065DBC9934A86CD3FEF4E454A287ECA3F58
:105560003E5555555555C53F93BDBE166CC166BFDA
:105570002CDE25AF6A56113FF16BD2C541BDBBBED3
:10558000D0A4BE726937663E4C5555555555A53F5A
:105590007751C1166CC156BF9015CB19A001FA3EC8
:1055A000AD529C804F7E92BEC4B1B4BD9EEE213EF2
:1055B000D43888BEE9FAA8BD000000000000000051
:1055C00000004054FB21F93F3163621A61B4D03DC1
:1055D0000000601A61B4D03D7370032E8A19A33B9A
:1055E0000000002E8A19A33BC14920259A837B39EC
:1055F00000000000000000006E83F9A22915444E4F
:10560000D15727FCC0DD34F5999562DB4190433CCE
:10561000AB6351FE61C5BBDE3A6E24B7E0D24D42AA
:10562000EA2E49061C92D1091CEB1DFE3EA729B1AA
:10563000F53582E88444BB2E26709CE9417E5FB438
:1056400039D69139F43953838B5F849C3B28F9BD5B
:10565000FF97F81F0F9805DE8B112FEF1F6D0A5A69
:10566000CF7E366DB709CB27663F464F2DEA5F9E4A
:10567000C7BA27757BF1E5EBF739073DEA92528A05
:10568000B15FFB6B085D8D1F4630035600000000C4
:10569000A6F810111111813FD561C119A0012ABFCF
:1056A0007DFEB157E31DC73EEB9C2B8AE6E55ABE53
:1056B0007CD5CF5A3AD9E53D02400000000000A059
:1056C0000000000005400000000000C800000000CD
:1056D0000C4000000000409C000000001940000049
:1056E0000020BCBE0000000034400000BFC91B8E7B
:1056F00000000004B5400000504BCFD06607E2CF59
:10570000010000006C4100003E8251AADFEEA73488
:1057100001000000D9420000DCB5A0E23A301F973A
:10572000FFFFFFFFB4450000FD25A0C8E9A3C14F5E
:10573000FFFFFFFFFF3F00000000008000000000AF
:10574000FF3F00000000008000000000000000009B
:105750000000000001020304060708090000000021
:1057600001020304A0570008000000201000000000
:1057700028020008B057000810000020D8100000D0
:10578000480200081C00000043000000F8FFFFFF73
:105790000C0000000E0000000F0000002E000000B2
:1057A00001000000100000000024F40000000000D0
:04000005080001C529
:00000001FF
