:020000040800F2
:10000000200C0020990200084924000875210008EE
:1000100045240008C50600080D2D0008000000005A
:100020000000000000000000000000005124000853
:10003000C9060008000000004D24000855240008EF
:10004000B3020008B3020008B3020008B3020008BC
:10005000B3020008B3020008B3020008B3020008AC
:10006000B3020008B3020008D5060008B302000876
:10007000B3020008B3020008B3020008B30200088C
:10008000B3020008B3020008B3020008B30200087C
:10009000B3020008B3020008B3020008DD0600083E
:1000A000B3020008B3020008B3020008B30200085C
:1000B000B3020008B3020008B3020008B30200084C
:1000C000B3020008B3020008B3020008B30200083C
:1000D000B3020008B3020008B3020008B30200082C
:1000E000CD060008B3020008B3020008B3020008FE
:1000F000B3020008B3020008B3020008B30200080C
:10010000B3020008B3020008B3020008B3020008FB
:10011000B3020008B3020008B3020008B3020008EB
:10012000B3020008B3020008B3020008B3020008DB
:10013000B30200080000000000000000B302000845
:10014000B3020008B3020008B3020008B3020008BB
:10015000B3020008B3020008B3020008B3020008AB
:10016000B3020008B3020008B3020008B30200089B
:10017000B3020008B3020008B30200080000000048
:1001800000000000B30200080000000000000000B2
:10019000B30200080000000000000000B3020008E5
:1001A000000000000000000000000000B302000892
:1001B000B3020008B3020008B3020008B30200084B
:1001C000B302000800F002F800F057F814A696E811
:1001D000000CB244B344DA4501D100F04EF8BAE85D
:1001E0000F000FA696E83000A5EB040504EB060708
:1001F000AAEB0704A7F101074FEA15154FEA3414DB
:10020000A4F10104AC4201D300F037F813F0010F60
:1002100018BFFB1A43F0010300F001F8DBE71847B1
:10022000FC2B00001C2C0000103A24BF78C878C1B9
:10023000FAD8520724BF30C830C144BF04680C60EC
:1002400070470000704700000023002400250026AE
:10025000103A28BF78C1FBD8520728BF30C148BF29
:100260000B607047642900F0F780002070471FB5CD
:1002700002F0B3FD1FBD10B510BD00F0E8F9114646
:10028000FFF7F5FF02F044FD00F006FA03B4FFF7B4
:10029000F2FF03BC00F00EFA094880470948004706
:1002A000FEE7FEE7FEE7FEE7FEE7FEE7FEE7FEE726
:1002B000FEE7FEE704480549054A064B7047000083
:1002C0000D250008C501000820060020200C002094
:1002D000200800202008002053EA020C00F069806A
:1002E0002DE9F04B4FF00006002B1FBFB3FA83F54A
:1002F00003FA05F424FA05F65E4012BF1643B2FA7B
:1003000082F502FA05F4C5F120051EBF22FA05FCAC
:1003100044EA0C04203556EA044C4FEA144418BF52
:10032000641C4FF000084FF00009904271EB030C81
:1003300039D3002919BFB1FA81F701FA07F6B0FAEB
:1003400080F700FA07F6C7F120071EBF20FA07FC66
:1003500046EA0C062037B6FBF4FCA7EB0507103F76
:1003600007F01F0BCBF120062CFA06F60CFA0BFB5C
:1003700044BFB3460026202FA4BF5E464FF0000BBB
:100380005BEA060C08BF4FF0010B19EB0B0948EBB9
:100390000608ABFB027C06FB02CC0BFB03CCC01BAC
:1003A00071EB0C01C1E70B46024641464846BDE8E9
:1003B000F08B13B5084318BF4FF0FF300146AFF381
:1003C0000080BDE81C4070470FB41CB5074B06AA5F
:1003D0007B4469460090059800F021F900206946A9
:1003E00000F030F91CBC5DF814FB00007102000045
:1003F0002DE9F0410E460446002020622046E168C7
:10040000884730B3252805D0D4E901219047206AD8
:10041000401CF2E7E168204600278847050018D015
:10042000A5F14100192802D820354FF40067324663
:10043000294620462760FFF715FF40B1012804D068
:10044000F61D26F007060836D8E7361DD6E72846FB
:10045000DAE7206ABDE8F0812DE9F0410646002484
:1004600010687529314616A510D0AFF3008000281A
:1004700002DA404213A507E031688A0701D512A5C8
:1004800002E0490704D511A5012401E0AFF3008083
:1004900000210A2206F1240709E0B0FBF2FCB0FBC0
:1004A000F2F302FB1C00303078541846491C002837
:1004B000F3D123462A463046BDE8F04100F051B85A
:1004C000000000002D0000002B00000020000000B4
:1004D00010B5431C02E010F8011B71B18107FAD17D
:1004E0004FF0013202C88C1A8C4314EAC211F9D0C1
:1004F000C01A0A0603D0C01E10BDC01A10BD0A04DF
:1005000001D0801E10BD0902FCD0401E10BD4FF06E
:10051000000200B5134694469646203922BFA0E853
:100520000C50A0E80C50B1F12001BFF4F7AF09075F
:1005300028BFA0E80C5048BF0CC05DF804EB890050
:1005400028BF40F8042B08BF704748BF20F8022B93
:1005500011F0804F18BF00F8012B704770477047AB
:1005600070472DE9F0470D4699469246044600F142
:1005700024080168880604D5E06921F01001216093
:1005800000E00120A84201DD471B00E00027A1692F
:100590007A1902EB0900081AA0612078C00602D47B
:1005A0002046AFF30080002608E0D4E901211AF8C4
:1005B00006009047206A401C761C20624E45F4DB02
:1005C0002078C0060AD52046AFF3008006E0D4E9C3
:1005D000012130209047206A401C2062381EA7F17C
:1005E0000107F4DC07E0D4E9012118F80500904781
:1005F000206A401C2062281EA5F10105F3DC20467C
:10060000AFF300802078000602D50220BDE8F08715
:100610000120FBE701694A1C02610878704700B5B8
:100620008FB0CDE901310021059105497944CDE92B
:10063000031011466846FFF7DBFE0FB000BD000057
:10064000E5FFFFFF0A6802F8010B0A607047754674
:1006500000F02CF8AE4605006946534620F007002E
:10066000854618B020B5FFF725FEBDE820404FF0C5
:1006700000064FF000074FF000084FF0000BAC46AB
:10068000ACE8C009ACE8C009ACE8C009ACE8C009F6
:1006900021F007018D46704710B50446AFF3008086
:1006A0002046BDE81040FFF7F1BD0000004870474C
:1006B0001000002001491820ABBEFEE72600020012
:1006C00070470000FEE70000704700004FF4005044
:1006D00000F0A8BB102000F0A5BB000080B52020D2
:1006E00000F0A0FB402000F09DFB8020BDE8804092
:1006F00000F098BBEFF3108072B600BFFEE7000079
:1007000070B581B00022009290F83C20012A03D1FC
:100710000221084601B070BDD1F800E00122BEF10F
:100720000A0F1FFA8EFC80F83C2009D34FEA4C02D6
:10073000036812FA8EF2A2F11E0403F10C0204E027
:1007400003680EEB4E0403F1100207251668A5405E
:1007500026EA050515608D68166805FA04F4344329
:1007600014604968062907D801EB81014A1F194620
:1007700051F8345F0FE000BF0C2901EB810105D86F
:10078000A1F12302194651F8305F04E0A1F14102C2
:10079000194651F82C5F1F24944025EA04040C608C
:1007A0000CFA02F20C6842F2043CC4F2010C22433F
:1007B000ACF54174A3420A6006D0002180F83C10D9
:1007C000084601B070BD00BF1221BEF1110FC1F289
:1007D000000118BF8E453BD1DCF800208E4522F485
:1007E0008002CCF80020DCF8002042F40002CCF8B3
:1007F0000020E2D140F20801C2F2000109684DF682
:100800008362C4F21B32A1FB0212910C01EB810145
:100810004900009100990029CFD000BF009901390B
:10082000009100990029C8D00099013900910099E0
:100830000029C2D000990139009100990029BCD04B
:1008400000990139009100990029E7D1B5E700BF6F
:10085000BEF1120FB1D1DCF8001021F40001CCF888
:100860000010DCF8001041F48001CCF80010A4E77F
:100870000068C06C70470000002804BF012070476A
:1008800010B50446006C00283ED0206CC00645D44C
:10089000206C41F202118843023042F2043120649C
:1008A000C4F20101086820F4403008600A6894E846
:1008B00009101A43D4F810E00A604168012321F4BA
:1008C000807141604168C0F6007341EA0E214160C9
:1008D000416821F040714160416841EA0C0141608A
:1008E000816821F400618160E16882681143816060
:1008F000A16A8268994222F070628260826813D194
:1009000022F0405119E000BF204600F065F80020B9
:10091000606484F83C00206CC006B9D50120002139
:1009200084F83C1010BD00BF11438160816821F044
:1009300040518160E16A826811438160816821F0E1
:10094000020181608168227E94F8203041EA4201F0
:100950008160416883B141F40061416041684EF2B9
:10096000000221F460414160616ACFF6FF72436882
:1009700002EB4131194301E021F400614160C16A99
:1009800040F2000C21F47001C162E2696169CFF6A6
:10099000F07CC36A0CEB02521A43C262826822F4F2
:1009A0000072826094F83020836843EA42228260B9
:1009B000826822F480628260826842EA81218160DA
:1009C00000206064216C012262F301012164002196
:1009D00084F83C1010BD000080B586B042F20021C2
:1009E0000068C4F20101002288420592049201D0FD
:1009F00006B080BD43F630000092C4F202004369A5
:100A000043F480634361436903F480630093009B74
:100A10000092036843F020030360006800F02000A8
:100A200000900098202001900320CDE9020201F5FA
:100A3000724001A900F002FA06B080BD70B504460C
:100A400000680D468268520544BF80685FEAC05066
:100A500038D400F0C9FA21680A68920749D40646DA
:100A6000681C3CD0DDB90868800721D5086880077C
:100A70003FD4086880071BD50868800739D4086808
:100A8000800715D50868800733D4086880070FD51C
:100A900008688007E7D52CE00868800729D400F0B3
:100AA000A3FA801B2168A842F6D908688007F3D40E
:100AB000206C40F004002064002084F83C000320F7
:100AC00070BD00BF206C40F020002064002084F83E
:100AD0003C00012070BD00BF0868800709D4086889
:100AE000800706D4086880075CBF08685FEA8070EA
:100AF000F2D56FF012000860206C40F400702064A2
:100B0000886810F0405F01D0002070BD207E002872
:100B1000FAD1C86A10F4700F02D088684005F3D487
:100B2000206C20F480702064206CC004ECD4206C15
:100B300040F001002064002070BD000010B581B0BD
:100B40000021009190F83C10012903D1022001B04E
:100B500010BD00BF0468012180F83C10214651F807
:100B6000083FDB0729D10B684DF6836243F0010390
:100B70000B6040F20803C2F200031B68C4F21B3290
:100B8000A3FB02239A0C02EB42020092009AA2B14C
:100B9000009A013A0092009A7AB1009A013A0092C2
:100BA000009A52B1009A013A0092009A2AB1009A32
:100BB000013A0092009A002AEAD10A68036CD2072F
:100BC0000CD143F01001016400F1440101200A68D6
:100BD00010430860002001B010BD00BF40F2017258
:100BE00023EA020202F5807202646268520504D5AB
:100BF000026C012363F30D320264026C4FF0000EAD
:100C00000023D20444BF426C22F0060342F2043CAB
:100C1000436480F83CE06FF02200C4F2010C2060D5
:100C2000DCF80000C0060DD0ACF5417084422BD139
:100C30004FF60450CFF6FF705CF8000010F0405FF4
:100C400022D125E042F20000C4F20100844217D014
:100C500042F20020C4F2010084420DD042F20010A2
:100C6000C4F2010084420FD1DCF80000C00607D0B6
:100C7000ACF58270844207D1DCF80000C00603D4D2
:100C8000086810F0405F03D0002001B010BD00BF25
:100C90004FF080409BE700004379012B4FF00203A7
:100CA00020D010B50371036802F0100ED3F800C015
:100CB000D1E9001440F6FE7202FA0EF221432CEA4A
:100CC000020201FA0EF111431960C0211A6801FAFB
:100CD0000EF122EA01011960012100230171437123
:100CE000BDE8104018467047002804BF0120704737
:100CF00010B50446007920B900206071204600F04C
:100D000007F802202071002001212061217110BD0F
:100D100080B586B047F200410068C4F200010022AD
:100D200088420592049201D006B080BD43F630009F
:100D30000092C4F20200036943F0005303610369A7
:100D400003F000530093009B0092036843F00103FB
:100D50000360006800F001000090009810200190EE
:100D60000320CDE9020201F5C63001A900F066F8C2
:100D700006B080BD81B04FF0000CCDF800C0006817
:100D8000002900900098104414BF143008300090DF
:100D9000009900200B6001B0704700004279012AE1
:100DA0004FF0020226D010B50271026801F0100E59
:100DB0004FF0010C14680CFA0EF323431360D2F8C1
:100DC00000C049B13C230CF4701103FA0EF39942B0
:100DD0000AD1022105E000BF0CF03C013C2903D1FF
:100DE00001215368194351600121002201714271B0
:100DF000BDE8104010467047B0B5044600F0F4F866
:100E0000054640F20000C2F200000078611C18BFE5
:100E1000044400BF00F0E8F8401BA042FAD3B0BD84
:100E20007047000043F61441C4F201010A6802420F
:100E300014BF08607047FFF7F3BF00002DE9F04FC3
:100E400082B000F13E4707F1FF77860546EA972713
:100E500041F60006C4F20206072243F6004EB042F5
:100E600008BF0622C4F2010E062F38BF3A460026FC
:100E700000274FF00008009209E000BF08F10108C8
:100E80000237B8F1100F06F1040600F0A3800D68D8
:100E9000012202FA08F415EA0409EFD0D1F804B0EF
:100EA00003220BF0030CACF10105BA40012D6FEAEF
:100EB000020A0FD88268CD6802EA0A02BD402A43BE
:100EC00082604268A243CBF3001404FA08F4224380
:100ED000426005E0BCF1030F02D14FF0030C1EE0AD
:100EE000C2688C6802EA0A02BC402243BCF1020FCD
:100EF000C26014D16FF0030202EA58020244D2F831
:100F000020C006F01C040F230D69A3402CEA030344
:100F1000A5402B431362D1F804B00BF0030C026818
:100F20000CFA07F302EA0A021A431BF4403F02607C
:100F3000A4D0002243F644030192C4F202031A68CB
:100F40004FF6084C42F480421A601A68CFF6FF7CD4
:100F500002F480420192019A28F00302724452F88E
:100F60000C3006F00C050F24AC40A343009C04FA9F
:100F700005F52B4342F80C30DEF808204B6842EAB6
:100F8000090543F60C4CDC0258BF22EA0905CEF8ED
:100F90000850C4F2010CDCF800209C0242EA09056A
:100FA00058BF22EA0905CCF80050DEF804209C0363
:100FB00042EA090558BF22EA0905CEF80450DEF8D6
:100FC0000020DB0342EA090558BF22EA0905CEF8F2
:100FD000005053E702B0BDE8F08F0000002A08BFC0
:100FE000090481617047000040F21C60C2F20000F9
:100FF0000068704740F2000040F21C61C2F200003D
:10100000C2F2000100780A681044086070470000CE
:1010100080B543F60040C4F20200016841F400715B
:101020000160016841F480610160016841F48071F0
:101030000160032000F086F8002000F005F800F0C1
:1010400027F8002080BD000070B540F20006C2F213
:10105000000640F208013278C2F200014FF47A73C0
:101060000968B3FBF2F20446B1FBF2F1084600F066
:10107000C1FE0F2C4FF0010508D838B94FF0FF30F2
:1010800021460022002500F031F87460284670BD2A
:1010900082B0002043F640010190C4F202014A6888
:1010A00042F480424A604A6802F480420192019A06
:1010B0000090086840F080500860086800F0805098
:1010C0000090009802B07047002848BF704700F0B9
:1010D0001F01012202FA01F11C2202EAD0004EF2A5
:1010E0000012CEF2000281507047000010B54EF69B
:1010F0000C5CCEF2000CDCF80030C3F3022E8EF054
:101100000704042C28BF0424BEF103034FF0FF3E64
:101110000EFA04F438BF0023A14399400EFA03F3FA
:101120009A43114300F00F0200F160430901043AB1
:1011300003F564436244002848BF02F10C031970B0
:1011400010BD00004EF60C51CEF200010A684FF6B9
:10115000FF031A4060F30A2242F0806040F0FD7005
:101160000860704701220168C0F80025002280F85D
:10117000F424886940F000608861486D40F0805038
:1011800040F0030200204A6570470000002804BFB9
:10119000012070472DE9F04F8BB00446056890F8A8
:1011A000BD0428B9002084F8BC04204600F094F85F
:1011B000032084F8BD04E86BC0055CBF00202061FB
:1011C000206801F069FD206804F11C0A0A90D4E946
:1011D0000C5004F1040E9AE8C0079EE80E58CDE9C1
:1011E000085003A880E8C0030A988DE80058CDF89D
:1011F0001CA001F00DFA002853D120680021002521
:1012000001F052FD616869B301200023002200BF94
:1012100003EBC30304EB830787F83C20D3B201320E
:10122000A7F84430D3B2994287F83D0087F8405080
:10123000C7E912557D65EBD800200023002200BFCE
:1012400003EBC30304EB830787F87C220132D3B29C
:10125000994287F87D0287F88002C7E9A200C7F8A3
:101260009402EDD8A06822680A90D4E90C5004F1E9
:10127000140E04F1240AD4E903379EE840589AE892
:101280000007CDE9085002A880E8005810460A9AE5
:10129000CDE90076CDE90589CDF81CA001F0B8FABA
:1012A00030B1022084F8BD0401200BB0BDE8F08FFE
:1012B000002084F83800012084F8BD04606A012809
:1012C00002D12046FFF74EFF206801F091FA00207E
:1012D0000BB0BDE8F08F0000F0B59DB0044601A84A
:1012E00004305821FFF713F92068B0F1A04F01D066
:1012F0001DB0F0BD4FF48070019001A800F03EF8E1
:10130000002818BFFFF7F6F9002743F630061897B4
:10131000C4F202063068002440F0010030603068FA
:10132000C4F2020400F00100189018984FF4E8503D
:1013300018900220CDE9190703201B900A2018AD50
:101340001C9020462946FFF779FD4FF40070CDE947
:101350001807204629461A97FFF770FD706840F07D
:10136000800070600097706940F48040706170691F
:1013700000F48040009000981DB0F0BD2DE9F043CE
:1013800081B00446006843F68C06C107C4F2020629
:1013900004D14FF0000981070CD415E03168A26B2D
:1013A00021F0C06111433160B2FA82F14FEA511964
:1013B000810709D53168E26B21F0C05111433160DA
:1013C000002A08BF4FF00109410705D44FF000087B
:1013D000010712D420E000BF3168226B21F44011D4
:1013E00011433160B2FA82F14FEA5118B2F5801F11
:1013F00008BF4FF0010901070ED53168626B21F477
:1014000040011143B2F5800F316008BF4FF0010970
:10141000002A08BF4FF0010881065AD5002000902D
:1014200056F84C0C47F2000740F0805046F84C0C40
:1014300056F84C0CC4F2000700F080500090009861
:10144000386840F480703860FFF7CEFD054600BF75
:101450003868C00506D4FFF7C7FD401B0228F7D93E
:1014600090E100BF56F81C0C10F4407017D0216CAE
:1014700001F44071884212D056F81C0C40F64061CD
:10148000C4F24721012220F440700A6000220A6061
:1014900046F81C0C56F81C0CC00740F07B812068F5
:1014A000216C56F8842C4FF6FF4701F4407322F468
:1014B000F812C0F6FF770F40B3F5407F08BF3A43FC
:1014C00046F8842C56F81C2C6FF31F31114346F854
:1014D0001C1CC10610D4010619D441061FD4C10535
:1014E00025D4810530D4410536D4B9F1000F3FD160
:1014F000B0F5006F63D13BE094F8580040F64061CE
:10150000C4F24721C1F8A00320680106E5D5B168FF
:10151000E26C21F440011143B1604106DFD5B168AE
:10152000A26C21F080611143B160C105D9D5B168C9
:10153000626D21F000611143B160B2F1006F08BF2C
:101540004FF001088105CED5B168626C21F0805161
:101550001143B1604105C8D5B268216D22F0005237
:101560000A43B0F5006FB26018BFB1F1005F23D13C
:1015700040F26809C4F247290020C9F80000FFF7CB
:1015800033FD054656F88C0C000105D5FFF72CFD00
:10159000401B0228F6D9F5E02068C10702D0A16BF4
:1015A00000296FD0810702D5E16B00296AD041077D
:1015B00000F17D807FE000BFB9F1000FD8D1B8F114
:1015C000000F4FF0000000F0DE806827C4F24727CC
:1015D000B860FFF709FD054656F88C0C800005D56C
:1015E000FFF702FD401B0228F6D9CBE02068410737
:1015F00001D5216B19B101071AD5616BC1B956F834
:10160000041CD4E9062301F44031656A114341EA20
:10161000831141EA0561D4F82CC046F8041C3168F6
:101620006FF0FF0221F4F85102EB0C2211433160FC
:10163000C00516D5606DB0F1006F12D156F8040CDC
:10164000226AD4E9061300F07060D2034FF6FF75EA
:10165000AA430843A2F5803240EA8310104346F8BB
:10166000040C0120B860FFF7BFFC044656F88C0C50
:10167000800000F18B80FFF7B7FC001B0328F5D337
:1016800080E000BF56F8081C56F8082CD4E9013554
:1016900001F4403102F0706219436769114341EA75
:1016A000851141EA077146F8081C410703D5216BF3
:1016B000B1F5801F05D001071FD5616BB1F5800F13
:1016C0001BD156F8081C56F8082CD4E9013701F450
:1016D000403102F0E04219432569114341EA871184
:1016E00041EA0561D4F828C046F8081C3168ACF11D
:1016F000010221F01F011143316041051FD5216D09
:10170000B1F1005F1BD1271D56F808CC56F8082C04
:10171000A8CFFF034FF6FF7127EA01014FF0C06722
:1017200002F0E04207EA4C2707F100771A433A43F8
:10173000A1F5803142EA8512114346F8081C0005E4
:1017400010D5271D8FCF40EA8110D1034FF6FF72CD
:101750009143A1F5803140EA0360084340EA0770F5
:1017600046F8080C0120C9F80000FFF73DFC0546CB
:1017700056F88C0C00013FF522AFFFF735FC401BFB
:101780000228F5D9032001B0BDE8F083002001B0A4
:10179000BDE8F083FFF728FC054641F2883700BF1B
:1017A00056F81C0C80073FF57AAEFFF71DFC401B76
:1017B000B8424FF00300F3D9E5E70000002804BF6A
:1017C000012070472DE9F04143F60808C4F20208F1
:1017D0000446D8F8F8030D4600F00F00884207D2FF
:1017E00088F8F853D8F8F80300F00F00A84277D132
:1017F0002068810717D5410705D5D8F8001041F4B6
:10180000E051C8F80010010705D5D8F8001041F4E0
:101810006041C8F80010D8F80010A26821F0F0016B
:101820001143C8F80010C00740D1D8F8F80300F001
:101830000F00A84207D988F8F853D8F8F80300F049
:101840000F00A8424CD12068410707D5D8F80010F6
:10185000E26821F4E0511143C8F80010000708D5F0
:10186000D8F80000216920F4604040EAC100C8F8BF
:10187000000000F07DF8D8F8001042F6F452C1F3F1
:101880000311C0F60002515C40F2080220FA01F197
:1018900040F20400C2F200000068C2F200021160CF
:1018A000FFF7D2FB0020BDE8F08100BF6068811E19
:1018B000022907D258F8081C89015CBF0120BDE845
:1018C000F08111E0012807D158F8081C89035CBF9A
:1018D0000120BDE8F08107E058F8081C890703D40F
:1018E0000120BDE8F08100BFD8F8001021F003010D
:1018F0000843C8F80000FFF777FB064641F2883737
:10190000D8F80000616800F00C00B0EB810F8CD0BB
:10191000FFF76AFB801BB842F2D90320BDE8F081D3
:1019200040F2080043F60801C2F20000C4F20201CE
:101930000068096842F60462C1F38221C0F6000221
:10194000515CC8407047000040F2080043F60801AF
:10195000C2F20000C4F202010068096842F60462A3
:10196000C1F34231C0F60002515CC840704700002C
:1019700010B543F60404C4F202046068C0F38101A8
:1019800042F20040C0F2F400DFE801F04202081821
:1019900041F20020C0F27A0010BD00BF216801F0C2
:1019A0003F02216823684902C3F3881116D4A1FBC2
:1019B00000010023FEF790FC17E000BF216801F052
:1019C0003F02216823684902C3F3881114D4A1FBA4
:1019D00000010023FEF780FC15E000BF41F200206B
:1019E000C0F27A004843B0FBF2F021680222C1F352
:1019F000014102EB410109E041F20020C0F27A000E
:101A00004843B0FBF2F02168C1F30271B0FBF1F082
:101A100010BD0000002804BF012070472DE9F041EF
:101A200082B00446007843F60006C007C4F20206FE
:101A30000CD0B06800F00C00042840F089803068B9
:101A4000800303D56068002800F05081207880076B
:101A500023D5B06810F00C0F11D0B06800F00C0066
:101A6000082802D17068400209D5B06800F00C0067
:101A70000C2840F09F807068400200F19B80306825
:101A8000800703D5E068012840F030813068216983
:101A900020F0F80040EAC10030602078000713D43D
:101AA000207840072AD4A569002D00F01A81B0687B
:101AB00000F00C00082840F0AB80012D40F0E880D9
:101AC000012002B0BDE8F0816069002840F200000A
:101AD000C4F2472000F088800121C0F8801EFFF783
:101AE00083FA0546706F8007DAD4FFF77DFA401B52
:101AF0000228F7D9032002B0BDE8F081306C5FEA1C
:101B0000C0080AD400200190306C40F0805030644E
:101B1000306C00F080500190019847F20007C4F249
:101B200000073868C00537D4386840F480703860E2
:101B3000FFF75AFA054600BF3868C0052CD4FFF7F6
:101B400053FA401B0228F7D9032002B0BDE8F08108
:101B5000B06800F00C00082803D1706840023FF51F
:101B60006EAFB06800F00C000C2803D17068400222
:101B70003FF565AF6068B0F5803F07D0B0F5A02FA6
:101B800040F0CC80306840F480203060306840F411
:101B900080303060CCE000BFA068012805D0052867
:101BA00058D1306F40F004003067306F40F00100D2
:101BB00030675AE0E068002800F09C800020C4F202
:101BC000472001210160FFF70FFA054630688007C2
:101BD0003FF55CAFFFF708FA401B02284FF0030007
:101BE000F4D902B0BDE8F0810021C0F8801EFFF7F3
:101BF000FBF90546706F80077FF552AFFFF7F4F9E8
:101C0000401B0228F6D9032002B0BDE8F08100BFD6
:101C10000027C4F2472700203866FFF7E5F9022DB8
:101C200005460BD13068800140F19480FFF7DCF964
:101C3000401B02284FF00300F4D9D2E7306880013E
:101C40004FD5FFF7D1F9401B02284FF00300F5D91B
:101C5000C7E700BF316F002821F001013167316F04
:101C600021F00401316700F09980FFF7BDF90546C6
:101C700041F28837306F800700F1A280FFF7B4F996
:101C8000401BB842F6D9032002B0BDE8F08100BF86
:101C90007068E16900F480028A4227D1216A00F06D
:101CA0003F028A4222D147F6C071626A0140B1EB1D
:101CB000821F1BD1A16A4FF6FF73C903994300F439
:101CC0004032A1F580318A4210D1E16A00F07062A1
:101CD000B2EB016F0AD1216B00F0E040B0EB017F65
:101CE00004D1002002B0BDE8F08100BF012002B0A5
:101CF000BDE8F0810020C4F2472000210160FFF719
:101D000073F90546306880077FF5C7AEFFF76CF9B9
:101D1000401B02284FF00300F4D962E73168002825
:101D200021F480313160316821F48021316051D05B
:101D3000FFF75AF9054600BF306880033FF586AECD
:101D4000FFF752F9401B6428F6D9032002B0BDE822
:101D5000F08100BF04F11C052FCD246B084340EA3D
:101D60008210D9034FF6FF729143A1F5803140EA0A
:101D70000560084340EA0470706001203866FFF790
:101D800033F9044630688001ABD4FFF72DF9001B0E
:101D900002284FF00300F5D923E700BFFFF724F92D
:101DA000054641F2883700BF306F800708D5FFF73E
:101DB0001BF9401BB8424FF00300F5D911E700BFF3
:101DC000B8F1000F3FF56FAE306C20F080503064FA
:101DD00069E600BFFFF708F9054600BF30688003D9
:101DE0007FF534AEFFF700F9401B64284FF0030085
:101DF000F4D9F6E6411E0020B0EB116F1CBF0120A4
:101E000070474EF21002CEF2000251604EF623519E
:101E1000CEF20001F0230B70072190601160704733
:101E2000002804BF0120704710B5044690F83D001B
:101E300028B9002084F83C00204600F021F8242036
:101E400084F83D002068C16821F40051C16020463B
:101E500000F066FB2068016921F49041016141694D
:101E600021F02A014161C16841F40051C1600020A4
:101E70002021206484F83D1084F83E1010BD00003D
:101E8000016844F60000C4F20000814218BF7047A8
:101E900080B586B0002143F630020191C4F20202FF
:101EA000136900F5E23043F480231361136903F4EE
:101EB00080230193019B0191136843F00803136091
:101EC000126802F008020192019A4FF440720192E6
:101ED0000222CDE90221032104910721059101A9E4
:101EE000FEF7ACFF06B0BDE8804070472DE9F04337
:101EF00081B0044690F83D0020280DD10F460029FE
:101F00004FF0010000F0DD801646002A00F0D98075
:101F100094F83C00012803D1022001B0BDE8F08311
:101F2000012084F83C000020206421201D4684F814
:101F30003D00FFF759F8A684E684A1680646B1F58E
:101F4000805F03D12069002800F01081B846002787
:101F5000002084F83C00E18C2068002900F090808B
:101F600005F101090DE000BFB8F1000F28D018F805
:101F7000011B4160E18C0139E184E18C002900F012
:101F80007F8001680906EFD4B9F1000F0AD0FDB1D6
:101F9000FFF72AF8801BA8421AD8206801680906B2
:101FA000F6D5E1E701680906DED4016809065CBFE1
:101FB00001685FEA0161D7D401680906F2D5D3E769
:101FC00037F8021B4FF000086FF35F21D1E700BF25
:101FD000206850E8030F216820F4D07041E8030224
:101FE000BAB3206850E8030F216820F4D07041E8AC
:101FF000030272B3206850E8030F216820F4D07008
:1020000041E803022AB3206850E8030F216820F456
:10201000D07041E80302002ADAD11AE0206850E8C3
:10202000050F216820F0010041E80502DAB12068BF
:1020300050E8050F216820F0010041E8050292B147
:10204000206850E8050F216820F0010041E80502F2
:102050004AB1206850E8050F216820F0010041E8EE
:102060000502002ADAD1202084F83D0084F83E00E1
:10207000002084F83C00032001B0BDE8F08300BFDD
:102080000168490619D4FDB1691C0DD101684906E2
:1020900013D4016849065CBF01685FEA41610CD452
:1020A00001684906F2D508E0FEF79EFF801BA842B2
:1020B0000AD8206800684006F6D5202084F83D0044
:1020C000002001B0BDE8F083206850E8030F2168CC
:1020D00020F4D07041E80302E2B3206850E8030F17
:1020E000216820F4D07041E803029AB3206850E8D8
:1020F000030F216820F4D07041E8030252B3206836
:1021000050E8030F216820F4D07041E80302002A50
:10211000DAD11FE0206850E8050F216820F00100A7
:1021200041E80502002A9ED0206850E8050F21688A
:1021300020F0010041E80502002A3FF494AF206836
:1021400050E8050F216820F0010041E80502002A4F
:102150003FF489AF206850E8050F216820F00100A6
:1021600041E80502002AD5D17DE700BF4FF0000805
:10217000EEE60000FEE70000B0B584B040F270006B
:1021800042F2002101230024C2F20000C4F2010146
:10219000C0F60073012503944FF48032047680F872
:1021A0002040C0E90A34C56180F8304080E816005C
:1021B000C0E903444561FEF75FFB28B1EFF31080EF
:1021C00072B600BFFEE700BF0F20CDE9000540F268
:1021D0007000C2F2000069460294FEF791FA28B13D
:1021E000EFF3108072B600BFFEE700BF04B0B0BDD1
:1021F00080B582B00020CDE9000040F2B80047F27F
:102200000041C2F20000C4F200010160FEF76CFD63
:1022100020B1EFF3108072B6FEE700BF40F2B800C5
:10222000C2F2000069460022FEF736FD20B1EFF34E
:10223000108072B6FEE700BF02B080BD2DE9F04FFE
:1022400087B0002443F63000CDE905440194C4F280
:102250000200016840F6000841F0040101600168D5
:10226000C4F2020801F0040101910199019401688E
:10227000A8F5806741F0200101600168002201F0AB
:102280002001019101990194016844F2810A41F011
:1022900080010160016801F08001019101990194C0
:1022A000016841F001010160016801F00101019143
:1022B00001990194016841F002010160016801F097
:1022C0000201019101990194016841F00801016046
:1022D000016801F00801019101990194016841F040
:1022E00040010160006844F2810100F0400001906B
:1022F00001983846FEF772FE08F5805528464021C1
:1023000000224FF0400BFEF769FE40464FF470612B
:102310000022FEF763FE4FF4005002AE02904FF42D
:10232000881940463146CDE90394FEF787FDCDF884
:1023300008A04FF0010A38463146CDE903A40594C0
:10234000FEF77CFD28463146CDE902BACDE90444CA
:10235000FEF774FD8020CDE902042846314604943E
:10236000FEF76CFD4FF47060CDE9020A404631463D
:10237000CDE90444FEF762FDF020CDE90209022018
:10238000049008F580603146FEF758FD0A200021D0
:102390000022FEF7ABFE0A20FEF796FE1720002172
:1023A0000022FEF7A3FE1720FEF78EFE2820002154
:1023B0000022FEF79BFE2820FEF786FE07B0BDE850
:1023C000F08F000080B540F2D85044F60001C2F210
:1023D0000000C4F2000100234FF00C0C4FF4164231
:1023E00080E80E00C0E90333C0E905C3C361FFF70D
:1023F00017FD002808BF80BDEFF3108072B600BF44
:10240000FEE7000080B540F2CC00C2F200004FF0C1
:10241000A0410622C0E90012022100220123C0E9E6
:102420000312C0E90613C0E90822C0E90B32FEF727
:10243000ADFE002808BF80BDEFF3108072B600BF6C
:10244000FEE70000FEE70000FEE700007047000026
:1024500070470000FEF7CEBDB0B594B0002443F63F
:102460004000CDE90B44CDE909440694CDE904448C
:10247000CDE902440194C4F202000168022541F052
:1024800080510160006800F080500190019847F28F
:1024900000000194C4F20000016841F44041016071
:1024A000006800F4404001900198012007904FF42B
:1024B000A02008904FF480000E9004200F90A820D8
:1024C000CDE910050720CDE9120507A80D95FFF706
:1024D000A1FA28B1EFF3108072B600BFFEE700BF8B
:1024E0000F20CDE902054FF4A05005904FF4805025
:1024F000069002A805210494FFF760F920B1EFF3DC
:10250000108072B6FEE700BF14B0B0BD4EF6885022
:10251000CEF20000016841F47001016070470000D4
:1025200010B504460068D4E902C22369016921F4A8
:10253000405111430161626943EA0C01E3691143AF
:10254000C268194349F20C639A431143C16041695F
:10255000A26921F4407141F20043114340F48062CA
:10256000C4F201039A42416102D1FFF7EDF901E0A3
:10257000FFF7D6F9E16963681922B1F5004FA0FBB6
:10258000020123D15A00DB0FFDF7A6FE48F21F51CE
:10259000C5F2EB11A0FB01235A094FF69C73C0F65C
:1025A000FF7303F1805302FB0300322303EBC000EF
:1025B000A0FB01014FF4F87000EA111000EB0210CB
:1025C000C1F3421108442168886010BD9A009B0F36
:1025D000FDF782FE48F21F51C5F2EB11A0FB01236B
:1025E0005A094FF69C73C0F6FF7302FB03003223B7
:1025F00003EB0010A0FB0101F02000EA511000EBFA
:102600000210C1F3431108442168886010BD000026
:1026100082B00499DDF808C0012940F64051C0F2AB
:1026200003016FD1826B4FF6BF7322F48032826355
:10263000C268CFF6BD731A40C260C2680B9B22F419
:102640004012012BC26003D1C26842F48012C26002
:1026500000220092009A01320092009A8A4200F20F
:10266000A9800269002A1ED4009A01320092009AC1
:102670008A4200F29F800269002A14D4009A013233
:102680000092009A8A4200F295800269002A0AD4D8
:10269000009A01320092009A8A4200F28B8002690D
:1026A000B2F1FF3FD6DC00220092026942F0010243
:1026B0000261009A01320092009A8A427AD8026935
:1026C000D2071AD0009A01320092009A8A4271D839
:1026D0000269D20711D0009A01320092009A8A4210
:1026E00068D80269D20708D0009A01320092009A95
:1026F0008A425FD80269D207DBD10021BCF1010F09
:1027000072D169E0C268089B42F04002C2600022B8
:102710000192019A01320192019A8A4250D80269CB
:10272000002A1BD4019A01320192019A8A4247D8A9
:102730000269002A12D4019A01320192019A8A4256
:102740003ED80269002A09D4019A01320192019A05
:102750008A4235D80269B2F1FF3FDADC00220192E9
:10276000026942F001020261019A01320192019A6A
:102770008A4225D80269D2071AD0019A0132019201
:10278000019A8A421CD80269D20711D0019A0132FB
:102790000192019A8A4213D80269D20708D0019A9D
:1027A00001320192019A8A420AD80269D207DBD12A
:1027B000002106E00321BCF1010F15D10CE000BFA0
:1027C0000321826B002B14BF22F4803242F480324A
:1027D0008263BCF1010F07D1826842F00602826079
:1027E000826842F020028260084602B07047000012
:1027F0000146D0F8000E20F00300C1F8000ED1F819
:10280000040840F002020020C1F8042870470000CC
:102810002DE9F04F83B0DDF84C800E9F0022B8F117
:10282000000FC0F80421C0F80821C0F80C21C0F83E
:102830001021C0F81421C0F81821C0F81C21C0F8DC
:102840002021C0F82421C0F82821C0F82C21C0F88C
:102850003021C0F83421C0F83821C0F83C2107D01D
:10286000826B00F5006B42F40012826314E000BF3B
:10287000D0F8042800F5006B42F00202C0F80428EA
:10288000826B22F400128263026842F0400202600E
:10289000066846F0800606600026C0F8006ED0F894
:1028A0000068012FC0F8006806D1DBF80070002B2B
:1028B00018BF47F0010703E0DBF8003043F00307DF
:1028C000DDF83CE0DDF8309040F64055C0F20305FD
:1028D0000023C0F800780193019B01330193019B11
:1028E000AB4249D80369002B1BD4019B01330193F0
:1028F000019BAB4240D80369002B12D4019B0133EA
:102900000193019BAB4237D80369002B09D4019B8B
:1029100001330193019BAB422ED80369B3F1FF3F12
:10292000DADC002301934FF484630361019B0133DC
:102930000193019BAB421FD803699B061AD5019BEB
:1029400001330193019BAB4216D803699B0611D555
:10295000019B01330193019BAB420DD803699B0698
:1029600008D5019B01330193019BAB4204D8036955
:102970009B06DBD4002400E0012400230293029B89
:1029800001330293029BAB4248D80369002B1BD44E
:10299000029B01330293029BAB423FD80369002B99
:1029A00012D4029B01330293029BAB4236D80369D7
:1029B000002B09D4029B01330293029BAB422DD81A
:1029C0000369B3F1FF3FDADC0023029310230361B4
:1029D000029B01330293029BAB421FD80369DB06C3
:1029E0001DD5029B01330293029BAB4216D80369AB
:1029F000DB0614D5029B01330293029BAB420DD838
:102A00000369DB060BD5029B01330293029BAB42A9
:102A100004D80369DB06DBD401E000BF01244FF0DA
:102A2000000A0029CBF810A0CBF814A0CBF81CA00A
:102A300000F00481D0F800394FF0006707EA131363
:102A40004FF67F324E1EC0F80039C0F810A9C0F80A
:102A500008297BD08B1E032B06F0030972460094D5
:102A600004D22024B9F1000F3FD165E026F0030421
:102A700000234FF0904E4FF67F384FF0000C00BF10
:102A800000EB0C05D5F82079043C0EEAE777C5F891
:102A90002079C5F83039C5F82889D5F840790CF186
:102AA000800C0EEAE777C5F84079C5F85039C5F8CB
:102AB0004889D5F860790EEAE777C5F86079C5F8F6
:102AC0007039C5F86889D5F880790EEAE777C5F8D6
:102AD0008079C5F89039C5F88889D1D1DDF84C8066
:102AE0000CF12004B9F1000F26D000F510673D5914
:102AF0004FF0904C0CEAE5753B193D5100244FF620
:102B00007F3EB9F1010F1C61C3F808E014D01D6AC3
:102B1000B9F1020F0CEAE5771F621C63C3F828E0E5
:102B20000AD01F6C4FF0904505EAE7771F64002735
:102B30001F654FF67F379F64DDF83090009C0029B9
:102B400096464FF67F324FF0006777D0D0F8003BC3
:102B5000002E07EA1313C0F8003B4FF00003C0F843
:102B6000103BC0F8082B69D00239032906F0030C8A
:102B700004D22023BCF1000F3BD15FE0009426F08B
:102B800003044FF090474FF67F3600214518D5F8E3
:102B9000202B043C07EAE272C5F8202BC5F8303B35
:102BA000C5F8286BD5F8402B01F1800107EAE272E5
:102BB000C5F8402BC5F8503BC5F8486BD5F8602BDD
:102BC00007EAE272C5F8602BC5F8703BC5F8686B80
:102BD000D5F8802B07EAE272C5F8802BC5F8903B48
:102BE000C5F8886BD2D1009C01F12003BCF1000F25
:102BF00024D000F53062D6584FF0904707EAE676C9
:102C0000D118D65000264FF67F33BCF1010F0E616C
:102C10008B6013D00A6ABCF1020F07EAE2720A6203
:102C20000E638B620AD00A6C4FF0904303EAE272A3
:102C30000A6400220A654FF67F328A64DBF81010BE
:102C4000B9F1000F21F48071CBF810106FF08041C2
:102C5000C0F818A0416103D1816941F01001816180
:102C6000816943F60002C8F23C021143BEF1000F35
:102C7000816103D0816941F008018161B8F1010FE0
:102C800005D1816941F0804141F004018161204614
:102C900003B0BDE8F08F00000146806820F001021B
:102CA00000208A6070470000B0B50446C06820F07C
:102CB000C040E06091B1012926D1E068002540F0D4
:102CC0000050E0600120FEF797F86069C00705F149
:102CD000010014D1312D0546F4D310E0E068002541
:102CE00040F08040E06000BF0120FEF785F8606999
:102CF000C00705F1010002D0312D0546F4D332386A
:102D0000B0FA80F04009B0BD0120B0BDFEE7000080
:102D10009AB0FEF77DF9FFF79FFBFFF78FFAFFF7F9
:102D20002BFAFFF74FFBFFF76DFBFFF761FA40F25D
:102D30007004C2F200042046FDF700FF2046642123
:102D4000FDF77CFE2046FDF793FD42F60C68C0F6C9
:102D5000000801AE82B230464146FDF735FB3046F1
:102D600000F02CF840F2B807C2F200073846FDF731
:102D7000BBFF38460021FEF711F83846002100223B
:102D8000FF23FDF7F7FF00BF2046FDF7D7FE2046E3
:102D90006421FDF753FE2046FDF76AFD85B23046FB
:102DA00041462A46FDF710FB304600F007F838464A
:102DB000002100222B46FDF7DDFFE5E710B50446B4
:102DC000FDF786FB82B240F2D850C2F200002146E5
:102DD0006423BDE81040FFF789B8F1EE100A4FF602
:102DE000FF71C0F2C03120EA010040F04070E1EE16
:102DF000100A7047000000000000000001020304F8
:102E00000607080900000000010203046164635F13
:102E10007265733D25640D0A00000000402E000815
:102E2000000000201000000028020008502E0008BA
:102E300010000020100C00004802000800000000F4
:102E400001000000100000000024F4000000000059
:04000005080001C529
:00000001FF
